{
  "_format": "hh-sol-artifact-1",
  "contractName": "MasterChef",
  "sourceName": "contracts/new.sol",
  "abi": [
    {
      "inputs": [
        {
          "internalType": "address",
          "name": "_diamond",
          "type": "address"
        }
      ],
      "stateMutability": "nonpayable",
      "type": "constructor"
    },
    {
      "anonymous": false,
      "inputs": [
        {
          "indexed": true,
          "internalType": "address",
          "name": "user",
          "type": "address"
        },
        {
          "indexed": true,
          "internalType": "uint256",
          "name": "pid",
          "type": "uint256"
        },
        {
          "indexed": false,
          "internalType": "uint256",
          "name": "amount",
          "type": "uint256"
        }
      ],
      "name": "Deposit",
      "type": "event"
    },
    {
      "anonymous": false,
      "inputs": [
        {
          "indexed": true,
          "internalType": "address",
          "name": "user",
          "type": "address"
        },
        {
          "indexed": true,
          "internalType": "uint256",
          "name": "pid",
          "type": "uint256"
        },
        {
          "indexed": false,
          "internalType": "uint256",
          "name": "amount",
          "type": "uint256"
        }
      ],
      "name": "EmergencyWithdraw",
      "type": "event"
    },
    {
      "anonymous": false,
      "inputs": [
        {
          "indexed": true,
          "internalType": "address",
          "name": "previousOwner",
          "type": "address"
        },
        {
          "indexed": true,
          "internalType": "address",
          "name": "newOwner",
          "type": "address"
        }
      ],
      "name": "OwnershipTransferred",
      "type": "event"
    },
    {
      "anonymous": false,
      "inputs": [
        {
          "indexed": true,
          "internalType": "address",
          "name": "user",
          "type": "address"
        },
        {
          "indexed": true,
          "internalType": "uint256",
          "name": "pid",
          "type": "uint256"
        },
        {
          "indexed": false,
          "internalType": "uint256",
          "name": "amount",
          "type": "uint256"
        }
      ],
      "name": "Withdraw",
      "type": "event"
    },
    {
      "inputs": [],
      "name": "DEFAULT_HARVEST_INTERVAL",
      "outputs": [
        {
          "internalType": "uint256",
          "name": "",
          "type": "uint256"
        }
      ],
      "stateMutability": "view",
      "type": "function"
    },
    {
      "inputs": [],
      "name": "MAX_HARVEST_INTERVAL",
      "outputs": [
        {
          "internalType": "uint256",
          "name": "",
          "type": "uint256"
        }
      ],
      "stateMutability": "view",
      "type": "function"
    },
    {
      "inputs": [
        {
          "internalType": "uint256",
          "name": "_allocPoint",
          "type": "uint256"
        },
        {
          "internalType": "contract IERC20",
          "name": "_lpToken",
          "type": "address"
        },
        {
          "internalType": "uint16",
          "name": "_depositFeeBP",
          "type": "uint16"
        },
        {
          "internalType": "bool",
          "name": "_withUpdate",
          "type": "bool"
        }
      ],
      "name": "add",
      "outputs": [],
      "stateMutability": "nonpayable",
      "type": "function"
    },
    {
      "inputs": [
        {
          "internalType": "uint256",
          "name": "",
          "type": "uint256"
        }
      ],
      "name": "addRewardInfo",
      "outputs": [
        {
          "internalType": "uint256",
          "name": "startBlockNumber",
          "type": "uint256"
        },
        {
          "internalType": "uint256",
          "name": "endBlockNumber",
          "type": "uint256"
        },
        {
          "internalType": "uint256",
          "name": "rewardAmount",
          "type": "uint256"
        }
      ],
      "stateMutability": "view",
      "type": "function"
    },
    {
      "inputs": [
        {
          "internalType": "uint256",
          "name": "_amount",
          "type": "uint256"
        },
        {
          "internalType": "uint256",
          "name": "_days",
          "type": "uint256"
        }
      ],
      "name": "addRewards",
      "outputs": [],
      "stateMutability": "nonpayable",
      "type": "function"
    },
    {
      "inputs": [
        {
          "internalType": "address",
          "name": "_user",
          "type": "address"
        },
        {
          "internalType": "uint8",
          "name": "_pid",
          "type": "uint8"
        }
      ],
      "name": "availableForWithdraw",
      "outputs": [
        {
          "internalType": "uint256",
          "name": "totalAmount",
          "type": "uint256"
        }
      ],
      "stateMutability": "view",
      "type": "function"
    },
    {
      "inputs": [
        {
          "internalType": "uint8",
          "name": "_pid",
          "type": "uint8"
        },
        {
          "internalType": "address",
          "name": "_user",
          "type": "address"
        },
        {
          "internalType": "uint256",
          "name": "accPerShare",
          "type": "uint256"
        },
        {
          "internalType": "uint256",
          "name": "depositIndex",
          "type": "uint256"
        }
      ],
      "name": "availableIndividualRewardsForHarvest",
      "outputs": [
        {
          "internalType": "uint256",
          "name": "totalRewardAmount",
          "type": "uint256"
        },
        {
          "internalType": "uint256",
          "name": "rewardAmount",
          "type": "uint256"
        },
        {
          "internalType": "uint256",
          "name": "taxAmount",
          "type": "uint256"
        }
      ],
      "stateMutability": "view",
      "type": "function"
    },
    {
      "inputs": [
        {
          "internalType": "uint8",
          "name": "_pid",
          "type": "uint8"
        },
        {
          "internalType": "address",
          "name": "_user",
          "type": "address"
        },
        {
          "internalType": "uint256",
          "name": "accPerShare",
          "type": "uint256"
        }
      ],
      "name": "availableRewardsForHarvest",
      "outputs": [
        {
          "internalType": "uint256",
          "name": "totalRewardAmount",
          "type": "uint256"
        },
        {
          "internalType": "uint256",
          "name": "rewardAmount",
          "type": "uint256"
        },
        {
          "internalType": "uint256",
          "name": "taxAmount",
          "type": "uint256"
        }
      ],
      "stateMutability": "view",
      "type": "function"
    },
    {
      "inputs": [
        {
          "internalType": "uint8",
          "name": "_pid",
          "type": "uint8"
        },
        {
          "internalType": "address",
          "name": "_user",
          "type": "address"
        },
        {
          "internalType": "uint256",
          "name": "_depositIndex",
          "type": "uint256"
        }
      ],
      "name": "calculateRewardRate",
      "outputs": [
        {
          "internalType": "uint256",
          "name": "rewardRate",
          "type": "uint256"
        }
      ],
      "stateMutability": "view",
      "type": "function"
    },
    {
      "inputs": [
        {
          "internalType": "uint8",
          "name": "_pid",
          "type": "uint8"
        },
        {
          "internalType": "address",
          "name": "_user",
          "type": "address"
        }
      ],
      "name": "canHarvest",
      "outputs": [
        {
          "internalType": "bool",
          "name": "",
          "type": "bool"
        }
      ],
      "stateMutability": "view",
      "type": "function"
    },
    {
      "inputs": [
        {
          "internalType": "uint8",
          "name": "_pid",
          "type": "uint8"
        },
        {
          "internalType": "uint256",
          "name": "_amount",
          "type": "uint256"
        }
      ],
      "name": "deposit",
      "outputs": [],
      "stateMutability": "nonpayable",
      "type": "function"
    },
    {
      "inputs": [
        {
          "internalType": "address",
          "name": "",
          "type": "address"
        },
        {
          "internalType": "uint256",
          "name": "",
          "type": "uint256"
        },
        {
          "internalType": "uint256",
          "name": "",
          "type": "uint256"
        }
      ],
      "name": "depositInfo",
      "outputs": [
        {
          "internalType": "uint256",
          "name": "pid",
          "type": "uint256"
        },
        {
          "internalType": "uint256",
          "name": "amount",
          "type": "uint256"
        },
        {
          "internalType": "uint256",
          "name": "lockupPeriod",
          "type": "uint256"
        },
        {
          "internalType": "uint256",
          "name": "nextWithdraw",
          "type": "uint256"
        },
        {
          "internalType": "uint256",
          "name": "accDiamondPerShare",
          "type": "uint256"
        },
        {
          "internalType": "uint256",
          "name": "taxAmount",
          "type": "uint256"
        }
      ],
      "stateMutability": "view",
      "type": "function"
    },
    {
      "inputs": [],
      "name": "diamond",
      "outputs": [
        {
          "internalType": "address",
          "name": "",
          "type": "address"
        }
      ],
      "stateMutability": "view",
      "type": "function"
    },
    {
      "inputs": [],
      "name": "diamondPerBlock",
      "outputs": [
        {
          "internalType": "uint256",
          "name": "",
          "type": "uint256"
        }
      ],
      "stateMutability": "view",
      "type": "function"
    },
    {
      "inputs": [
        {
          "internalType": "uint8",
          "name": "_pid",
          "type": "uint8"
        }
      ],
      "name": "emergencyWithdraw",
      "outputs": [],
      "stateMutability": "nonpayable",
      "type": "function"
    },
    {
      "inputs": [
        {
          "internalType": "uint8",
          "name": "",
          "type": "uint8"
        }
      ],
      "name": "enableStaking",
      "outputs": [
        {
          "internalType": "bool",
          "name": "",
          "type": "bool"
        }
      ],
      "stateMutability": "view",
      "type": "function"
    },
    {
      "inputs": [
        {
          "internalType": "uint8",
          "name": "_pid",
          "type": "uint8"
        },
        {
          "internalType": "address",
          "name": "_user",
          "type": "address"
        }
      ],
      "name": "getDepositInfo",
      "outputs": [
        {
          "components": [
            {
              "internalType": "uint256",
              "name": "pid",
              "type": "uint256"
            },
            {
              "internalType": "uint256",
              "name": "amount",
              "type": "uint256"
            },
            {
              "internalType": "uint256",
              "name": "lockupPeriod",
              "type": "uint256"
            },
            {
              "internalType": "uint256",
              "name": "nextWithdraw",
              "type": "uint256"
            },
            {
              "internalType": "uint256",
              "name": "accDiamondPerShare",
              "type": "uint256"
            },
            {
              "internalType": "uint256",
              "name": "taxAmount",
              "type": "uint256"
            }
          ],
          "internalType": "struct MasterChef.DepositInfo[]",
          "name": "",
          "type": "tuple[]"
        }
      ],
      "stateMutability": "view",
      "type": "function"
    },
    {
      "inputs": [
        {
          "internalType": "uint8",
          "name": "_pid",
          "type": "uint8"
        }
      ],
      "name": "getDiamondRewardFromBlock",
      "outputs": [
        {
          "internalType": "uint256",
          "name": "",
          "type": "uint256"
        }
      ],
      "stateMutability": "view",
      "type": "function"
    },
    {
      "inputs": [
        {
          "internalType": "uint8",
          "name": "_pid",
          "type": "uint8"
        },
        {
          "internalType": "address",
          "name": "_user",
          "type": "address"
        }
      ],
      "name": "getEarnedTokenInfo",
      "outputs": [
        {
          "internalType": "uint256[]",
          "name": "",
          "type": "uint256[]"
        },
        {
          "internalType": "uint256[]",
          "name": "",
          "type": "uint256[]"
        }
      ],
      "stateMutability": "view",
      "type": "function"
    },
    {
      "inputs": [
        {
          "internalType": "uint256",
          "name": "_from",
          "type": "uint256"
        },
        {
          "internalType": "uint256",
          "name": "_to",
          "type": "uint256"
        }
      ],
      "name": "getMultiplier",
      "outputs": [
        {
          "internalType": "uint256",
          "name": "",
          "type": "uint256"
        }
      ],
      "stateMutability": "pure",
      "type": "function"
    },
    {
      "inputs": [
        {
          "internalType": "uint8",
          "name": "_pid",
          "type": "uint8"
        },
        {
          "internalType": "address",
          "name": "_user",
          "type": "address"
        }
      ],
      "name": "getTaxInfo",
      "outputs": [
        {
          "internalType": "uint256[]",
          "name": "",
          "type": "uint256[]"
        }
      ],
      "stateMutability": "view",
      "type": "function"
    },
    {
      "inputs": [],
      "name": "getTotalDiamondReward",
      "outputs": [
        {
          "internalType": "uint256",
          "name": "",
          "type": "uint256"
        }
      ],
      "stateMutability": "view",
      "type": "function"
    },
    {
      "inputs": [],
      "name": "getTotalDiamondRewardFromBlock",
      "outputs": [
        {
          "internalType": "uint256",
          "name": "",
          "type": "uint256"
        }
      ],
      "stateMutability": "view",
      "type": "function"
    },
    {
      "inputs": [
        {
          "internalType": "uint8",
          "name": "_pid",
          "type": "uint8"
        }
      ],
      "name": "harvest",
      "outputs": [],
      "stateMutability": "nonpayable",
      "type": "function"
    },
    {
      "inputs": [
        {
          "internalType": "uint8",
          "name": "_pid",
          "type": "uint8"
        },
        {
          "internalType": "int256",
          "name": "_depositIndex",
          "type": "int256"
        }
      ],
      "name": "harvestForDeposit",
      "outputs": [],
      "stateMutability": "nonpayable",
      "type": "function"
    },
    {
      "inputs": [],
      "name": "lockUpTaxRate",
      "outputs": [
        {
          "internalType": "uint256",
          "name": "",
          "type": "uint256"
        }
      ],
      "stateMutability": "view",
      "type": "function"
    },
    {
      "inputs": [],
      "name": "massUpdatePools",
      "outputs": [],
      "stateMutability": "nonpayable",
      "type": "function"
    },
    {
      "inputs": [],
      "name": "nextAddDiamond",
      "outputs": [
        {
          "internalType": "uint256",
          "name": "",
          "type": "uint256"
        }
      ],
      "stateMutability": "view",
      "type": "function"
    },
    {
      "inputs": [],
      "name": "owner",
      "outputs": [
        {
          "internalType": "address",
          "name": "",
          "type": "address"
        }
      ],
      "stateMutability": "view",
      "type": "function"
    },
    {
      "inputs": [
        {
          "internalType": "uint8",
          "name": "_pid",
          "type": "uint8"
        },
        {
          "internalType": "int256",
          "name": "_depositIndex",
          "type": "int256"
        }
      ],
      "name": "payOrLockupPendingDiamond",
      "outputs": [],
      "stateMutability": "nonpayable",
      "type": "function"
    },
    {
      "inputs": [
        {
          "internalType": "uint8",
          "name": "_pid",
          "type": "uint8"
        },
        {
          "internalType": "address",
          "name": "_user",
          "type": "address"
        },
        {
          "internalType": "int256",
          "name": "_depositIndex",
          "type": "int256"
        }
      ],
      "name": "pendingDiamondForDeposit",
      "outputs": [
        {
          "internalType": "uint256",
          "name": "totalPending",
          "type": "uint256"
        },
        {
          "internalType": "uint256",
          "name": "claimablePending",
          "type": "uint256"
        }
      ],
      "stateMutability": "view",
      "type": "function"
    },
    {
      "inputs": [
        {
          "internalType": "uint256",
          "name": "",
          "type": "uint256"
        }
      ],
      "name": "poolInfo",
      "outputs": [
        {
          "internalType": "contract IERC20",
          "name": "lpToken",
          "type": "address"
        },
        {
          "internalType": "uint256",
          "name": "allocPoint",
          "type": "uint256"
        },
        {
          "internalType": "uint256",
          "name": "lastRewardBlock",
          "type": "uint256"
        },
        {
          "internalType": "uint256",
          "name": "accDiamondPerShare",
          "type": "uint256"
        },
        {
          "internalType": "uint256",
          "name": "harvestInterval",
          "type": "uint256"
        },
        {
          "internalType": "uint256",
          "name": "totalAmountFromFeeByRewards",
          "type": "uint256"
        }
      ],
      "stateMutability": "view",
      "type": "function"
    },
    {
      "inputs": [],
      "name": "poolLength",
      "outputs": [
        {
          "internalType": "uint256",
          "name": "",
          "type": "uint256"
        }
      ],
      "stateMutability": "view",
      "type": "function"
    },
    {
      "inputs": [
        {
          "internalType": "address",
          "name": "_user",
          "type": "address"
        },
        {
          "internalType": "uint8",
          "name": "_pid",
          "type": "uint8"
        },
        {
          "internalType": "uint256",
          "name": "_amount",
          "type": "uint256"
        },
        {
          "internalType": "uint256",
          "name": "_time",
          "type": "uint256"
        }
      ],
      "name": "removeAmountFromDeposits",
      "outputs": [],
      "stateMutability": "nonpayable",
      "type": "function"
    },
    {
      "inputs": [
        {
          "internalType": "address",
          "name": "user",
          "type": "address"
        },
        {
          "internalType": "uint8",
          "name": "_pid",
          "type": "uint8"
        }
      ],
      "name": "removeEmptyDeposits",
      "outputs": [],
      "stateMutability": "nonpayable",
      "type": "function"
    },
    {
      "inputs": [],
      "name": "renounceOwnership",
      "outputs": [],
      "stateMutability": "nonpayable",
      "type": "function"
    },
    {
      "inputs": [
        {
          "internalType": "uint8",
          "name": "_pid",
          "type": "uint8"
        },
        {
          "internalType": "uint256",
          "name": "_allocPoint",
          "type": "uint256"
        },
        {
          "internalType": "uint16",
          "name": "_depositFeeBP",
          "type": "uint16"
        },
        {
          "internalType": "bool",
          "name": "_withUpdate",
          "type": "bool"
        }
      ],
      "name": "set",
      "outputs": [],
      "stateMutability": "nonpayable",
      "type": "function"
    },
    {
      "inputs": [
        {
          "internalType": "uint8",
          "name": "_pid",
          "type": "uint8"
        },
        {
          "internalType": "bool",
          "name": "_bEnable",
          "type": "bool"
        }
      ],
      "name": "setEnableStaking",
      "outputs": [],
      "stateMutability": "nonpayable",
      "type": "function"
    },
    {
      "inputs": [
        {
          "internalType": "uint256",
          "name": "_limit",
          "type": "uint256"
        }
      ],
      "name": "setLockUpTaxRate",
      "outputs": [],
      "stateMutability": "nonpayable",
      "type": "function"
    },
    {
      "inputs": [],
      "name": "totalAllocPoint",
      "outputs": [
        {
          "internalType": "uint256",
          "name": "",
          "type": "uint256"
        }
      ],
      "stateMutability": "view",
      "type": "function"
    },
    {
      "inputs": [],
      "name": "totalDiamondRewards",
      "outputs": [
        {
          "internalType": "uint256",
          "name": "",
          "type": "uint256"
        }
      ],
      "stateMutability": "view",
      "type": "function"
    },
    {
      "inputs": [
        {
          "internalType": "address",
          "name": "newOwner",
          "type": "address"
        }
      ],
      "name": "transferOwnership",
      "outputs": [],
      "stateMutability": "nonpayable",
      "type": "function"
    },
    {
      "inputs": [
        {
          "internalType": "uint8",
          "name": "_pid",
          "type": "uint8"
        },
        {
          "internalType": "address",
          "name": "_user",
          "type": "address"
        },
        {
          "internalType": "int256",
          "name": "_depositIndex",
          "type": "int256"
        }
      ],
      "name": "updateDepositInfo",
      "outputs": [],
      "stateMutability": "nonpayable",
      "type": "function"
    },
    {
      "inputs": [
        {
          "internalType": "uint8",
          "name": "_pid",
          "type": "uint8"
        }
      ],
      "name": "updatePool",
      "outputs": [],
      "stateMutability": "nonpayable",
      "type": "function"
    },
    {
      "inputs": [
        {
          "internalType": "uint256",
          "name": "",
          "type": "uint256"
        },
        {
          "internalType": "address",
          "name": "",
          "type": "address"
        }
      ],
      "name": "userInfo",
      "outputs": [
        {
          "internalType": "uint256",
          "name": "amount",
          "type": "uint256"
        },
        {
          "internalType": "uint256",
          "name": "nextHarvestUntil",
          "type": "uint256"
        },
        {
          "internalType": "uint256",
          "name": "totalEarnedDiamond",
          "type": "uint256"
        },
        {
          "internalType": "uint256",
          "name": "taxAmount",
          "type": "uint256"
        }
      ],
      "stateMutability": "view",
      "type": "function"
    },
    {
      "inputs": [
        {
          "internalType": "uint8",
          "name": "_pid",
          "type": "uint8"
        },
        {
          "internalType": "uint256",
          "name": "_amount",
          "type": "uint256"
        }
      ],
      "name": "withdraw",
      "outputs": [],
      "stateMutability": "nonpayable",
      "type": "function"
    },
    {
      "stateMutability": "payable",
      "type": "receive"
    }
  ],
  "bytecode": "0x60806040526107d06009556000600c5534801561001b57600080fd5b50604051616644380380616644833981810160405281019061003d91906101d6565b61005961004e6100a760201b60201c565b6100af60201b60201c565b6001808190555080600560006101000a81548173ffffffffffffffffffffffffffffffffffffffff021916908373ffffffffffffffffffffffffffffffffffffffff16021790555050610203565b600033905090565b60008060009054906101000a900473ffffffffffffffffffffffffffffffffffffffff169050816000806101000a81548173ffffffffffffffffffffffffffffffffffffffff021916908373ffffffffffffffffffffffffffffffffffffffff1602179055508173ffffffffffffffffffffffffffffffffffffffff168173ffffffffffffffffffffffffffffffffffffffff167f8be0079c531659141344cd1fd0a4f28419497f9722a3daafe3b4186f6b6457e060405160405180910390a35050565b600080fd5b600073ffffffffffffffffffffffffffffffffffffffff82169050919050565b60006101a382610178565b9050919050565b6101b381610198565b81146101be57600080fd5b50565b6000815190506101d0816101aa565b92915050565b6000602082840312156101ec576101eb610173565b5b60006101fa848285016101c1565b91505092915050565b616432806102126000396000f3fe6080604052600436106102815760003560e01c806384e82a331161014f578063d1d0dc1c116100c1578063f2fde38b1161007a578063f2fde38b14610a29578063f4d4c9d714610a52578063fc41aa0914610a7b578063fe7ce59f14610aa4578063fe9d210314610acd578063ffaf98a014610b0b57610288565b8063d1d0dc1c14610900578063d57d4ad51461092b578063da77297114610956578063eff229721461097f578063f0b7db4e146109bc578063f1b8dcad146109e757610288565b80639548cc17116101135780639548cc17146107dc5780639734c7d3146108055780639fdf32941461082e578063a0e5f1801461086b578063c2cb581414610896578063c65b796a146108c157610288565b806384e82a33146106e05780638da5cb5b146107095780638dbb1e3a14610734578063918787601461077157806393f1a40b1461079c57610288565b806333299feb116101f35780636695a8c6116101ac5780636695a8c6146105e45780636b613b0d1461060d5780636c60756e146106365780636f77d6ab14610661578063715018a61461069e5780637c1d10a5146106b557610288565b806333299feb146104c15780633b913eba146104fe5780633c1d309f146105275780633f489914146105655780635ac8bd861461058e578063630b5ba1146105cd57610288565b80630fcd8955116102455780630fcd895514610386578063102855fc146103c357806315146d13146104025780631526fe271461042b578063155622a41461046d57806317caf6f11461049657610288565b8063081e3eda1461028d57806308fa95d4146102b85780630d15e044146102e15780630d2859ba1461030c5780630e36a2541461034957610288565b3661028857005b600080fd5b34801561029957600080fd5b506102a2610b34565b6040516102af9190614be9565b60405180910390f35b3480156102c457600080fd5b506102df60048036038101906102da9190614c42565b610b41565b005b3480156102ed57600080fd5b506102f6610d64565b6040516103039190614be9565b60405180910390f35b34801561031857600080fd5b50610333600480360381019061032e9190614cf9565b610d6b565b6040516103409190614be9565b60405180910390f35b34801561035557600080fd5b50610370600480360381019061036b9190614d4c565b610eb1565b60405161037d9190614e4a565b60405180910390f35b34801561039257600080fd5b506103ad60048036038101906103a89190614d4c565b611039565b6040516103ba9190614f96565b60405180910390f35b3480156103cf57600080fd5b506103ea60048036038101906103e59190614fb8565b611128565b6040516103f99392919061501f565b60405180910390f35b34801561040e57600080fd5b5061042960048036038101906104249190614c42565b61145d565b005b34801561043757600080fd5b50610452600480360381019061044d9190615056565b611554565b604051610464969594939291906150e2565b60405180910390f35b34801561047957600080fd5b50610494600480360381019061048f9190614c42565b6115c0565b005b3480156104a257600080fd5b506104ab6117c5565b6040516104b89190614be9565b60405180910390f35b3480156104cd57600080fd5b506104e860048036038101906104e39190614c42565b6117cb565b6040516104f59190614be9565b60405180910390f35b34801561050a57600080fd5b5061052560048036038101906105209190615179565b611a08565b005b34801561053357600080fd5b5061054e60048036038101906105499190615179565b611d3a565b60405161055c9291906151cc565b60405180910390f35b34801561057157600080fd5b5061058c600480360381019061058791906151f5565b611f21565b005b34801561059a57600080fd5b506105b560048036038101906105b09190615056565b612220565b6040516105c49392919061501f565b60405180910390f35b3480156105d957600080fd5b506105e261225a565b005b3480156105f057600080fd5b5061060b60048036038101906106069190615235565b612290565b005b34801561061957600080fd5b50610634600480360381019061062f9190615275565b61246a565b005b34801561064257600080fd5b5061064b6127fe565b6040516106589190614be9565b60405180910390f35b34801561066d57600080fd5b5061068860048036038101906106839190614c42565b612804565b60405161069591906152f7565b60405180910390f35b3480156106aa57600080fd5b506106b3612824565b005b3480156106c157600080fd5b506106ca6128ac565b6040516106d79190614be9565b60405180910390f35b3480156106ec57600080fd5b50610707600480360381019061070291906153b6565b6128b6565b005b34801561071557600080fd5b5061071e612a9d565b60405161072b919061542c565b60405180910390f35b34801561074057600080fd5b5061075b60048036038101906107569190615447565b612ac6565b6040516107689190614be9565b60405180910390f35b34801561077d57600080fd5b50610786612ae3565b6040516107939190614be9565b60405180910390f35b3480156107a857600080fd5b506107c360048036038101906107be9190615487565b612c2c565b6040516107d394939291906154c7565b60405180910390f35b3480156107e857600080fd5b5061080360048036038101906107fe919061550c565b612c69565b005b34801561081157600080fd5b5061082c6004803603810190610827919061554c565b61301e565b005b34801561083a57600080fd5b506108556004803603810190610850919061550c565b6130cf565b6040516108629190614be9565b60405180910390f35b34801561087757600080fd5b50610880613234565b60405161088d9190614be9565b60405180910390f35b3480156108a257600080fd5b506108ab61323a565b6040516108b89190614be9565b60405180910390f35b3480156108cd57600080fd5b506108e860048036038101906108e39190614cf9565b613240565b6040516108f79392919061501f565b60405180910390f35b34801561090c57600080fd5b50610915613695565b6040516109229190614be9565b60405180910390f35b34801561093757600080fd5b5061094061369b565b60405161094d9190614be9565b60405180910390f35b34801561096257600080fd5b5061097d6004803603810190610978919061558c565b6136a0565b005b34801561098b57600080fd5b506109a660048036038101906109a19190614d4c565b61382a565b6040516109b391906152f7565b60405180910390f35b3480156109c857600080fd5b506109d1613893565b6040516109de919061542c565b60405180910390f35b3480156109f357600080fd5b50610a0e6004803603810190610a0991906155f3565b6138b9565b604051610a2096959493929190615646565b60405180910390f35b348015610a3557600080fd5b50610a506004803603810190610a4b91906156a7565b61391f565b005b348015610a5e57600080fd5b50610a796004803603810190610a7491906151f5565b613a16565b005b348015610a8757600080fd5b50610aa26004803603810190610a9d9190615447565b613d9d565b005b348015610ab057600080fd5b50610acb6004803603810190610ac69190615235565b614061565b005b348015610ad957600080fd5b50610af46004803603810190610aef9190614d4c565b614139565b604051610b029291906156d4565b60405180910390f35b348015610b1757600080fd5b50610b326004803603810190610b2d9190615056565b61433f565b005b6000600a80549050905090565b60011515600d60008360ff1660ff16815260200190815260200160002060009054906101000a900460ff16151514610bae576040517f08c379a0000000000000000000000000000000000000000000000000000000008152600401610ba590615768565b60405180910390fd5b6000600a8260ff1681548110610bc757610bc6615788565b5b9060005260206000209060060201905080600201544311610be85750610d61565b60008160000160009054906101000a900473ffffffffffffffffffffffffffffffffffffffff1673ffffffffffffffffffffffffffffffffffffffff166370a08231306040518263ffffffff1660e01b8152600401610c47919061542c565b602060405180830381865afa158015610c64573d6000803e3d6000fd5b505050506040513d601f19601f82011682018060405250810190610c8891906157cc565b90506000811480610c9d575060008260010154145b15610cb2574382600201819055505050610d61565b6000610ce7600c54610cd98560010154610ccb886117cb565b61440a90919063ffffffff16565b61448490919063ffffffff16565b9050610d008360050154826144dc90919063ffffffff16565b905060008360050181905550610d4c610d3983610d2b64e8d4a510008561440a90919063ffffffff16565b61448490919063ffffffff16565b84600301546144dc90919063ffffffff16565b83600301819055504383600201819055505050505b50565b6201518081565b600080600360008573ffffffffffffffffffffffffffffffffffffffff1673ffffffffffffffffffffffffffffffffffffffff16815260200190815260200160002060008660ff1681526020019081526020016000208381548110610dd357610dd2615788565b5b906000526020600020906006020190508060030154421015610dfa57600954915050610eaa565b6000610e1382600301544261453a90919063ffffffff16565b90506000610e2d620151808361448490919063ffffffff16565b9050610e566064610e486001846144dc90919063ffffffff16565b61440a90919063ffffffff16565b6009541115610ea157610e9a610e896064610e7b6001856144dc90919063ffffffff16565b61440a90919063ffffffff16565b60095461453a90919063ffffffff16565b9350610ea6565b600093505b5050505b9392505050565b60606000600360008473ffffffffffffffffffffffffffffffffffffffff1673ffffffffffffffffffffffffffffffffffffffff16815260200190815260200160002060008560ff168152602001908152602001600020805480602002602001604051908101604052809291908181526020016000905b82821015610f9657838290600052602060002090600602016040518060c0016040529081600082015481526020016001820154815260200160028201548152602001600382015481526020016004820154815260200160058201548152505081526020019060010190610f28565b5050505090506000815167ffffffffffffffff811115610fb957610fb86157f9565b5b604051908082528060200260200182016040528015610fe75781602001602082028036833780820191505090505b50905060005b825181101561102d57611001868683610d6b565b82828151811061101457611013615788565b5b6020026020010181815250508080600101915050610fed565b50809250505092915050565b6060600360008373ffffffffffffffffffffffffffffffffffffffff1673ffffffffffffffffffffffffffffffffffffffff16815260200190815260200160002060008460ff168152602001908152602001600020805480602002602001604051908101604052809291908181526020016000905b8282101561111c57838290600052602060002090600602016040518060c00160405290816000820154815260200160018201548152602001600282015481526020016003820154815260200160048201548152602001600582015481525050815260200190600101906110ae565b50505050905092915050565b600080600080600080600a8a60ff168154811061114857611147615788565b5b906000526020600020906006020190506000600b60008c60ff16815260200190815260200160002060008b73ffffffffffffffffffffffffffffffffffffffff1673ffffffffffffffffffffffffffffffffffffffff16815260200190815260200160002090506000600360008c73ffffffffffffffffffffffffffffffffffffffff1673ffffffffffffffffffffffffffffffffffffffff16815260200190815260200160002060008d60ff168152602001908152602001600020898154811061121657611215615788565b5b90600052602060002090600602016040518060c00160405290816000820154815260200160018201548152602001600282015481526020016003820154815260200160048201548152602001600582015481525050905061134a61133b8460000160009054906101000a900473ffffffffffffffffffffffffffffffffffffffff1673ffffffffffffffffffffffffffffffffffffffff166370a08231306040518263ffffffff1660e01b81526004016112d0919061542c565b602060405180830381865afa1580156112ed573d6000803e3d6000fd5b505050506040513d601f19601f8201168201806040525081019061131191906157cc565b61132d64e8d4a51000866003015461440a90919063ffffffff16565b61448490919063ffffffff16565b8b61453a90919063ffffffff16565b995061137e64e8d4a510006113708360800151846020015161440a90919063ffffffff16565b61448490919063ffffffff16565b93506113ae64e8d4a510006113a08c846020015161440a90919063ffffffff16565b61448490919063ffffffff16565b9750878411156113cd5760008060009750975097505050505050611453565b6113e0848961453a90919063ffffffff16565b9750428160600151111561140257876000809750975097505050505050611453565b61140d8c8c8b610d6b565b9450611436612710611428878b61440a90919063ffffffff16565b61448490919063ffffffff16565b955061144b868961453a90919063ffffffff16565b965050505050505b9450945094915050565b6002600154036114a2576040517f08c379a000000000000000000000000000000000000000000000000000000000815260040161149990615874565b60405180910390fd5b600260018190555060011515600d60008360ff1660ff16815260200190815260200160002060009054906101000a900460ff16151514611517576040517f08c379a000000000000000000000000000000000000000000000000000000000815260040161150e90615768565b60405180910390fd5b61152081610b41565b61154a817fffffffffffffffffffffffffffffffffffffffffffffffffffffffffffffffff612290565b6001808190555050565b600a818154811061156457600080fd5b90600052602060002090600602016000915090508060000160009054906101000a900473ffffffffffffffffffffffffffffffffffffffff16908060010154908060020154908060030154908060040154908060050154905086565b600260015403611605576040517f08c379a00000000000000000000000000000000000000000000000000000000081526004016115fc90615874565b60405180910390fd5b600260018190555060011515600d60008360ff1660ff16815260200190815260200160002060009054906101000a900460ff1615151461167a576040517f08c379a0000000000000000000000000000000000000000000000000000000008152600401611671906158e0565b60405180910390fd5b6000600a8260ff168154811061169357611692615788565b5b906000526020600020906006020190506000600b60008460ff16815260200190815260200160002060003373ffffffffffffffffffffffffffffffffffffffff1673ffffffffffffffffffffffffffffffffffffffff1681526020019081526020016000209050600081600001549050600082600001819055506000826001018190555061176633828560000160009054906101000a900473ffffffffffffffffffffffffffffffffffffffff1673ffffffffffffffffffffffffffffffffffffffff166145939092919063ffffffff16565b8360ff163373ffffffffffffffffffffffffffffffffffffffff167fbb757047c2b5f3974fe26b7c10f732e7bce710b0952a71082702781e62ae0595836040516117b09190614be9565b60405180910390a35050506001808190555050565b600c5481565b600080600a8360ff16815481106117e5576117e4615788565b5b9060005260206000209060060201905060006004805490509050600080600080600080600090505b868110156119f8576004818154811061182957611828615788565b5b90600052602060002090600302016000015495506004818154811061185157611850615788565b5b90600052602060002090600302016001015494506118af61187b878761453a90919063ffffffff16565b6004838154811061188f5761188e615788565b5b90600052602060002090600302016002015461448490919063ffffffff16565b935087600201548511156119eb578760020154861080156118cf57504385105b15611904576118fd846118ef8a600201548861453a90919063ffffffff16565b61440a90919063ffffffff16565b92506119d5565b8760020154861080156119175750438510155b1561194c57611945846119378a600201544361453a90919063ffffffff16565b61440a90919063ffffffff16565b92506119d4565b876002015486101580156119605750438511155b15611992576004818154811061197957611978615788565b5b90600052602060002090600302016002015492506119d3565b876002015486101580156119a557504385115b156119d2576119cf846119c1884361453a90919063ffffffff16565b61440a90919063ffffffff16565b92505b5b5b5b6119e883836144dc90919063ffffffff16565b91505b808060010191505061180d565b5080975050505050505050919050565b6000600a8460ff1681548110611a2157611a20615788565b5b9060005260206000209060060201905060008212611b89576000600360008573ffffffffffffffffffffffffffffffffffffffff1673ffffffffffffffffffffffffffffffffffffffff16815260200190815260200160002060008660ff1681526020019081526020016000208381548110611aa057611a9f615788565b5b90600052602060002090600602016040518060c0016040529081600082015481526020016001820154815260200160028201548152602001600382015481526020016004820154815260200160058201548152505090504281606001511015611b83578160030154600360008673ffffffffffffffffffffffffffffffffffffffff1673ffffffffffffffffffffffffffffffffffffffff16815260200190815260200160002060008760ff1681526020019081526020016000208481548110611b6d57611b6c615788565b5b9060005260206000209060060201600401819055505b50611d34565b6000600360008573ffffffffffffffffffffffffffffffffffffffff1673ffffffffffffffffffffffffffffffffffffffff16815260200190815260200160002060008660ff168152602001908152602001600020805480602002602001604051908101604052809291908181526020016000905b82821015611c6c57838290600052602060002090600602016040518060c0016040529081600082015481526020016001820154815260200160028201548152602001600382015481526020016004820154815260200160058201548152505081526020019060010190611bfe565b50505050905060005b8151811015611d315742828281518110611c9257611c91615788565b5b6020026020010151606001511015611d24578260030154600360008773ffffffffffffffffffffffffffffffffffffffff1673ffffffffffffffffffffffffffffffffffffffff16815260200190815260200160002060008860ff1681526020019081526020016000208281548110611d0e57611d0d615788565b5b9060005260206000209060060201600401819055505b8080600101915050611c75565b50505b50505050565b6000806000600a8660ff1681548110611d5657611d55615788565b5b9060005260206000209060060201905060008160000160009054906101000a900473ffffffffffffffffffffffffffffffffffffffff1673ffffffffffffffffffffffffffffffffffffffff166370a08231306040518263ffffffff1660e01b8152600401611dc5919061542c565b602060405180830381865afa158015611de2573d6000803e3d6000fd5b505050506040513d601f19601f82011682018060405250810190611e0691906157cc565b905060008103611e1e57600080935093505050611f19565b600082600301549050826002015443118015611e3b575060008214155b15611ed0576000611e75600c54611e678660010154611e598d6117cb565b61440a90919063ffffffff16565b61448490919063ffffffff16565b9050611e8e8460050154826144dc90919063ffffffff16565b9050611ecc611ebd84611eaf64e8d4a510008561440a90919063ffffffff16565b61448490919063ffffffff16565b836144dc90919063ffffffff16565b9150505b60008612611ef957600080611ee78a8a858b611128565b50915091508196508095505050611f15565b600080611f078a8a85613240565b509150915081965080955050505b5050505b935093915050565b600260015403611f66576040517f08c379a0000000000000000000000000000000000000000000000000000000008152600401611f5d90615874565b60405180910390fd5b600260018190555060011515600d60008460ff1660ff16815260200190815260200160002060009054906101000a900460ff16151514611fdb576040517f08c379a0000000000000000000000000000000000000000000000000000000008152600401611fd2906158e0565b60405180910390fd5b6000600a8360ff1681548110611ff457611ff3615788565b5b906000526020600020906006020190506000600b60008560ff16815260200190815260200160002060003373ffffffffffffffffffffffffffffffffffffffff1673ffffffffffffffffffffffffffffffffffffffff168152602001908152602001600020905082816000015410156120a2576040517f08c379a00000000000000000000000000000000000000000000000000000000081526004016120999061594c565b60405180910390fd5b60006120ae33866130cf565b9050600081116120f3576040517f08c379a00000000000000000000000000000000000000000000000000000000081526004016120ea906159b8565b60405180910390fd5b838110156120ff578093505b61210885610b41565b612132857fffffffffffffffffffffffffffffffffffffffffffffffffffffffffffffffff612290565b60008411156121aa5761215284836000015461453a90919063ffffffff16565b82600001819055506121a933858560000160009054906101000a900473ffffffffffffffffffffffffffffffffffffffff1673ffffffffffffffffffffffffffffffffffffffff166145939092919063ffffffff16565b5b6121b63386864261246a565b6121c03386612c69565b8460ff163373ffffffffffffffffffffffffffffffffffffffff167ff279e6a1f5e320cca91135676d9cb6e44ca8a08c0b88342bcdb1144f6511b5688660405161220a9190614be9565b60405180910390a3505050600180819055505050565b6004818154811061223057600080fd5b90600052602060002090600302016000915090508060000154908060010154908060020154905083565b6000600a80549050905060005b818160ff16101561228c5761227b81610b41565b8061228590615a07565b9050612267565b5050565b60011515600d60008460ff1660ff16815260200190815260200160002060009054906101000a900460ff161515146122fd576040517f08c379a00000000000000000000000000000000000000000000000000000000081526004016122f4906158e0565b60405180910390fd5b6000600a8360ff168154811061231657612315615788565b5b906000526020600020906006020190506000600b60008560ff16815260200190815260200160002060003373ffffffffffffffffffffffffffffffffffffffff1673ffffffffffffffffffffffffffffffffffffffff1681526020019081526020016000209050600080600085126123ad5760008061239b883388600301548a611128565b925092505081935080925050506123cd565b6000806123bf88338860030154613240565b925092505081935080925050505b6123d7863361382a565b15612462576000821115612461576123fc8185600501546144dc90919063ffffffff16565b846005018190555061241b8460040154426144dc90919063ffffffff16565b836001018190555061242d3383614619565b6124448284600201546144dc90919063ffffffff16565b8360020181905550808360030181905550612460863387611a08565b5b5b505050505050565b6000600360008673ffffffffffffffffffffffffffffffffffffffff1673ffffffffffffffffffffffffffffffffffffffff16815260200190815260200160002060008560ff16815260200190815260200160002080549050905060005b818110156127f65782600360008873ffffffffffffffffffffffffffffffffffffffff1673ffffffffffffffffffffffffffffffffffffffff16815260200190815260200160002060008760ff168152602001908152602001600020828154811061253657612535615788565b5b90600052602060002090600602016003015410156127e05783600360008873ffffffffffffffffffffffffffffffffffffffff1673ffffffffffffffffffffffffffffffffffffffff16815260200190815260200160002060008760ff16815260200190815260200160002082815481106125b4576125b3615788565b5b906000526020600020906006020160010154116126d757612654600360008873ffffffffffffffffffffffffffffffffffffffff1673ffffffffffffffffffffffffffffffffffffffff16815260200190815260200160002060008760ff168152602001908152602001600020828154811061263357612632615788565b5b9060005260206000209060060201600101548561453a90919063ffffffff16565b93506000600360008873ffffffffffffffffffffffffffffffffffffffff1673ffffffffffffffffffffffffffffffffffffffff16815260200190815260200160002060008760ff16815260200190815260200160002082815481106126bd576126bc615788565b5b9060005260206000209060060201600101819055506127df565b61276084600360008973ffffffffffffffffffffffffffffffffffffffff1673ffffffffffffffffffffffffffffffffffffffff16815260200190815260200160002060008860ff16815260200190815260200160002083815481106127405761273f615788565b5b90600052602060002090600602016001015461453a90919063ffffffff16565b600360008873ffffffffffffffffffffffffffffffffffffffff1673ffffffffffffffffffffffffffffffffffffffff16815260200190815260200160002060008760ff16815260200190815260200160002082815481106127c5576127c4615788565b5b906000526020600020906006020160010181905550600093505b5b60008403156127f65780806001019150506124c8565b505050505050565b60065481565b600d6020528060005260406000206000915054906101000a900460ff1681565b61282c61480e565b73ffffffffffffffffffffffffffffffffffffffff1661284a612a9d565b73ffffffffffffffffffffffffffffffffffffffff16146128a0576040517f08c379a000000000000000000000000000000000000000000000000000000000815260040161289790615a7c565b60405180910390fd5b6128aa6000614816565b565b6000600754905090565b6128be61480e565b73ffffffffffffffffffffffffffffffffffffffff166128dc612a9d565b73ffffffffffffffffffffffffffffffffffffffff1614612932576040517f08c379a000000000000000000000000000000000000000000000000000000000815260040161292990615a7c565b60405180910390fd5b6127108261ffff16111561297b576040517f08c379a000000000000000000000000000000000000000000000000000000000815260040161297290615b0e565b60405180910390fd5b801561298a5761298961225a565b5b60004390506129a485600c546144dc90919063ffffffff16565b600c81905550600a6040518060c001604052808673ffffffffffffffffffffffffffffffffffffffff16815260200187815260200183815260200160008152602001603c81526020016000815250908060018154018082558091505060019003906000526020600020906006020160009091909190915060008201518160000160006101000a81548173ffffffffffffffffffffffffffffffffffffffff021916908373ffffffffffffffffffffffffffffffffffffffff1602179055506020820151816001015560408201518160020155606082015181600301556080820151816004015560a0820151816005015550505050505050565b60008060009054906101000a900473ffffffffffffffffffffffffffffffffffffffff16905090565b6000612adb838361453a90919063ffffffff16565b905092915050565b6000806004805490509050600080600080600080600090505b86811015612c1f5760048181548110612b1857612b17615788565b5b906000526020600020906003020160000154955060048181548110612b4057612b3f615788565b5b9060005260206000209060030201600101549450612b9e612b6a878761453a90919063ffffffff16565b60048381548110612b7e57612b7d615788565b5b90600052602060002090600302016002015461448490919063ffffffff16565b935043851015612bd55760048181548110612bbc57612bbb615788565b5b9060005260206000209060030201600201549250612bfd565b612bfa84612bec884361453a90919063ffffffff16565b61440a90919063ffffffff16565b92505b612c1083836144dc90919063ffffffff16565b91508080600101915050612afc565b5080965050505050505090565b600b602052816000526040600020602052806000526040600020600091509150508060000154908060010154908060020154908060030154905084565b60005b600360008473ffffffffffffffffffffffffffffffffffffffff1673ffffffffffffffffffffffffffffffffffffffff16815260200190815260200160002060008360ff16815260200190815260200160002080549050811015613019575b6000600360008573ffffffffffffffffffffffffffffffffffffffff1673ffffffffffffffffffffffffffffffffffffffff16815260200190815260200160002060008460ff16815260200190815260200160002080549050118015612da757506000600360008573ffffffffffffffffffffffffffffffffffffffff1673ffffffffffffffffffffffffffffffffffffffff16815260200190815260200160002060008460ff1681526020019081526020016000208281548110612d9357612d92615788565b5b906000526020600020906006020160010154145b1561300c5760008190505b6001600360008673ffffffffffffffffffffffffffffffffffffffff1673ffffffffffffffffffffffffffffffffffffffff16815260200190815260200160002060008560ff16815260200190815260200160002080549050612e159190615b2e565b811015612f5a57600360008573ffffffffffffffffffffffffffffffffffffffff1673ffffffffffffffffffffffffffffffffffffffff16815260200190815260200160002060008460ff168152602001908152602001600020600182612e7c9190615b62565b81548110612e8d57612e8c615788565b5b9060005260206000209060060201600360008673ffffffffffffffffffffffffffffffffffffffff1673ffffffffffffffffffffffffffffffffffffffff16815260200190815260200160002060008560ff1681526020019081526020016000208281548110612f0057612eff615788565b5b90600052602060002090600602016000820154816000015560018201548160010155600282015481600201556003820154816003015560048201548160040155600582015481600501559050508080600101915050612db2565b50600360008473ffffffffffffffffffffffffffffffffffffffff1673ffffffffffffffffffffffffffffffffffffffff16815260200190815260200160002060008360ff168152602001908152602001600020805480612fbe57612fbd615b96565b5b60019003818190600052602060002090600602016000808201600090556001820160009055600282016000905560038201600090556004820160009055600582016000905550509055612ccb565b8080600101915050612c6c565b505050565b61302661480e565b73ffffffffffffffffffffffffffffffffffffffff16613044612a9d565b73ffffffffffffffffffffffffffffffffffffffff161461309a576040517f08c379a000000000000000000000000000000000000000000000000000000000815260040161309190615a7c565b60405180910390fd5b80600d60008460ff1660ff16815260200190815260200160002060006101000a81548160ff0219169083151502179055505050565b600080600360008573ffffffffffffffffffffffffffffffffffffffff1673ffffffffffffffffffffffffffffffffffffffff16815260200190815260200160002060008460ff168152602001908152602001600020805480602002602001604051908101604052809291908181526020016000905b828210156131b357838290600052602060002090600602016040518060c0016040529081600082015481526020016001820154815260200160028201548152602001600382015481526020016004820154815260200160058201548152505081526020019060010190613145565b50505050905060005b815181101561322c57428282815181106131d9576131d8615788565b5b602002602001015160600151101561321f5761321c82828151811061320157613200615788565b5b602002602001015160200151846144dc90919063ffffffff16565b92505b80806001019150506131bc565b505092915050565b60075481565b60085481565b600080600080600080600080600a8b60ff168154811061326357613262615788565b5b906000526020600020906006020190506000600b60008d60ff16815260200190815260200160002060008c73ffffffffffffffffffffffffffffffffffffffff1673ffffffffffffffffffffffffffffffffffffffff16815260200190815260200160002090506000600360008d73ffffffffffffffffffffffffffffffffffffffff1673ffffffffffffffffffffffffffffffffffffffff16815260200190815260200160002060008e60ff168152602001908152602001600020805480602002602001604051908101604052809291908181526020016000905b828210156133ad57838290600052602060002090600602016040518060c001604052908160008201548152602001600182015481526020016002820154815260200160038201548152602001600482015481526020016005820154815250508152602001906001019061333f565b5050505090506134906134818460000160009054906101000a900473ffffffffffffffffffffffffffffffffffffffff1673ffffffffffffffffffffffffffffffffffffffff166370a08231306040518263ffffffff1660e01b8152600401613416919061542c565b602060405180830381865afa158015613433573d6000803e3d6000fd5b505050506040513d601f19601f8201168201806040525081019061345791906157cc565b61347364e8d4a51000866003015461440a90919063ffffffff16565b61448490919063ffffffff16565b8c61453a90919063ffffffff16565b9a5060005b81518110156136425761350464e8d4a510006134f68484815181106134bd576134bc615788565b5b6020026020010151608001518585815181106134dc576134db615788565b5b60200260200101516020015161440a90919063ffffffff16565b61448490919063ffffffff16565b955061351986866144dc90919063ffffffff16565b94504282828151811061352f5761352e615788565b5b602002602001015160600151116136355761358864e8d4a5100061357a8e8585815181106135605761355f615788565b5b60200260200101516020015161440a90919063ffffffff16565b61448490919063ffffffff16565b975061359d868961453a90919063ffffffff16565b97506135aa8e8e83610d6b565b96506135e56135d66127106135c88a8c61440a90919063ffffffff16565b61448490919063ffffffff16565b8a6144dc90919063ffffffff16565b98506136326136236136146127106136068b8d61440a90919063ffffffff16565b61448490919063ffffffff16565b8a61453a90919063ffffffff16565b8b6144dc90919063ffffffff16565b99505b8080600101915050613495565b506136838461367564e8d4a510006136678f876000015461440a90919063ffffffff16565b61448490919063ffffffff16565b61453a90919063ffffffff16565b99505050505050505093509350939050565b60095481565b603c81565b6136a861480e565b73ffffffffffffffffffffffffffffffffffffffff166136c6612a9d565b73ffffffffffffffffffffffffffffffffffffffff161461371c576040517f08c379a000000000000000000000000000000000000000000000000000000000815260040161371390615a7c565b60405180910390fd5b6127108261ffff161115613765576040517f08c379a000000000000000000000000000000000000000000000000000000000815260040161375c90615c37565b60405180910390fd5b80156137745761377361225a565b5b6137c3836137b5600a8760ff168154811061379257613791615788565b5b906000526020600020906006020160010154600c5461453a90919063ffffffff16565b6144dc90919063ffffffff16565b600c8190555082600a8560ff16815481106137e1576137e0615788565b5b906000526020600020906006020160010181905550603c600a8560ff168154811061380f5761380e615788565b5b90600052602060002090600602016004018190555050505050565b600080600b60008560ff16815260200190815260200160002060008473ffffffffffffffffffffffffffffffffffffffff1673ffffffffffffffffffffffffffffffffffffffff1681526020019081526020016000209050806001015442101591505092915050565b600560009054906101000a900473ffffffffffffffffffffffffffffffffffffffff1681565b600360205282600052604060002060205281600052604060002081815481106138e157600080fd5b906000526020600020906006020160009250925050508060000154908060010154908060020154908060030154908060040154908060050154905086565b61392761480e565b73ffffffffffffffffffffffffffffffffffffffff16613945612a9d565b73ffffffffffffffffffffffffffffffffffffffff161461399b576040517f08c379a000000000000000000000000000000000000000000000000000000000815260040161399290615a7c565b60405180910390fd5b600073ffffffffffffffffffffffffffffffffffffffff168173ffffffffffffffffffffffffffffffffffffffff1603613a0a576040517f08c379a0000000000000000000000000000000000000000000000000000000008152600401613a0190615cc9565b60405180910390fd5b613a1381614816565b50565b600260015403613a5b576040517f08c379a0000000000000000000000000000000000000000000000000000000008152600401613a5290615874565b60405180910390fd5b600260018190555060011515600d60008460ff1660ff16815260200190815260200160002060009054906101000a900460ff16151514613ad0576040517f08c379a0000000000000000000000000000000000000000000000000000000008152600401613ac790615768565b60405180910390fd5b60008111613b13576040517f08c379a0000000000000000000000000000000000000000000000000000000008152600401613b0a90615768565b60405180910390fd5b6000600a8360ff1681548110613b2c57613b2b615788565b5b906000526020600020906006020190506000600b60008560ff16815260200190815260200160002060003373ffffffffffffffffffffffffffffffffffffffff1673ffffffffffffffffffffffffffffffffffffffff1681526020019081526020016000209050613b9c84610b41565b613bed3330858560000160009054906101000a900473ffffffffffffffffffffffffffffffffffffffff1673ffffffffffffffffffffffffffffffffffffffff166148da909392919063ffffffff16565b613c048382600001546144dc90919063ffffffff16565b8160000181905550600360003373ffffffffffffffffffffffffffffffffffffffff1673ffffffffffffffffffffffffffffffffffffffff16815260200190815260200160002060008560ff1681526020019081526020016000206040518060c001604052808660ff168152602001858152602001620151808152602001613c9862015180426144dc90919063ffffffff16565b81526020018460030154815260200160008152509080600181540180825580915050600190039060005260206000209060060201600090919091909150600082015181600001556020820151816001015560408201518160020155606082015181600301556080820151816004015560a0820151816005015550506000816001015403613d3e57613d3562015180426144dc90919063ffffffff16565b81600101819055505b8360ff163373ffffffffffffffffffffffffffffffffffffffff167f90890809c654f11d6e72a28fa60149770a0d11ec6c92319d6ceb2bb0a4ea1a1585604051613d889190614be9565b60405180910390a35050600180819055505050565b613da561480e565b73ffffffffffffffffffffffffffffffffffffffff16613dc3612a9d565b73ffffffffffffffffffffffffffffffffffffffff1614613e19576040517f08c379a0000000000000000000000000000000000000000000000000000000008152600401613e1090615a7c565b60405180910390fd5b600560009054906101000a900473ffffffffffffffffffffffffffffffffffffffff1673ffffffffffffffffffffffffffffffffffffffff166370a08231336040518263ffffffff1660e01b8152600401613e74919061542c565b602060405180830381865afa158015613e91573d6000803e3d6000fd5b505050506040513d601f19601f82011682018060405250810190613eb591906157cc565b821115613ef7576040517f08c379a0000000000000000000000000000000000000000000000000000000008152600401613eee90615d5b565b60405180910390fd5b6000613f0f620151808361440a90919063ffffffff16565b9050600654421015613f56576040517f08c379a0000000000000000000000000000000000000000000000000000000008152600401613f4d90615dc7565b60405180910390fd5b613fa5333085600560009054906101000a900473ffffffffffffffffffffffffffffffffffffffff1673ffffffffffffffffffffffffffffffffffffffff166148da909392919063ffffffff16565b613fb8818461448490919063ffffffff16565b6008819055508042613fca9190615b62565b600681905550613fe5836007546144dc90919063ffffffff16565b60078190555060046040518060600160405280438152602001834361400a9190615b62565b81526020018581525090806001815401808255809150506001900390600052602060002090600302016000909190919091506000820151816000015560208201518160010155604082015181600201555050505050565b6002600154036140a6576040517f08c379a000000000000000000000000000000000000000000000000000000000815260040161409d90615874565b60405180910390fd5b600260018190555060011515600d60008460ff1660ff16815260200190815260200160002060009054906101000a900460ff1615151461411b576040517f08c379a000000000000000000000000000000000000000000000000000000000815260040161411290615768565b60405180910390fd5b61412482610b41565b61412e8282612290565b600180819055505050565b6060806000600360008573ffffffffffffffffffffffffffffffffffffffff1673ffffffffffffffffffffffffffffffffffffffff16815260200190815260200160002060008660ff168152602001908152602001600020805480602002602001604051908101604052809291908181526020016000905b8282101561421f57838290600052602060002090600602016040518060c00160405290816000820154815260200160018201548152602001600282015481526020016003820154815260200160048201548152602001600582015481525050815260200190600101906141b1565b5050505090506000815167ffffffffffffffff811115614242576142416157f9565b5b6040519080825280602002602001820160405280156142705781602001602082028036833780820191505090505b5090506000825167ffffffffffffffff8111156142905761428f6157f9565b5b6040519080825280602002602001820160405280156142be5781602001602082028036833780820191505090505b50905060005b835181101561432e576000806142db8a8a85611d3a565b91509150818584815181106142f3576142f2615788565b5b6020026020010181815250508084848151811061431357614312615788565b5b602002602001018181525050505080806001019150506142c4565b508181945094505050509250929050565b61434761480e565b73ffffffffffffffffffffffffffffffffffffffff16614365612a9d565b73ffffffffffffffffffffffffffffffffffffffff16146143bb576040517f08c379a00000000000000000000000000000000000000000000000000000000081526004016143b290615a7c565b60405180910390fd5b612710811115614400576040517f08c379a00000000000000000000000000000000000000000000000000000000081526004016143f790615e33565b60405180910390fd5b8060098190555050565b600080830361441c576000905061447e565b6000828461442a9190615e53565b90508284826144399190615ec4565b14614479576040517f08c379a000000000000000000000000000000000000000000000000000000000815260040161447090615f67565b60405180910390fd5b809150505b92915050565b60008082116144c8576040517f08c379a00000000000000000000000000000000000000000000000000000000081526004016144bf90615fd3565b60405180910390fd5b81836144d49190615ec4565b905092915050565b60008082846144eb9190615b62565b905083811015614530576040517f08c379a00000000000000000000000000000000000000000000000000000000081526004016145279061603f565b60405180910390fd5b8091505092915050565b60008282111561457f576040517f08c379a0000000000000000000000000000000000000000000000000000000008152600401614576906160ab565b60405180910390fd5b818361458b9190615b2e565b905092915050565b6146148363a9059cbb60e01b84846040516024016145b29291906160cb565b604051602081830303815290604052907bffffffffffffffffffffffffffffffffffffffffffffffffffffffff19166020820180517bffffffffffffffffffffffffffffffffffffffffffffffffffffffff8381831617835250505050614963565b505050565b6000600560009054906101000a900473ffffffffffffffffffffffffffffffffffffffff1673ffffffffffffffffffffffffffffffffffffffff166370a08231306040518263ffffffff1660e01b8152600401614676919061542c565b602060405180830381865afa158015614693573d6000803e3d6000fd5b505050506040513d601f19601f820116820180604052508101906146b791906157cc565b90508082111561476757600560009054906101000a900473ffffffffffffffffffffffffffffffffffffffff1673ffffffffffffffffffffffffffffffffffffffff1663a9059cbb84836040518363ffffffff1660e01b815260040161471e9291906160cb565b6020604051808303816000875af115801561473d573d6000803e3d6000fd5b505050506040513d601f19601f820116820180604052508101906147619190616109565b50614809565b600560009054906101000a900473ffffffffffffffffffffffffffffffffffffffff1673ffffffffffffffffffffffffffffffffffffffff1663a9059cbb84846040518363ffffffff1660e01b81526004016147c49291906160cb565b6020604051808303816000875af11580156147e3573d6000803e3d6000fd5b505050506040513d601f19601f820116820180604052508101906148079190616109565b505b505050565b600033905090565b60008060009054906101000a900473ffffffffffffffffffffffffffffffffffffffff169050816000806101000a81548173ffffffffffffffffffffffffffffffffffffffff021916908373ffffffffffffffffffffffffffffffffffffffff1602179055508173ffffffffffffffffffffffffffffffffffffffff168173ffffffffffffffffffffffffffffffffffffffff167f8be0079c531659141344cd1fd0a4f28419497f9722a3daafe3b4186f6b6457e060405160405180910390a35050565b61495d846323b872dd60e01b8585856040516024016148fb93929190616136565b604051602081830303815290604052907bffffffffffffffffffffffffffffffffffffffffffffffffffffffff19166020820180517bffffffffffffffffffffffffffffffffffffffffffffffffffffffff8381831617835250505050614963565b50505050565b60006149c5826040518060400160405280602081526020017f5361666545524332303a206c6f772d6c6576656c2063616c6c206661696c65648152508573ffffffffffffffffffffffffffffffffffffffff16614a2a9092919063ffffffff16565b9050600081511115614a2557808060200190518101906149e59190616109565b614a24576040517f08c379a0000000000000000000000000000000000000000000000000000000008152600401614a1b906161df565b60405180910390fd5b5b505050565b6060614a398484600085614a42565b90509392505050565b606082471015614a87576040517f08c379a0000000000000000000000000000000000000000000000000000000008152600401614a7e90616271565b60405180910390fd5b614a9085614b56565b614acf576040517f08c379a0000000000000000000000000000000000000000000000000000000008152600401614ac6906162dd565b60405180910390fd5b6000808673ffffffffffffffffffffffffffffffffffffffff168587604051614af8919061636e565b60006040518083038185875af1925050503d8060008114614b35576040519150601f19603f3d011682016040523d82523d6000602084013e614b3a565b606091505b5091509150614b4a828286614b69565b92505050949350505050565b600080823b905060008111915050919050565b60608315614b7957829050614bc9565b600083511115614b8c5782518084602001fd5b816040517f08c379a0000000000000000000000000000000000000000000000000000000008152600401614bc091906163da565b60405180910390fd5b9392505050565b6000819050919050565b614be381614bd0565b82525050565b6000602082019050614bfe6000830184614bda565b92915050565b600080fd5b600060ff82169050919050565b614c1f81614c09565b8114614c2a57600080fd5b50565b600081359050614c3c81614c16565b92915050565b600060208284031215614c5857614c57614c04565b5b6000614c6684828501614c2d565b91505092915050565b600073ffffffffffffffffffffffffffffffffffffffff82169050919050565b6000614c9a82614c6f565b9050919050565b614caa81614c8f565b8114614cb557600080fd5b50565b600081359050614cc781614ca1565b92915050565b614cd681614bd0565b8114614ce157600080fd5b50565b600081359050614cf381614ccd565b92915050565b600080600060608486031215614d1257614d11614c04565b5b6000614d2086828701614c2d565b9350506020614d3186828701614cb8565b9250506040614d4286828701614ce4565b9150509250925092565b60008060408385031215614d6357614d62614c04565b5b6000614d7185828601614c2d565b9250506020614d8285828601614cb8565b9150509250929050565b600081519050919050565b600082825260208201905092915050565b6000819050602082019050919050565b614dc181614bd0565b82525050565b6000614dd38383614db8565b60208301905092915050565b6000602082019050919050565b6000614df782614d8c565b614e018185614d97565b9350614e0c83614da8565b8060005b83811015614e3d578151614e248882614dc7565b9750614e2f83614ddf565b925050600181019050614e10565b5085935050505092915050565b60006020820190508181036000830152614e648184614dec565b905092915050565b600081519050919050565b600082825260208201905092915050565b6000819050602082019050919050565b60c082016000820151614eae6000850182614db8565b506020820151614ec16020850182614db8565b506040820151614ed46040850182614db8565b506060820151614ee76060850182614db8565b506080820151614efa6080850182614db8565b5060a0820151614f0d60a0850182614db8565b50505050565b6000614f1f8383614e98565b60c08301905092915050565b6000602082019050919050565b6000614f4382614e6c565b614f4d8185614e77565b9350614f5883614e88565b8060005b83811015614f89578151614f708882614f13565b9750614f7b83614f2b565b925050600181019050614f5c565b5085935050505092915050565b60006020820190508181036000830152614fb08184614f38565b905092915050565b60008060008060808587031215614fd257614fd1614c04565b5b6000614fe087828801614c2d565b9450506020614ff187828801614cb8565b935050604061500287828801614ce4565b925050606061501387828801614ce4565b91505092959194509250565b60006060820190506150346000830186614bda565b6150416020830185614bda565b61504e6040830184614bda565b949350505050565b60006020828403121561506c5761506b614c04565b5b600061507a84828501614ce4565b91505092915050565b6000819050919050565b60006150a86150a361509e84614c6f565b615083565b614c6f565b9050919050565b60006150ba8261508d565b9050919050565b60006150cc826150af565b9050919050565b6150dc816150c1565b82525050565b600060c0820190506150f760008301896150d3565b6151046020830188614bda565b6151116040830187614bda565b61511e6060830186614bda565b61512b6080830185614bda565b61513860a0830184614bda565b979650505050505050565b6000819050919050565b61515681615143565b811461516157600080fd5b50565b6000813590506151738161514d565b92915050565b60008060006060848603121561519257615191614c04565b5b60006151a086828701614c2d565b93505060206151b186828701614cb8565b92505060406151c286828701615164565b9150509250925092565b60006040820190506151e16000830185614bda565b6151ee6020830184614bda565b9392505050565b6000806040838503121561520c5761520b614c04565b5b600061521a85828601614c2d565b925050602061522b85828601614ce4565b9150509250929050565b6000806040838503121561524c5761524b614c04565b5b600061525a85828601614c2d565b925050602061526b85828601615164565b9150509250929050565b6000806000806080858703121561528f5761528e614c04565b5b600061529d87828801614cb8565b94505060206152ae87828801614c2d565b93505060406152bf87828801614ce4565b92505060606152d087828801614ce4565b91505092959194509250565b60008115159050919050565b6152f1816152dc565b82525050565b600060208201905061530c60008301846152e8565b92915050565b600061531d82614c8f565b9050919050565b61532d81615312565b811461533857600080fd5b50565b60008135905061534a81615324565b92915050565b600061ffff82169050919050565b61536781615350565b811461537257600080fd5b50565b6000813590506153848161535e565b92915050565b615393816152dc565b811461539e57600080fd5b50565b6000813590506153b08161538a565b92915050565b600080600080608085870312156153d0576153cf614c04565b5b60006153de87828801614ce4565b94505060206153ef8782880161533b565b935050604061540087828801615375565b9250506060615411878288016153a1565b91505092959194509250565b61542681614c8f565b82525050565b6000602082019050615441600083018461541d565b92915050565b6000806040838503121561545e5761545d614c04565b5b600061546c85828601614ce4565b925050602061547d85828601614ce4565b9150509250929050565b6000806040838503121561549e5761549d614c04565b5b60006154ac85828601614ce4565b92505060206154bd85828601614cb8565b9150509250929050565b60006080820190506154dc6000830187614bda565b6154e96020830186614bda565b6154f66040830185614bda565b6155036060830184614bda565b95945050505050565b6000806040838503121561552357615522614c04565b5b600061553185828601614cb8565b925050602061554285828601614c2d565b9150509250929050565b6000806040838503121561556357615562614c04565b5b600061557185828601614c2d565b9250506020615582858286016153a1565b9150509250929050565b600080600080608085870312156155a6576155a5614c04565b5b60006155b487828801614c2d565b94505060206155c587828801614ce4565b93505060406155d687828801615375565b92505060606155e7878288016153a1565b91505092959194509250565b60008060006060848603121561560c5761560b614c04565b5b600061561a86828701614cb8565b935050602061562b86828701614ce4565b925050604061563c86828701614ce4565b9150509250925092565b600060c08201905061565b6000830189614bda565b6156686020830188614bda565b6156756040830187614bda565b6156826060830186614bda565b61568f6080830185614bda565b61569c60a0830184614bda565b979650505050505050565b6000602082840312156156bd576156bc614c04565b5b60006156cb84828501614cb8565b91505092915050565b600060408201905081810360008301526156ee8185614dec565b905081810360208301526157028184614dec565b90509392505050565b600082825260208201905092915050565b7f4465706f736974653a2044495341424c45204445504f534954494e4700000000600082015250565b6000615752601c8361570b565b915061575d8261571c565b602082019050919050565b6000602082019050818103600083015261578181615745565b9050919050565b7f4e487b7100000000000000000000000000000000000000000000000000000000600052603260045260246000fd5b6000815190506157c681614ccd565b92915050565b6000602082840312156157e2576157e1614c04565b5b60006157f0848285016157b7565b91505092915050565b7f4e487b7100000000000000000000000000000000000000000000000000000000600052604160045260246000fd5b7f5265656e7472616e637947756172643a207265656e7472616e742063616c6c00600082015250565b600061585e601f8361570b565b915061586982615828565b602082019050919050565b6000602082019050818103600083015261588d81615851565b9050919050565b7f57697468647261773a2044495341424c45205749544844524157494e47000000600082015250565b60006158ca601d8361570b565b91506158d582615894565b602082019050919050565b600060208201905081810360008301526158f9816158bd565b9050919050565b7f77697468647261773a206e6f7420676f6f640000000000000000000000000000600082015250565b600061593660128361570b565b915061594182615900565b602082019050919050565b6000602082019050818103600083015261596581615929565b9050919050565b7f77697468647261773a206e6f20617661696c61626c6520616d6f756e74000000600082015250565b60006159a2601d8361570b565b91506159ad8261596c565b602082019050919050565b600060208201905081810360008301526159d181615995565b9050919050565b7f4e487b7100000000000000000000000000000000000000000000000000000000600052601160045260246000fd5b6000615a1282614c09565b915060ff8203615a2557615a246159d8565b5b600182019050919050565b7f4f776e61626c653a2063616c6c6572206973206e6f7420746865206f776e6572600082015250565b6000615a6660208361570b565b9150615a7182615a30565b602082019050919050565b60006020820190508181036000830152615a9581615a59565b9050919050565b7f6164643a20696e76616c6964206465706f73697420666565206261736973207060008201527f6f696e7473000000000000000000000000000000000000000000000000000000602082015250565b6000615af860258361570b565b9150615b0382615a9c565b604082019050919050565b60006020820190508181036000830152615b2781615aeb565b9050919050565b6000615b3982614bd0565b9150615b4483614bd0565b9250828203905081811115615b5c57615b5b6159d8565b5b92915050565b6000615b6d82614bd0565b9150615b7883614bd0565b9250828201905080821115615b9057615b8f6159d8565b5b92915050565b7f4e487b7100000000000000000000000000000000000000000000000000000000600052603160045260246000fd5b7f7365743a20696e76616c6964206465706f73697420666565206261736973207060008201527f6f696e7473000000000000000000000000000000000000000000000000000000602082015250565b6000615c2160258361570b565b9150615c2c82615bc5565b604082019050919050565b60006020820190508181036000830152615c5081615c14565b9050919050565b7f4f776e61626c653a206e6577206f776e657220697320746865207a65726f206160008201527f6464726573730000000000000000000000000000000000000000000000000000602082015250565b6000615cb360268361570b565b9150615cbe82615c57565b604082019050919050565b60006020820190508181036000830152615ce281615ca6565b9050919050565b7f4465706f736974653a20496e73756666696369656e742042616c616e6365206f60008201527f66204469616d6f6e640000000000000000000000000000000000000000000000602082015250565b6000615d4560298361570b565b9150615d5082615ce9565b604082019050919050565b60006020820190508181036000830152615d7481615d38565b9050919050565b7f546f6f206561726c7920746f20616464204469616d6f6e642e00000000000000600082015250565b6000615db160198361570b565b9150615dbc82615d7b565b602082019050919050565b60006020820190508181036000830152615de081615da4565b9050919050565b7f4c696d697420506572696f643a2063616e206e6f74206f766572203130302500600082015250565b6000615e1d601f8361570b565b9150615e2882615de7565b602082019050919050565b60006020820190508181036000830152615e4c81615e10565b9050919050565b6000615e5e82614bd0565b9150615e6983614bd0565b9250828202615e7781614bd0565b91508282048414831517615e8e57615e8d6159d8565b5b5092915050565b7f4e487b7100000000000000000000000000000000000000000000000000000000600052601260045260246000fd5b6000615ecf82614bd0565b9150615eda83614bd0565b925082615eea57615ee9615e95565b5b828204905092915050565b7f536166654d6174683a206d756c7469706c69636174696f6e206f766572666c6f60008201527f7700000000000000000000000000000000000000000000000000000000000000602082015250565b6000615f5160218361570b565b9150615f5c82615ef5565b604082019050919050565b60006020820190508181036000830152615f8081615f44565b9050919050565b7f536166654d6174683a206469766973696f6e206279207a65726f000000000000600082015250565b6000615fbd601a8361570b565b9150615fc882615f87565b602082019050919050565b60006020820190508181036000830152615fec81615fb0565b9050919050565b7f536166654d6174683a206164646974696f6e206f766572666c6f770000000000600082015250565b6000616029601b8361570b565b915061603482615ff3565b602082019050919050565b600060208201905081810360008301526160588161601c565b9050919050565b7f536166654d6174683a207375627472616374696f6e206f766572666c6f770000600082015250565b6000616095601e8361570b565b91506160a08261605f565b602082019050919050565b600060208201905081810360008301526160c481616088565b9050919050565b60006040820190506160e0600083018561541d565b6160ed6020830184614bda565b9392505050565b6000815190506161038161538a565b92915050565b60006020828403121561611f5761611e614c04565b5b600061612d848285016160f4565b91505092915050565b600060608201905061614b600083018661541d565b616158602083018561541d565b6161656040830184614bda565b949350505050565b7f5361666545524332303a204552433230206f7065726174696f6e20646964206e60008201527f6f74207375636365656400000000000000000000000000000000000000000000602082015250565b60006161c9602a8361570b565b91506161d48261616d565b604082019050919050565b600060208201905081810360008301526161f8816161bc565b9050919050565b7f416464726573733a20696e73756666696369656e742062616c616e636520666f60008201527f722063616c6c0000000000000000000000000000000000000000000000000000602082015250565b600061625b60268361570b565b9150616266826161ff565b604082019050919050565b6000602082019050818103600083015261628a8161624e565b9050919050565b7f416464726573733a2063616c6c20746f206e6f6e2d636f6e7472616374000000600082015250565b60006162c7601d8361570b565b91506162d282616291565b602082019050919050565b600060208201905081810360008301526162f6816162ba565b9050919050565b600081519050919050565b600081905092915050565b60005b83811015616331578082015181840152602081019050616316565b60008484015250505050565b6000616348826162fd565b6163528185616308565b9350616362818560208601616313565b80840191505092915050565b600061637a828461633d565b915081905092915050565b600081519050919050565b6000601f19601f8301169050919050565b60006163ac82616385565b6163b6818561570b565b93506163c6818560208601616313565b6163cf81616390565b840191505092915050565b600060208201905081810360008301526163f481846163a1565b90509291505056fea2646970667358221220d9186b860d3179977ffcc0ac0e7d302901cbd9982004194a709100f53a9c3c6f64736f6c634300081b0033",
  "linkReferences": {},
  "deployedLinkReferences": {}
}