{"contracts/new.sol":{"MasterChef":{"abi":[{"inputs":[{"internalType":"address","name":"_diamond","type":"address"}],"stateMutability":"nonpayable","type":"constructor"},{"anonymous":false,"inputs":[{"indexed":true,"internalType":"address","name":"user","type":"address"},{"indexed":true,"internalType":"uint256","name":"pid","type":"uint256"},{"indexed":false,"internalType":"uint256","name":"amount","type":"uint256"}],"name":"Deposit","type":"event"},{"anonymous":false,"inputs":[{"indexed":true,"internalType":"address","name":"user","type":"address"},{"indexed":true,"internalType":"uint256","name":"pid","type":"uint256"},{"indexed":false,"internalType":"uint256","name":"amount","type":"uint256"}],"name":"EmergencyWithdraw","type":"event"},{"anonymous":false,"inputs":[{"indexed":true,"internalType":"address","name":"previousOwner","type":"address"},{"indexed":true,"internalType":"address","name":"newOwner","type":"address"}],"name":"OwnershipTransferred","type":"event"},{"anonymous":false,"inputs":[{"indexed":true,"internalType":"address","name":"user","type":"address"},{"indexed":true,"internalType":"uint256","name":"pid","type":"uint256"},{"indexed":false,"internalType":"uint256","name":"amount","type":"uint256"}],"name":"Withdraw","type":"event"},{"inputs":[],"name":"DEFAULT_HARVEST_INTERVAL","outputs":[{"internalType":"uint256","name":"","type":"uint256"}],"stateMutability":"view","type":"function"},{"inputs":[],"name":"MAX_HARVEST_INTERVAL","outputs":[{"internalType":"uint256","name":"","type":"uint256"}],"stateMutability":"view","type":"function"},{"inputs":[{"internalType":"uint256","name":"_allocPoint","type":"uint256"},{"internalType":"contract IERC20","name":"_lpToken","type":"address"},{"internalType":"uint16","name":"_depositFeeBP","type":"uint16"},{"internalType":"bool","name":"_withUpdate","type":"bool"}],"name":"add","outputs":[],"stateMutability":"nonpayable","type":"function"},{"inputs":[{"internalType":"uint256","name":"","type":"uint256"}],"name":"addRewardInfo","outputs":[{"internalType":"uint256","name":"startBlockNumber","type":"uint256"},{"internalType":"uint256","name":"endBlockNumber","type":"uint256"},{"internalType":"uint256","name":"rewardAmount","type":"uint256"}],"stateMutability":"view","type":"function"},{"inputs":[{"internalType":"uint256","name":"_amount","type":"uint256"},{"internalType":"uint256","name":"_days","type":"uint256"}],"name":"addRewards","outputs":[],"stateMutability":"nonpayable","type":"function"},{"inputs":[{"internalType":"address","name":"_user","type":"address"},{"internalType":"uint8","name":"_pid","type":"uint8"}],"name":"availableForWithdraw","outputs":[{"internalType":"uint256","name":"totalAmount","type":"uint256"}],"stateMutability":"view","type":"function"},{"inputs":[{"internalType":"uint8","name":"_pid","type":"uint8"},{"internalType":"address","name":"_user","type":"address"},{"internalType":"uint256","name":"accPerShare","type":"uint256"},{"internalType":"uint256","name":"depositIndex","type":"uint256"}],"name":"availableIndividualRewardsForHarvest","outputs":[{"internalType":"uint256","name":"totalRewardAmount","type":"uint256"},{"internalType":"uint256","name":"rewardAmount","type":"uint256"},{"internalType":"uint256","name":"taxAmount","type":"uint256"}],"stateMutability":"view","type":"function"},{"inputs":[{"internalType":"uint8","name":"_pid","type":"uint8"},{"internalType":"address","name":"_user","type":"address"},{"internalType":"uint256","name":"accPerShare","type":"uint256"}],"name":"availableRewardsForHarvest","outputs":[{"internalType":"uint256","name":"totalRewardAmount","type":"uint256"},{"internalType":"uint256","name":"rewardAmount","type":"uint256"},{"internalType":"uint256","name":"taxAmount","type":"uint256"}],"stateMutability":"view","type":"function"},{"inputs":[{"internalType":"uint8","name":"_pid","type":"uint8"},{"internalType":"address","name":"_user","type":"address"},{"internalType":"uint256","name":"_depositIndex","type":"uint256"}],"name":"calculateRewardRate","outputs":[{"internalType":"uint256","name":"rewardRate","type":"uint256"}],"stateMutability":"view","type":"function"},{"inputs":[{"internalType":"uint8","name":"_pid","type":"uint8"},{"internalType":"address","name":"_user","type":"address"}],"name":"canHarvest","outputs":[{"internalType":"bool","name":"","type":"bool"}],"stateMutability":"view","type":"function"},{"inputs":[{"internalType":"uint8","name":"_pid","type":"uint8"},{"internalType":"uint256","name":"_amount","type":"uint256"}],"name":"deposit","outputs":[],"stateMutability":"nonpayable","type":"function"},{"inputs":[{"internalType":"address","name":"","type":"address"},{"internalType":"uint256","name":"","type":"uint256"},{"internalType":"uint256","name":"","type":"uint256"}],"name":"depositInfo","outputs":[{"internalType":"uint256","name":"pid","type":"uint256"},{"internalType":"uint256","name":"amount","type":"uint256"},{"internalType":"uint256","name":"lockupPeriod","type":"uint256"},{"internalType":"uint256","name":"nextWithdraw","type":"uint256"},{"internalType":"uint256","name":"accDiamondPerShare","type":"uint256"},{"internalType":"uint256","name":"taxAmount","type":"uint256"}],"stateMutability":"view","type":"function"},{"inputs":[],"name":"diamond","outputs":[{"internalType":"address","name":"","type":"address"}],"stateMutability":"view","type":"function"},{"inputs":[],"name":"diamondPerBlock","outputs":[{"internalType":"uint256","name":"","type":"uint256"}],"stateMutability":"view","type":"function"},{"inputs":[{"internalType":"uint8","name":"_pid","type":"uint8"}],"name":"emergencyWithdraw","outputs":[],"stateMutability":"nonpayable","type":"function"},{"inputs":[{"internalType":"uint8","name":"","type":"uint8"}],"name":"enableStaking","outputs":[{"internalType":"bool","name":"","type":"bool"}],"stateMutability":"view","type":"function"},{"inputs":[{"internalType":"uint8","name":"_pid","type":"uint8"},{"internalType":"address","name":"_user","type":"address"}],"name":"getDepositInfo","outputs":[{"components":[{"internalType":"uint256","name":"pid","type":"uint256"},{"internalType":"uint256","name":"amount","type":"uint256"},{"internalType":"uint256","name":"lockupPeriod","type":"uint256"},{"internalType":"uint256","name":"nextWithdraw","type":"uint256"},{"internalType":"uint256","name":"accDiamondPerShare","type":"uint256"},{"internalType":"uint256","name":"taxAmount","type":"uint256"}],"internalType":"struct MasterChef.DepositInfo[]","name":"","type":"tuple[]"}],"stateMutability":"view","type":"function"},{"inputs":[{"internalType":"uint8","name":"_pid","type":"uint8"}],"name":"getDiamondRewardFromBlock","outputs":[{"internalType":"uint256","name":"","type":"uint256"}],"stateMutability":"view","type":"function"},{"inputs":[{"internalType":"uint8","name":"_pid","type":"uint8"},{"internalType":"address","name":"_user","type":"address"}],"name":"getEarnedTokenInfo","outputs":[{"internalType":"uint256[]","name":"","type":"uint256[]"},{"internalType":"uint256[]","name":"","type":"uint256[]"}],"stateMutability":"view","type":"function"},{"inputs":[{"internalType":"uint256","name":"_from","type":"uint256"},{"internalType":"uint256","name":"_to","type":"uint256"}],"name":"getMultiplier","outputs":[{"internalType":"uint256","name":"","type":"uint256"}],"stateMutability":"pure","type":"function"},{"inputs":[{"internalType":"uint8","name":"_pid","type":"uint8"},{"internalType":"address","name":"_user","type":"address"}],"name":"getTaxInfo","outputs":[{"internalType":"uint256[]","name":"","type":"uint256[]"}],"stateMutability":"view","type":"function"},{"inputs":[],"name":"getTotalDiamondReward","outputs":[{"internalType":"uint256","name":"","type":"uint256"}],"stateMutability":"view","type":"function"},{"inputs":[],"name":"getTotalDiamondRewardFromBlock","outputs":[{"internalType":"uint256","name":"","type":"uint256"}],"stateMutability":"view","type":"function"},{"inputs":[{"internalType":"uint8","name":"_pid","type":"uint8"}],"name":"harvest","outputs":[],"stateMutability":"nonpayable","type":"function"},{"inputs":[{"internalType":"uint8","name":"_pid","type":"uint8"},{"internalType":"int256","name":"_depositIndex","type":"int256"}],"name":"harvestForDeposit","outputs":[],"stateMutability":"nonpayable","type":"function"},{"inputs":[],"name":"lockUpTaxRate","outputs":[{"internalType":"uint256","name":"","type":"uint256"}],"stateMutability":"view","type":"function"},{"inputs":[],"name":"massUpdatePools","outputs":[],"stateMutability":"nonpayable","type":"function"},{"inputs":[],"name":"nextAddDiamond","outputs":[{"internalType":"uint256","name":"","type":"uint256"}],"stateMutability":"view","type":"function"},{"inputs":[],"name":"owner","outputs":[{"internalType":"address","name":"","type":"address"}],"stateMutability":"view","type":"function"},{"inputs":[{"internalType":"uint8","name":"_pid","type":"uint8"},{"internalType":"int256","name":"_depositIndex","type":"int256"}],"name":"payOrLockupPendingDiamond","outputs":[],"stateMutability":"nonpayable","type":"function"},{"inputs":[{"internalType":"uint8","name":"_pid","type":"uint8"},{"internalType":"address","name":"_user","type":"address"},{"internalType":"int256","name":"_depositIndex","type":"int256"}],"name":"pendingDiamondForDeposit","outputs":[{"internalType":"uint256","name":"totalPending","type":"uint256"},{"internalType":"uint256","name":"claimablePending","type":"uint256"}],"stateMutability":"view","type":"function"},{"inputs":[{"internalType":"uint256","name":"","type":"uint256"}],"name":"poolInfo","outputs":[{"internalType":"contract IERC20","name":"lpToken","type":"address"},{"internalType":"uint256","name":"allocPoint","type":"uint256"},{"internalType":"uint256","name":"lastRewardBlock","type":"uint256"},{"internalType":"uint256","name":"accDiamondPerShare","type":"uint256"},{"internalType":"uint256","name":"harvestInterval","type":"uint256"},{"internalType":"uint256","name":"totalAmountFromFeeByRewards","type":"uint256"}],"stateMutability":"view","type":"function"},{"inputs":[],"name":"poolLength","outputs":[{"internalType":"uint256","name":"","type":"uint256"}],"stateMutability":"view","type":"function"},{"inputs":[{"internalType":"address","name":"_user","type":"address"},{"internalType":"uint8","name":"_pid","type":"uint8"},{"internalType":"uint256","name":"_amount","type":"uint256"},{"internalType":"uint256","name":"_time","type":"uint256"}],"name":"removeAmountFromDeposits","outputs":[],"stateMutability":"nonpayable","type":"function"},{"inputs":[{"internalType":"address","name":"user","type":"address"},{"internalType":"uint8","name":"_pid","type":"uint8"}],"name":"removeEmptyDeposits","outputs":[],"stateMutability":"nonpayable","type":"function"},{"inputs":[],"name":"renounceOwnership","outputs":[],"stateMutability":"nonpayable","type":"function"},{"inputs":[{"internalType":"uint8","name":"_pid","type":"uint8"},{"internalType":"uint256","name":"_allocPoint","type":"uint256"},{"internalType":"uint16","name":"_depositFeeBP","type":"uint16"},{"internalType":"bool","name":"_withUpdate","type":"bool"}],"name":"set","outputs":[],"stateMutability":"nonpayable","type":"function"},{"inputs":[{"internalType":"uint8","name":"_pid","type":"uint8"},{"internalType":"bool","name":"_bEnable","type":"bool"}],"name":"setEnableStaking","outputs":[],"stateMutability":"nonpayable","type":"function"},{"inputs":[{"internalType":"uint256","name":"_limit","type":"uint256"}],"name":"setLockUpTaxRate","outputs":[],"stateMutability":"nonpayable","type":"function"},{"inputs":[],"name":"totalAllocPoint","outputs":[{"internalType":"uint256","name":"","type":"uint256"}],"stateMutability":"view","type":"function"},{"inputs":[],"name":"totalDiamondRewards","outputs":[{"internalType":"uint256","name":"","type":"uint256"}],"stateMutability":"view","type":"function"},{"inputs":[{"internalType":"address","name":"newOwner","type":"address"}],"name":"transferOwnership","outputs":[],"stateMutability":"nonpayable","type":"function"},{"inputs":[{"internalType":"uint8","name":"_pid","type":"uint8"},{"internalType":"address","name":"_user","type":"address"},{"internalType":"int256","name":"_depositIndex","type":"int256"}],"name":"updateDepositInfo","outputs":[],"stateMutability":"nonpayable","type":"function"},{"inputs":[{"internalType":"uint8","name":"_pid","type":"uint8"}],"name":"updatePool","outputs":[],"stateMutability":"nonpayable","type":"function"},{"inputs":[{"internalType":"uint256","name":"","type":"uint256"},{"internalType":"address","name":"","type":"address"}],"name":"userInfo","outputs":[{"internalType":"uint256","name":"amount","type":"uint256"},{"internalType":"uint256","name":"nextHarvestUntil","type":"uint256"},{"internalType":"uint256","name":"totalEarnedDiamond","type":"uint256"},{"internalType":"uint256","name":"taxAmount","type":"uint256"}],"stateMutability":"view","type":"function"},{"inputs":[{"internalType":"uint8","name":"_pid","type":"uint8"},{"internalType":"uint256","name":"_amount","type":"uint256"}],"name":"withdraw","outputs":[],"stateMutability":"nonpayable","type":"function"},{"stateMutability":"payable","type":"receive"}],"evm":{"bytecode":{"linkReferences":{},"object":"60806040526107d06009556000600c5534801561001b57600080fd5b50604051616644380380616644833981810160405281019061003d91906101d6565b61005961004e6100a760201b60201c565b6100af60201b60201c565b6001808190555080600560006101000a81548173ffffffffffffffffffffffffffffffffffffffff021916908373ffffffffffffffffffffffffffffffffffffffff16021790555050610203565b600033905090565b60008060009054906101000a900473ffffffffffffffffffffffffffffffffffffffff169050816000806101000a81548173ffffffffffffffffffffffffffffffffffffffff021916908373ffffffffffffffffffffffffffffffffffffffff1602179055508173ffffffffffffffffffffffffffffffffffffffff168173ffffffffffffffffffffffffffffffffffffffff167f8be0079c531659141344cd1fd0a4f28419497f9722a3daafe3b4186f6b6457e060405160405180910390a35050565b600080fd5b600073ffffffffffffffffffffffffffffffffffffffff82169050919050565b60006101a382610178565b9050919050565b6101b381610198565b81146101be57600080fd5b50565b6000815190506101d0816101aa565b92915050565b6000602082840312156101ec576101eb610173565b5b60006101fa848285016101c1565b91505092915050565b616432806102126000396000f3fe6080604052600436106102815760003560e01c806384e82a331161014f578063d1d0dc1c116100c1578063f2fde38b1161007a578063f2fde38b14610a29578063f4d4c9d714610a52578063fc41aa0914610a7b578063fe7ce59f14610aa4578063fe9d210314610acd578063ffaf98a014610b0b57610288565b8063d1d0dc1c14610900578063d57d4ad51461092b578063da77297114610956578063eff229721461097f578063f0b7db4e146109bc578063f1b8dcad146109e757610288565b80639548cc17116101135780639548cc17146107dc5780639734c7d3146108055780639fdf32941461082e578063a0e5f1801461086b578063c2cb581414610896578063c65b796a146108c157610288565b806384e82a33146106e05780638da5cb5b146107095780638dbb1e3a14610734578063918787601461077157806393f1a40b1461079c57610288565b806333299feb116101f35780636695a8c6116101ac5780636695a8c6146105e45780636b613b0d1461060d5780636c60756e146106365780636f77d6ab14610661578063715018a61461069e5780637c1d10a5146106b557610288565b806333299feb146104c15780633b913eba146104fe5780633c1d309f146105275780633f489914146105655780635ac8bd861461058e578063630b5ba1146105cd57610288565b80630fcd8955116102455780630fcd895514610386578063102855fc146103c357806315146d13146104025780631526fe271461042b578063155622a41461046d57806317caf6f11461049657610288565b8063081e3eda1461028d57806308fa95d4146102b85780630d15e044146102e15780630d2859ba1461030c5780630e36a2541461034957610288565b3661028857005b600080fd5b34801561029957600080fd5b506102a2610b34565b6040516102af9190614be9565b60405180910390f35b3480156102c457600080fd5b506102df60048036038101906102da9190614c42565b610b41565b005b3480156102ed57600080fd5b506102f6610d64565b6040516103039190614be9565b60405180910390f35b34801561031857600080fd5b50610333600480360381019061032e9190614cf9565b610d6b565b6040516103409190614be9565b60405180910390f35b34801561035557600080fd5b50610370600480360381019061036b9190614d4c565b610eb1565b60405161037d9190614e4a565b60405180910390f35b34801561039257600080fd5b506103ad60048036038101906103a89190614d4c565b611039565b6040516103ba9190614f96565b60405180910390f35b3480156103cf57600080fd5b506103ea60048036038101906103e59190614fb8565b611128565b6040516103f99392919061501f565b60405180910390f35b34801561040e57600080fd5b5061042960048036038101906104249190614c42565b61145d565b005b34801561043757600080fd5b50610452600480360381019061044d9190615056565b611554565b604051610464969594939291906150e2565b60405180910390f35b34801561047957600080fd5b50610494600480360381019061048f9190614c42565b6115c0565b005b3480156104a257600080fd5b506104ab6117c5565b6040516104b89190614be9565b60405180910390f35b3480156104cd57600080fd5b506104e860048036038101906104e39190614c42565b6117cb565b6040516104f59190614be9565b60405180910390f35b34801561050a57600080fd5b5061052560048036038101906105209190615179565b611a08565b005b34801561053357600080fd5b5061054e60048036038101906105499190615179565b611d3a565b60405161055c9291906151cc565b60405180910390f35b34801561057157600080fd5b5061058c600480360381019061058791906151f5565b611f21565b005b34801561059a57600080fd5b506105b560048036038101906105b09190615056565b612220565b6040516105c49392919061501f565b60405180910390f35b3480156105d957600080fd5b506105e261225a565b005b3480156105f057600080fd5b5061060b60048036038101906106069190615235565b612290565b005b34801561061957600080fd5b50610634600480360381019061062f9190615275565b61246a565b005b34801561064257600080fd5b5061064b6127fe565b6040516106589190614be9565b60405180910390f35b34801561066d57600080fd5b5061068860048036038101906106839190614c42565b612804565b60405161069591906152f7565b60405180910390f35b3480156106aa57600080fd5b506106b3612824565b005b3480156106c157600080fd5b506106ca6128ac565b6040516106d79190614be9565b60405180910390f35b3480156106ec57600080fd5b50610707600480360381019061070291906153b6565b6128b6565b005b34801561071557600080fd5b5061071e612a9d565b60405161072b919061542c565b60405180910390f35b34801561074057600080fd5b5061075b60048036038101906107569190615447565b612ac6565b6040516107689190614be9565b60405180910390f35b34801561077d57600080fd5b50610786612ae3565b6040516107939190614be9565b60405180910390f35b3480156107a857600080fd5b506107c360048036038101906107be9190615487565b612c2c565b6040516107d394939291906154c7565b60405180910390f35b3480156107e857600080fd5b5061080360048036038101906107fe919061550c565b612c69565b005b34801561081157600080fd5b5061082c6004803603810190610827919061554c565b61301e565b005b34801561083a57600080fd5b506108556004803603810190610850919061550c565b6130cf565b6040516108629190614be9565b60405180910390f35b34801561087757600080fd5b50610880613234565b60405161088d9190614be9565b60405180910390f35b3480156108a257600080fd5b506108ab61323a565b6040516108b89190614be9565b60405180910390f35b3480156108cd57600080fd5b506108e860048036038101906108e39190614cf9565b613240565b6040516108f79392919061501f565b60405180910390f35b34801561090c57600080fd5b50610915613695565b6040516109229190614be9565b60405180910390f35b34801561093757600080fd5b5061094061369b565b60405161094d9190614be9565b60405180910390f35b34801561096257600080fd5b5061097d6004803603810190610978919061558c565b6136a0565b005b34801561098b57600080fd5b506109a660048036038101906109a19190614d4c565b61382a565b6040516109b391906152f7565b60405180910390f35b3480156109c857600080fd5b506109d1613893565b6040516109de919061542c565b60405180910390f35b3480156109f357600080fd5b50610a0e6004803603810190610a0991906155f3565b6138b9565b604051610a2096959493929190615646565b60405180910390f35b348015610a3557600080fd5b50610a506004803603810190610a4b91906156a7565b61391f565b005b348015610a5e57600080fd5b50610a796004803603810190610a7491906151f5565b613a16565b005b348015610a8757600080fd5b50610aa26004803603810190610a9d9190615447565b613d9d565b005b348015610ab057600080fd5b50610acb6004803603810190610ac69190615235565b614061565b005b348015610ad957600080fd5b50610af46004803603810190610aef9190614d4c565b614139565b604051610b029291906156d4565b60405180910390f35b348015610b1757600080fd5b50610b326004803603810190610b2d9190615056565b61433f565b005b6000600a80549050905090565b60011515600d60008360ff1660ff16815260200190815260200160002060009054906101000a900460ff16151514610bae576040517f08c379a0000000000000000000000000000000000000000000000000000000008152600401610ba590615768565b60405180910390fd5b6000600a8260ff1681548110610bc757610bc6615788565b5b9060005260206000209060060201905080600201544311610be85750610d61565b60008160000160009054906101000a900473ffffffffffffffffffffffffffffffffffffffff1673ffffffffffffffffffffffffffffffffffffffff166370a08231306040518263ffffffff1660e01b8152600401610c47919061542c565b602060405180830381865afa158015610c64573d6000803e3d6000fd5b505050506040513d601f19601f82011682018060405250810190610c8891906157cc565b90506000811480610c9d575060008260010154145b15610cb2574382600201819055505050610d61565b6000610ce7600c54610cd98560010154610ccb886117cb565b61440a90919063ffffffff16565b61448490919063ffffffff16565b9050610d008360050154826144dc90919063ffffffff16565b905060008360050181905550610d4c610d3983610d2b64e8d4a510008561440a90919063ffffffff16565b61448490919063ffffffff16565b84600301546144dc90919063ffffffff16565b83600301819055504383600201819055505050505b50565b6201518081565b600080600360008573ffffffffffffffffffffffffffffffffffffffff1673ffffffffffffffffffffffffffffffffffffffff16815260200190815260200160002060008660ff1681526020019081526020016000208381548110610dd357610dd2615788565b5b906000526020600020906006020190508060030154421015610dfa57600954915050610eaa565b6000610e1382600301544261453a90919063ffffffff16565b90506000610e2d620151808361448490919063ffffffff16565b9050610e566064610e486001846144dc90919063ffffffff16565b61440a90919063ffffffff16565b6009541115610ea157610e9a610e896064610e7b6001856144dc90919063ffffffff16565b61440a90919063ffffffff16565b60095461453a90919063ffffffff16565b9350610ea6565b600093505b5050505b9392505050565b60606000600360008473ffffffffffffffffffffffffffffffffffffffff1673ffffffffffffffffffffffffffffffffffffffff16815260200190815260200160002060008560ff168152602001908152602001600020805480602002602001604051908101604052809291908181526020016000905b82821015610f9657838290600052602060002090600602016040518060c0016040529081600082015481526020016001820154815260200160028201548152602001600382015481526020016004820154815260200160058201548152505081526020019060010190610f28565b5050505090506000815167ffffffffffffffff811115610fb957610fb86157f9565b5b604051908082528060200260200182016040528015610fe75781602001602082028036833780820191505090505b50905060005b825181101561102d57611001868683610d6b565b82828151811061101457611013615788565b5b6020026020010181815250508080600101915050610fed565b50809250505092915050565b6060600360008373ffffffffffffffffffffffffffffffffffffffff1673ffffffffffffffffffffffffffffffffffffffff16815260200190815260200160002060008460ff168152602001908152602001600020805480602002602001604051908101604052809291908181526020016000905b8282101561111c57838290600052602060002090600602016040518060c00160405290816000820154815260200160018201548152602001600282015481526020016003820154815260200160048201548152602001600582015481525050815260200190600101906110ae565b50505050905092915050565b600080600080600080600a8a60ff168154811061114857611147615788565b5b906000526020600020906006020190506000600b60008c60ff16815260200190815260200160002060008b73ffffffffffffffffffffffffffffffffffffffff1673ffffffffffffffffffffffffffffffffffffffff16815260200190815260200160002090506000600360008c73ffffffffffffffffffffffffffffffffffffffff1673ffffffffffffffffffffffffffffffffffffffff16815260200190815260200160002060008d60ff168152602001908152602001600020898154811061121657611215615788565b5b90600052602060002090600602016040518060c00160405290816000820154815260200160018201548152602001600282015481526020016003820154815260200160048201548152602001600582015481525050905061134a61133b8460000160009054906101000a900473ffffffffffffffffffffffffffffffffffffffff1673ffffffffffffffffffffffffffffffffffffffff166370a08231306040518263ffffffff1660e01b81526004016112d0919061542c565b602060405180830381865afa1580156112ed573d6000803e3d6000fd5b505050506040513d601f19601f8201168201806040525081019061131191906157cc565b61132d64e8d4a51000866003015461440a90919063ffffffff16565b61448490919063ffffffff16565b8b61453a90919063ffffffff16565b995061137e64e8d4a510006113708360800151846020015161440a90919063ffffffff16565b61448490919063ffffffff16565b93506113ae64e8d4a510006113a08c846020015161440a90919063ffffffff16565b61448490919063ffffffff16565b9750878411156113cd5760008060009750975097505050505050611453565b6113e0848961453a90919063ffffffff16565b9750428160600151111561140257876000809750975097505050505050611453565b61140d8c8c8b610d6b565b9450611436612710611428878b61440a90919063ffffffff16565b61448490919063ffffffff16565b955061144b868961453a90919063ffffffff16565b965050505050505b9450945094915050565b6002600154036114a2576040517f08c379a000000000000000000000000000000000000000000000000000000000815260040161149990615874565b60405180910390fd5b600260018190555060011515600d60008360ff1660ff16815260200190815260200160002060009054906101000a900460ff16151514611517576040517f08c379a000000000000000000000000000000000000000000000000000000000815260040161150e90615768565b60405180910390fd5b61152081610b41565b61154a817fffffffffffffffffffffffffffffffffffffffffffffffffffffffffffffffff612290565b6001808190555050565b600a818154811061156457600080fd5b90600052602060002090600602016000915090508060000160009054906101000a900473ffffffffffffffffffffffffffffffffffffffff16908060010154908060020154908060030154908060040154908060050154905086565b600260015403611605576040517f08c379a00000000000000000000000000000000000000000000000000000000081526004016115fc90615874565b60405180910390fd5b600260018190555060011515600d60008360ff1660ff16815260200190815260200160002060009054906101000a900460ff1615151461167a576040517f08c379a0000000000000000000000000000000000000000000000000000000008152600401611671906158e0565b60405180910390fd5b6000600a8260ff168154811061169357611692615788565b5b906000526020600020906006020190506000600b60008460ff16815260200190815260200160002060003373ffffffffffffffffffffffffffffffffffffffff1673ffffffffffffffffffffffffffffffffffffffff1681526020019081526020016000209050600081600001549050600082600001819055506000826001018190555061176633828560000160009054906101000a900473ffffffffffffffffffffffffffffffffffffffff1673ffffffffffffffffffffffffffffffffffffffff166145939092919063ffffffff16565b8360ff163373ffffffffffffffffffffffffffffffffffffffff167fbb757047c2b5f3974fe26b7c10f732e7bce710b0952a71082702781e62ae0595836040516117b09190614be9565b60405180910390a35050506001808190555050565b600c5481565b600080600a8360ff16815481106117e5576117e4615788565b5b9060005260206000209060060201905060006004805490509050600080600080600080600090505b868110156119f8576004818154811061182957611828615788565b5b90600052602060002090600302016000015495506004818154811061185157611850615788565b5b90600052602060002090600302016001015494506118af61187b878761453a90919063ffffffff16565b6004838154811061188f5761188e615788565b5b90600052602060002090600302016002015461448490919063ffffffff16565b935087600201548511156119eb578760020154861080156118cf57504385105b15611904576118fd846118ef8a600201548861453a90919063ffffffff16565b61440a90919063ffffffff16565b92506119d5565b8760020154861080156119175750438510155b1561194c57611945846119378a600201544361453a90919063ffffffff16565b61440a90919063ffffffff16565b92506119d4565b876002015486101580156119605750438511155b15611992576004818154811061197957611978615788565b5b90600052602060002090600302016002015492506119d3565b876002015486101580156119a557504385115b156119d2576119cf846119c1884361453a90919063ffffffff16565b61440a90919063ffffffff16565b92505b5b5b5b6119e883836144dc90919063ffffffff16565b91505b808060010191505061180d565b5080975050505050505050919050565b6000600a8460ff1681548110611a2157611a20615788565b5b9060005260206000209060060201905060008212611b89576000600360008573ffffffffffffffffffffffffffffffffffffffff1673ffffffffffffffffffffffffffffffffffffffff16815260200190815260200160002060008660ff1681526020019081526020016000208381548110611aa057611a9f615788565b5b90600052602060002090600602016040518060c0016040529081600082015481526020016001820154815260200160028201548152602001600382015481526020016004820154815260200160058201548152505090504281606001511015611b83578160030154600360008673ffffffffffffffffffffffffffffffffffffffff1673ffffffffffffffffffffffffffffffffffffffff16815260200190815260200160002060008760ff1681526020019081526020016000208481548110611b6d57611b6c615788565b5b9060005260206000209060060201600401819055505b50611d34565b6000600360008573ffffffffffffffffffffffffffffffffffffffff1673ffffffffffffffffffffffffffffffffffffffff16815260200190815260200160002060008660ff168152602001908152602001600020805480602002602001604051908101604052809291908181526020016000905b82821015611c6c57838290600052602060002090600602016040518060c0016040529081600082015481526020016001820154815260200160028201548152602001600382015481526020016004820154815260200160058201548152505081526020019060010190611bfe565b50505050905060005b8151811015611d315742828281518110611c9257611c91615788565b5b6020026020010151606001511015611d24578260030154600360008773ffffffffffffffffffffffffffffffffffffffff1673ffffffffffffffffffffffffffffffffffffffff16815260200190815260200160002060008860ff1681526020019081526020016000208281548110611d0e57611d0d615788565b5b9060005260206000209060060201600401819055505b8080600101915050611c75565b50505b50505050565b6000806000600a8660ff1681548110611d5657611d55615788565b5b9060005260206000209060060201905060008160000160009054906101000a900473ffffffffffffffffffffffffffffffffffffffff1673ffffffffffffffffffffffffffffffffffffffff166370a08231306040518263ffffffff1660e01b8152600401611dc5919061542c565b602060405180830381865afa158015611de2573d6000803e3d6000fd5b505050506040513d601f19601f82011682018060405250810190611e0691906157cc565b905060008103611e1e57600080935093505050611f19565b600082600301549050826002015443118015611e3b575060008214155b15611ed0576000611e75600c54611e678660010154611e598d6117cb565b61440a90919063ffffffff16565b61448490919063ffffffff16565b9050611e8e8460050154826144dc90919063ffffffff16565b9050611ecc611ebd84611eaf64e8d4a510008561440a90919063ffffffff16565b61448490919063ffffffff16565b836144dc90919063ffffffff16565b9150505b60008612611ef957600080611ee78a8a858b611128565b50915091508196508095505050611f15565b600080611f078a8a85613240565b509150915081965080955050505b5050505b935093915050565b600260015403611f66576040517f08c379a0000000000000000000000000000000000000000000000000000000008152600401611f5d90615874565b60405180910390fd5b600260018190555060011515600d60008460ff1660ff16815260200190815260200160002060009054906101000a900460ff16151514611fdb576040517f08c379a0000000000000000000000000000000000000000000000000000000008152600401611fd2906158e0565b60405180910390fd5b6000600a8360ff1681548110611ff457611ff3615788565b5b906000526020600020906006020190506000600b60008560ff16815260200190815260200160002060003373ffffffffffffffffffffffffffffffffffffffff1673ffffffffffffffffffffffffffffffffffffffff168152602001908152602001600020905082816000015410156120a2576040517f08c379a00000000000000000000000000000000000000000000000000000000081526004016120999061594c565b60405180910390fd5b60006120ae33866130cf565b9050600081116120f3576040517f08c379a00000000000000000000000000000000000000000000000000000000081526004016120ea906159b8565b60405180910390fd5b838110156120ff578093505b61210885610b41565b612132857fffffffffffffffffffffffffffffffffffffffffffffffffffffffffffffffff612290565b60008411156121aa5761215284836000015461453a90919063ffffffff16565b82600001819055506121a933858560000160009054906101000a900473ffffffffffffffffffffffffffffffffffffffff1673ffffffffffffffffffffffffffffffffffffffff166145939092919063ffffffff16565b5b6121b63386864261246a565b6121c03386612c69565b8460ff163373ffffffffffffffffffffffffffffffffffffffff167ff279e6a1f5e320cca91135676d9cb6e44ca8a08c0b88342bcdb1144f6511b5688660405161220a9190614be9565b60405180910390a3505050600180819055505050565b6004818154811061223057600080fd5b90600052602060002090600302016000915090508060000154908060010154908060020154905083565b6000600a80549050905060005b818160ff16101561228c5761227b81610b41565b8061228590615a07565b9050612267565b5050565b60011515600d60008460ff1660ff16815260200190815260200160002060009054906101000a900460ff161515146122fd576040517f08c379a00000000000000000000000000000000000000000000000000000000081526004016122f4906158e0565b60405180910390fd5b6000600a8360ff168154811061231657612315615788565b5b906000526020600020906006020190506000600b60008560ff16815260200190815260200160002060003373ffffffffffffffffffffffffffffffffffffffff1673ffffffffffffffffffffffffffffffffffffffff1681526020019081526020016000209050600080600085126123ad5760008061239b883388600301548a611128565b925092505081935080925050506123cd565b6000806123bf88338860030154613240565b925092505081935080925050505b6123d7863361382a565b15612462576000821115612461576123fc8185600501546144dc90919063ffffffff16565b846005018190555061241b8460040154426144dc90919063ffffffff16565b836001018190555061242d3383614619565b6124448284600201546144dc90919063ffffffff16565b8360020181905550808360030181905550612460863387611a08565b5b5b505050505050565b6000600360008673ffffffffffffffffffffffffffffffffffffffff1673ffffffffffffffffffffffffffffffffffffffff16815260200190815260200160002060008560ff16815260200190815260200160002080549050905060005b818110156127f65782600360008873ffffffffffffffffffffffffffffffffffffffff1673ffffffffffffffffffffffffffffffffffffffff16815260200190815260200160002060008760ff168152602001908152602001600020828154811061253657612535615788565b5b90600052602060002090600602016003015410156127e05783600360008873ffffffffffffffffffffffffffffffffffffffff1673ffffffffffffffffffffffffffffffffffffffff16815260200190815260200160002060008760ff16815260200190815260200160002082815481106125b4576125b3615788565b5b906000526020600020906006020160010154116126d757612654600360008873ffffffffffffffffffffffffffffffffffffffff1673ffffffffffffffffffffffffffffffffffffffff16815260200190815260200160002060008760ff168152602001908152602001600020828154811061263357612632615788565b5b9060005260206000209060060201600101548561453a90919063ffffffff16565b93506000600360008873ffffffffffffffffffffffffffffffffffffffff1673ffffffffffffffffffffffffffffffffffffffff16815260200190815260200160002060008760ff16815260200190815260200160002082815481106126bd576126bc615788565b5b9060005260206000209060060201600101819055506127df565b61276084600360008973ffffffffffffffffffffffffffffffffffffffff1673ffffffffffffffffffffffffffffffffffffffff16815260200190815260200160002060008860ff16815260200190815260200160002083815481106127405761273f615788565b5b90600052602060002090600602016001015461453a90919063ffffffff16565b600360008873ffffffffffffffffffffffffffffffffffffffff1673ffffffffffffffffffffffffffffffffffffffff16815260200190815260200160002060008760ff16815260200190815260200160002082815481106127c5576127c4615788565b5b906000526020600020906006020160010181905550600093505b5b60008403156127f65780806001019150506124c8565b505050505050565b60065481565b600d6020528060005260406000206000915054906101000a900460ff1681565b61282c61480e565b73ffffffffffffffffffffffffffffffffffffffff1661284a612a9d565b73ffffffffffffffffffffffffffffffffffffffff16146128a0576040517f08c379a000000000000000000000000000000000000000000000000000000000815260040161289790615a7c565b60405180910390fd5b6128aa6000614816565b565b6000600754905090565b6128be61480e565b73ffffffffffffffffffffffffffffffffffffffff166128dc612a9d565b73ffffffffffffffffffffffffffffffffffffffff1614612932576040517f08c379a000000000000000000000000000000000000000000000000000000000815260040161292990615a7c565b60405180910390fd5b6127108261ffff16111561297b576040517f08c379a000000000000000000000000000000000000000000000000000000000815260040161297290615b0e565b60405180910390fd5b801561298a5761298961225a565b5b60004390506129a485600c546144dc90919063ffffffff16565b600c81905550600a6040518060c001604052808673ffffffffffffffffffffffffffffffffffffffff16815260200187815260200183815260200160008152602001603c81526020016000815250908060018154018082558091505060019003906000526020600020906006020160009091909190915060008201518160000160006101000a81548173ffffffffffffffffffffffffffffffffffffffff021916908373ffffffffffffffffffffffffffffffffffffffff1602179055506020820151816001015560408201518160020155606082015181600301556080820151816004015560a0820151816005015550505050505050565b60008060009054906101000a900473ffffffffffffffffffffffffffffffffffffffff16905090565b6000612adb838361453a90919063ffffffff16565b905092915050565b6000806004805490509050600080600080600080600090505b86811015612c1f5760048181548110612b1857612b17615788565b5b906000526020600020906003020160000154955060048181548110612b4057612b3f615788565b5b9060005260206000209060030201600101549450612b9e612b6a878761453a90919063ffffffff16565b60048381548110612b7e57612b7d615788565b5b90600052602060002090600302016002015461448490919063ffffffff16565b935043851015612bd55760048181548110612bbc57612bbb615788565b5b9060005260206000209060030201600201549250612bfd565b612bfa84612bec884361453a90919063ffffffff16565b61440a90919063ffffffff16565b92505b612c1083836144dc90919063ffffffff16565b91508080600101915050612afc565b5080965050505050505090565b600b602052816000526040600020602052806000526040600020600091509150508060000154908060010154908060020154908060030154905084565b60005b600360008473ffffffffffffffffffffffffffffffffffffffff1673ffffffffffffffffffffffffffffffffffffffff16815260200190815260200160002060008360ff16815260200190815260200160002080549050811015613019575b6000600360008573ffffffffffffffffffffffffffffffffffffffff1673ffffffffffffffffffffffffffffffffffffffff16815260200190815260200160002060008460ff16815260200190815260200160002080549050118015612da757506000600360008573ffffffffffffffffffffffffffffffffffffffff1673ffffffffffffffffffffffffffffffffffffffff16815260200190815260200160002060008460ff1681526020019081526020016000208281548110612d9357612d92615788565b5b906000526020600020906006020160010154145b1561300c5760008190505b6001600360008673ffffffffffffffffffffffffffffffffffffffff1673ffffffffffffffffffffffffffffffffffffffff16815260200190815260200160002060008560ff16815260200190815260200160002080549050612e159190615b2e565b811015612f5a57600360008573ffffffffffffffffffffffffffffffffffffffff1673ffffffffffffffffffffffffffffffffffffffff16815260200190815260200160002060008460ff168152602001908152602001600020600182612e7c9190615b62565b81548110612e8d57612e8c615788565b5b9060005260206000209060060201600360008673ffffffffffffffffffffffffffffffffffffffff1673ffffffffffffffffffffffffffffffffffffffff16815260200190815260200160002060008560ff1681526020019081526020016000208281548110612f0057612eff615788565b5b90600052602060002090600602016000820154816000015560018201548160010155600282015481600201556003820154816003015560048201548160040155600582015481600501559050508080600101915050612db2565b50600360008473ffffffffffffffffffffffffffffffffffffffff1673ffffffffffffffffffffffffffffffffffffffff16815260200190815260200160002060008360ff168152602001908152602001600020805480612fbe57612fbd615b96565b5b60019003818190600052602060002090600602016000808201600090556001820160009055600282016000905560038201600090556004820160009055600582016000905550509055612ccb565b8080600101915050612c6c565b505050565b61302661480e565b73ffffffffffffffffffffffffffffffffffffffff16613044612a9d565b73ffffffffffffffffffffffffffffffffffffffff161461309a576040517f08c379a000000000000000000000000000000000000000000000000000000000815260040161309190615a7c565b60405180910390fd5b80600d60008460ff1660ff16815260200190815260200160002060006101000a81548160ff0219169083151502179055505050565b600080600360008573ffffffffffffffffffffffffffffffffffffffff1673ffffffffffffffffffffffffffffffffffffffff16815260200190815260200160002060008460ff168152602001908152602001600020805480602002602001604051908101604052809291908181526020016000905b828210156131b357838290600052602060002090600602016040518060c0016040529081600082015481526020016001820154815260200160028201548152602001600382015481526020016004820154815260200160058201548152505081526020019060010190613145565b50505050905060005b815181101561322c57428282815181106131d9576131d8615788565b5b602002602001015160600151101561321f5761321c82828151811061320157613200615788565b5b602002602001015160200151846144dc90919063ffffffff16565b92505b80806001019150506131bc565b505092915050565b60075481565b60085481565b600080600080600080600080600a8b60ff168154811061326357613262615788565b5b906000526020600020906006020190506000600b60008d60ff16815260200190815260200160002060008c73ffffffffffffffffffffffffffffffffffffffff1673ffffffffffffffffffffffffffffffffffffffff16815260200190815260200160002090506000600360008d73ffffffffffffffffffffffffffffffffffffffff1673ffffffffffffffffffffffffffffffffffffffff16815260200190815260200160002060008e60ff168152602001908152602001600020805480602002602001604051908101604052809291908181526020016000905b828210156133ad57838290600052602060002090600602016040518060c001604052908160008201548152602001600182015481526020016002820154815260200160038201548152602001600482015481526020016005820154815250508152602001906001019061333f565b5050505090506134906134818460000160009054906101000a900473ffffffffffffffffffffffffffffffffffffffff1673ffffffffffffffffffffffffffffffffffffffff166370a08231306040518263ffffffff1660e01b8152600401613416919061542c565b602060405180830381865afa158015613433573d6000803e3d6000fd5b505050506040513d601f19601f8201168201806040525081019061345791906157cc565b61347364e8d4a51000866003015461440a90919063ffffffff16565b61448490919063ffffffff16565b8c61453a90919063ffffffff16565b9a5060005b81518110156136425761350464e8d4a510006134f68484815181106134bd576134bc615788565b5b6020026020010151608001518585815181106134dc576134db615788565b5b60200260200101516020015161440a90919063ffffffff16565b61448490919063ffffffff16565b955061351986866144dc90919063ffffffff16565b94504282828151811061352f5761352e615788565b5b602002602001015160600151116136355761358864e8d4a5100061357a8e8585815181106135605761355f615788565b5b60200260200101516020015161440a90919063ffffffff16565b61448490919063ffffffff16565b975061359d868961453a90919063ffffffff16565b97506135aa8e8e83610d6b565b96506135e56135d66127106135c88a8c61440a90919063ffffffff16565b61448490919063ffffffff16565b8a6144dc90919063ffffffff16565b98506136326136236136146127106136068b8d61440a90919063ffffffff16565b61448490919063ffffffff16565b8a61453a90919063ffffffff16565b8b6144dc90919063ffffffff16565b99505b8080600101915050613495565b506136838461367564e8d4a510006136678f876000015461440a90919063ffffffff16565b61448490919063ffffffff16565b61453a90919063ffffffff16565b99505050505050505093509350939050565b60095481565b603c81565b6136a861480e565b73ffffffffffffffffffffffffffffffffffffffff166136c6612a9d565b73ffffffffffffffffffffffffffffffffffffffff161461371c576040517f08c379a000000000000000000000000000000000000000000000000000000000815260040161371390615a7c565b60405180910390fd5b6127108261ffff161115613765576040517f08c379a000000000000000000000000000000000000000000000000000000000815260040161375c90615c37565b60405180910390fd5b80156137745761377361225a565b5b6137c3836137b5600a8760ff168154811061379257613791615788565b5b906000526020600020906006020160010154600c5461453a90919063ffffffff16565b6144dc90919063ffffffff16565b600c8190555082600a8560ff16815481106137e1576137e0615788565b5b906000526020600020906006020160010181905550603c600a8560ff168154811061380f5761380e615788565b5b90600052602060002090600602016004018190555050505050565b600080600b60008560ff16815260200190815260200160002060008473ffffffffffffffffffffffffffffffffffffffff1673ffffffffffffffffffffffffffffffffffffffff1681526020019081526020016000209050806001015442101591505092915050565b600560009054906101000a900473ffffffffffffffffffffffffffffffffffffffff1681565b600360205282600052604060002060205281600052604060002081815481106138e157600080fd5b906000526020600020906006020160009250925050508060000154908060010154908060020154908060030154908060040154908060050154905086565b61392761480e565b73ffffffffffffffffffffffffffffffffffffffff16613945612a9d565b73ffffffffffffffffffffffffffffffffffffffff161461399b576040517f08c379a000000000000000000000000000000000000000000000000000000000815260040161399290615a7c565b60405180910390fd5b600073ffffffffffffffffffffffffffffffffffffffff168173ffffffffffffffffffffffffffffffffffffffff1603613a0a576040517f08c379a0000000000000000000000000000000000000000000000000000000008152600401613a0190615cc9565b60405180910390fd5b613a1381614816565b50565b600260015403613a5b576040517f08c379a0000000000000000000000000000000000000000000000000000000008152600401613a5290615874565b60405180910390fd5b600260018190555060011515600d60008460ff1660ff16815260200190815260200160002060009054906101000a900460ff16151514613ad0576040517f08c379a0000000000000000000000000000000000000000000000000000000008152600401613ac790615768565b60405180910390fd5b60008111613b13576040517f08c379a0000000000000000000000000000000000000000000000000000000008152600401613b0a90615768565b60405180910390fd5b6000600a8360ff1681548110613b2c57613b2b615788565b5b906000526020600020906006020190506000600b60008560ff16815260200190815260200160002060003373ffffffffffffffffffffffffffffffffffffffff1673ffffffffffffffffffffffffffffffffffffffff1681526020019081526020016000209050613b9c84610b41565b613bed3330858560000160009054906101000a900473ffffffffffffffffffffffffffffffffffffffff1673ffffffffffffffffffffffffffffffffffffffff166148da909392919063ffffffff16565b613c048382600001546144dc90919063ffffffff16565b8160000181905550600360003373ffffffffffffffffffffffffffffffffffffffff1673ffffffffffffffffffffffffffffffffffffffff16815260200190815260200160002060008560ff1681526020019081526020016000206040518060c001604052808660ff168152602001858152602001620151808152602001613c9862015180426144dc90919063ffffffff16565b81526020018460030154815260200160008152509080600181540180825580915050600190039060005260206000209060060201600090919091909150600082015181600001556020820151816001015560408201518160020155606082015181600301556080820151816004015560a0820151816005015550506000816001015403613d3e57613d3562015180426144dc90919063ffffffff16565b81600101819055505b8360ff163373ffffffffffffffffffffffffffffffffffffffff167f90890809c654f11d6e72a28fa60149770a0d11ec6c92319d6ceb2bb0a4ea1a1585604051613d889190614be9565b60405180910390a35050600180819055505050565b613da561480e565b73ffffffffffffffffffffffffffffffffffffffff16613dc3612a9d565b73ffffffffffffffffffffffffffffffffffffffff1614613e19576040517f08c379a0000000000000000000000000000000000000000000000000000000008152600401613e1090615a7c565b60405180910390fd5b600560009054906101000a900473ffffffffffffffffffffffffffffffffffffffff1673ffffffffffffffffffffffffffffffffffffffff166370a08231336040518263ffffffff1660e01b8152600401613e74919061542c565b602060405180830381865afa158015613e91573d6000803e3d6000fd5b505050506040513d601f19601f82011682018060405250810190613eb591906157cc565b821115613ef7576040517f08c379a0000000000000000000000000000000000000000000000000000000008152600401613eee90615d5b565b60405180910390fd5b6000613f0f620151808361440a90919063ffffffff16565b9050600654421015613f56576040517f08c379a0000000000000000000000000000000000000000000000000000000008152600401613f4d90615dc7565b60405180910390fd5b613fa5333085600560009054906101000a900473ffffffffffffffffffffffffffffffffffffffff1673ffffffffffffffffffffffffffffffffffffffff166148da909392919063ffffffff16565b613fb8818461448490919063ffffffff16565b6008819055508042613fca9190615b62565b600681905550613fe5836007546144dc90919063ffffffff16565b60078190555060046040518060600160405280438152602001834361400a9190615b62565b81526020018581525090806001815401808255809150506001900390600052602060002090600302016000909190919091506000820151816000015560208201518160010155604082015181600201555050505050565b6002600154036140a6576040517f08c379a000000000000000000000000000000000000000000000000000000000815260040161409d90615874565b60405180910390fd5b600260018190555060011515600d60008460ff1660ff16815260200190815260200160002060009054906101000a900460ff1615151461411b576040517f08c379a000000000000000000000000000000000000000000000000000000000815260040161411290615768565b60405180910390fd5b61412482610b41565b61412e8282612290565b600180819055505050565b6060806000600360008573ffffffffffffffffffffffffffffffffffffffff1673ffffffffffffffffffffffffffffffffffffffff16815260200190815260200160002060008660ff168152602001908152602001600020805480602002602001604051908101604052809291908181526020016000905b8282101561421f57838290600052602060002090600602016040518060c00160405290816000820154815260200160018201548152602001600282015481526020016003820154815260200160048201548152602001600582015481525050815260200190600101906141b1565b5050505090506000815167ffffffffffffffff811115614242576142416157f9565b5b6040519080825280602002602001820160405280156142705781602001602082028036833780820191505090505b5090506000825167ffffffffffffffff8111156142905761428f6157f9565b5b6040519080825280602002602001820160405280156142be5781602001602082028036833780820191505090505b50905060005b835181101561432e576000806142db8a8a85611d3a565b91509150818584815181106142f3576142f2615788565b5b6020026020010181815250508084848151811061431357614312615788565b5b602002602001018181525050505080806001019150506142c4565b508181945094505050509250929050565b61434761480e565b73ffffffffffffffffffffffffffffffffffffffff16614365612a9d565b73ffffffffffffffffffffffffffffffffffffffff16146143bb576040517f08c379a00000000000000000000000000000000000000000000000000000000081526004016143b290615a7c565b60405180910390fd5b612710811115614400576040517f08c379a00000000000000000000000000000000000000000000000000000000081526004016143f790615e33565b60405180910390fd5b8060098190555050565b600080830361441c576000905061447e565b6000828461442a9190615e53565b90508284826144399190615ec4565b14614479576040517f08c379a000000000000000000000000000000000000000000000000000000000815260040161447090615f67565b60405180910390fd5b809150505b92915050565b60008082116144c8576040517f08c379a00000000000000000000000000000000000000000000000000000000081526004016144bf90615fd3565b60405180910390fd5b81836144d49190615ec4565b905092915050565b60008082846144eb9190615b62565b905083811015614530576040517f08c379a00000000000000000000000000000000000000000000000000000000081526004016145279061603f565b60405180910390fd5b8091505092915050565b60008282111561457f576040517f08c379a0000000000000000000000000000000000000000000000000000000008152600401614576906160ab565b60405180910390fd5b818361458b9190615b2e565b905092915050565b6146148363a9059cbb60e01b84846040516024016145b29291906160cb565b604051602081830303815290604052907bffffffffffffffffffffffffffffffffffffffffffffffffffffffff19166020820180517bffffffffffffffffffffffffffffffffffffffffffffffffffffffff8381831617835250505050614963565b505050565b6000600560009054906101000a900473ffffffffffffffffffffffffffffffffffffffff1673ffffffffffffffffffffffffffffffffffffffff166370a08231306040518263ffffffff1660e01b8152600401614676919061542c565b602060405180830381865afa158015614693573d6000803e3d6000fd5b505050506040513d601f19601f820116820180604052508101906146b791906157cc565b90508082111561476757600560009054906101000a900473ffffffffffffffffffffffffffffffffffffffff1673ffffffffffffffffffffffffffffffffffffffff1663a9059cbb84836040518363ffffffff1660e01b815260040161471e9291906160cb565b6020604051808303816000875af115801561473d573d6000803e3d6000fd5b505050506040513d601f19601f820116820180604052508101906147619190616109565b50614809565b600560009054906101000a900473ffffffffffffffffffffffffffffffffffffffff1673ffffffffffffffffffffffffffffffffffffffff1663a9059cbb84846040518363ffffffff1660e01b81526004016147c49291906160cb565b6020604051808303816000875af11580156147e3573d6000803e3d6000fd5b505050506040513d601f19601f820116820180604052508101906148079190616109565b505b505050565b600033905090565b60008060009054906101000a900473ffffffffffffffffffffffffffffffffffffffff169050816000806101000a81548173ffffffffffffffffffffffffffffffffffffffff021916908373ffffffffffffffffffffffffffffffffffffffff1602179055508173ffffffffffffffffffffffffffffffffffffffff168173ffffffffffffffffffffffffffffffffffffffff167f8be0079c531659141344cd1fd0a4f28419497f9722a3daafe3b4186f6b6457e060405160405180910390a35050565b61495d846323b872dd60e01b8585856040516024016148fb93929190616136565b604051602081830303815290604052907bffffffffffffffffffffffffffffffffffffffffffffffffffffffff19166020820180517bffffffffffffffffffffffffffffffffffffffffffffffffffffffff8381831617835250505050614963565b50505050565b60006149c5826040518060400160405280602081526020017f5361666545524332303a206c6f772d6c6576656c2063616c6c206661696c65648152508573ffffffffffffffffffffffffffffffffffffffff16614a2a9092919063ffffffff16565b9050600081511115614a2557808060200190518101906149e59190616109565b614a24576040517f08c379a0000000000000000000000000000000000000000000000000000000008152600401614a1b906161df565b60405180910390fd5b5b505050565b6060614a398484600085614a42565b90509392505050565b606082471015614a87576040517f08c379a0000000000000000000000000000000000000000000000000000000008152600401614a7e90616271565b60405180910390fd5b614a9085614b56565b614acf576040517f08c379a0000000000000000000000000000000000000000000000000000000008152600401614ac6906162dd565b60405180910390fd5b6000808673ffffffffffffffffffffffffffffffffffffffff168587604051614af8919061636e565b60006040518083038185875af1925050503d8060008114614b35576040519150601f19603f3d011682016040523d82523d6000602084013e614b3a565b606091505b5091509150614b4a828286614b69565b92505050949350505050565b600080823b905060008111915050919050565b60608315614b7957829050614bc9565b600083511115614b8c5782518084602001fd5b816040517f08c379a0000000000000000000000000000000000000000000000000000000008152600401614bc091906163da565b60405180910390fd5b9392505050565b6000819050919050565b614be381614bd0565b82525050565b6000602082019050614bfe6000830184614bda565b92915050565b600080fd5b600060ff82169050919050565b614c1f81614c09565b8114614c2a57600080fd5b50565b600081359050614c3c81614c16565b92915050565b600060208284031215614c5857614c57614c04565b5b6000614c6684828501614c2d565b91505092915050565b600073ffffffffffffffffffffffffffffffffffffffff82169050919050565b6000614c9a82614c6f565b9050919050565b614caa81614c8f565b8114614cb557600080fd5b50565b600081359050614cc781614ca1565b92915050565b614cd681614bd0565b8114614ce157600080fd5b50565b600081359050614cf381614ccd565b92915050565b600080600060608486031215614d1257614d11614c04565b5b6000614d2086828701614c2d565b9350506020614d3186828701614cb8565b9250506040614d4286828701614ce4565b9150509250925092565b60008060408385031215614d6357614d62614c04565b5b6000614d7185828601614c2d565b9250506020614d8285828601614cb8565b9150509250929050565b600081519050919050565b600082825260208201905092915050565b6000819050602082019050919050565b614dc181614bd0565b82525050565b6000614dd38383614db8565b60208301905092915050565b6000602082019050919050565b6000614df782614d8c565b614e018185614d97565b9350614e0c83614da8565b8060005b83811015614e3d578151614e248882614dc7565b9750614e2f83614ddf565b925050600181019050614e10565b5085935050505092915050565b60006020820190508181036000830152614e648184614dec565b905092915050565b600081519050919050565b600082825260208201905092915050565b6000819050602082019050919050565b60c082016000820151614eae6000850182614db8565b506020820151614ec16020850182614db8565b506040820151614ed46040850182614db8565b506060820151614ee76060850182614db8565b506080820151614efa6080850182614db8565b5060a0820151614f0d60a0850182614db8565b50505050565b6000614f1f8383614e98565b60c08301905092915050565b6000602082019050919050565b6000614f4382614e6c565b614f4d8185614e77565b9350614f5883614e88565b8060005b83811015614f89578151614f708882614f13565b9750614f7b83614f2b565b925050600181019050614f5c565b5085935050505092915050565b60006020820190508181036000830152614fb08184614f38565b905092915050565b60008060008060808587031215614fd257614fd1614c04565b5b6000614fe087828801614c2d565b9450506020614ff187828801614cb8565b935050604061500287828801614ce4565b925050606061501387828801614ce4565b91505092959194509250565b60006060820190506150346000830186614bda565b6150416020830185614bda565b61504e6040830184614bda565b949350505050565b60006020828403121561506c5761506b614c04565b5b600061507a84828501614ce4565b91505092915050565b6000819050919050565b60006150a86150a361509e84614c6f565b615083565b614c6f565b9050919050565b60006150ba8261508d565b9050919050565b60006150cc826150af565b9050919050565b6150dc816150c1565b82525050565b600060c0820190506150f760008301896150d3565b6151046020830188614bda565b6151116040830187614bda565b61511e6060830186614bda565b61512b6080830185614bda565b61513860a0830184614bda565b979650505050505050565b6000819050919050565b61515681615143565b811461516157600080fd5b50565b6000813590506151738161514d565b92915050565b60008060006060848603121561519257615191614c04565b5b60006151a086828701614c2d565b93505060206151b186828701614cb8565b92505060406151c286828701615164565b9150509250925092565b60006040820190506151e16000830185614bda565b6151ee6020830184614bda565b9392505050565b6000806040838503121561520c5761520b614c04565b5b600061521a85828601614c2d565b925050602061522b85828601614ce4565b9150509250929050565b6000806040838503121561524c5761524b614c04565b5b600061525a85828601614c2d565b925050602061526b85828601615164565b9150509250929050565b6000806000806080858703121561528f5761528e614c04565b5b600061529d87828801614cb8565b94505060206152ae87828801614c2d565b93505060406152bf87828801614ce4565b92505060606152d087828801614ce4565b91505092959194509250565b60008115159050919050565b6152f1816152dc565b82525050565b600060208201905061530c60008301846152e8565b92915050565b600061531d82614c8f565b9050919050565b61532d81615312565b811461533857600080fd5b50565b60008135905061534a81615324565b92915050565b600061ffff82169050919050565b61536781615350565b811461537257600080fd5b50565b6000813590506153848161535e565b92915050565b615393816152dc565b811461539e57600080fd5b50565b6000813590506153b08161538a565b92915050565b600080600080608085870312156153d0576153cf614c04565b5b60006153de87828801614ce4565b94505060206153ef8782880161533b565b935050604061540087828801615375565b9250506060615411878288016153a1565b91505092959194509250565b61542681614c8f565b82525050565b6000602082019050615441600083018461541d565b92915050565b6000806040838503121561545e5761545d614c04565b5b600061546c85828601614ce4565b925050602061547d85828601614ce4565b9150509250929050565b6000806040838503121561549e5761549d614c04565b5b60006154ac85828601614ce4565b92505060206154bd85828601614cb8565b9150509250929050565b60006080820190506154dc6000830187614bda565b6154e96020830186614bda565b6154f66040830185614bda565b6155036060830184614bda565b95945050505050565b6000806040838503121561552357615522614c04565b5b600061553185828601614cb8565b925050602061554285828601614c2d565b9150509250929050565b6000806040838503121561556357615562614c04565b5b600061557185828601614c2d565b9250506020615582858286016153a1565b9150509250929050565b600080600080608085870312156155a6576155a5614c04565b5b60006155b487828801614c2d565b94505060206155c587828801614ce4565b93505060406155d687828801615375565b92505060606155e7878288016153a1565b91505092959194509250565b60008060006060848603121561560c5761560b614c04565b5b600061561a86828701614cb8565b935050602061562b86828701614ce4565b925050604061563c86828701614ce4565b9150509250925092565b600060c08201905061565b6000830189614bda565b6156686020830188614bda565b6156756040830187614bda565b6156826060830186614bda565b61568f6080830185614bda565b61569c60a0830184614bda565b979650505050505050565b6000602082840312156156bd576156bc614c04565b5b60006156cb84828501614cb8565b91505092915050565b600060408201905081810360008301526156ee8185614dec565b905081810360208301526157028184614dec565b90509392505050565b600082825260208201905092915050565b7f4465706f736974653a2044495341424c45204445504f534954494e4700000000600082015250565b6000615752601c8361570b565b915061575d8261571c565b602082019050919050565b6000602082019050818103600083015261578181615745565b9050919050565b7f4e487b7100000000000000000000000000000000000000000000000000000000600052603260045260246000fd5b6000815190506157c681614ccd565b92915050565b6000602082840312156157e2576157e1614c04565b5b60006157f0848285016157b7565b91505092915050565b7f4e487b7100000000000000000000000000000000000000000000000000000000600052604160045260246000fd5b7f5265656e7472616e637947756172643a207265656e7472616e742063616c6c00600082015250565b600061585e601f8361570b565b915061586982615828565b602082019050919050565b6000602082019050818103600083015261588d81615851565b9050919050565b7f57697468647261773a2044495341424c45205749544844524157494e47000000600082015250565b60006158ca601d8361570b565b91506158d582615894565b602082019050919050565b600060208201905081810360008301526158f9816158bd565b9050919050565b7f77697468647261773a206e6f7420676f6f640000000000000000000000000000600082015250565b600061593660128361570b565b915061594182615900565b602082019050919050565b6000602082019050818103600083015261596581615929565b9050919050565b7f77697468647261773a206e6f20617661696c61626c6520616d6f756e74000000600082015250565b60006159a2601d8361570b565b91506159ad8261596c565b602082019050919050565b600060208201905081810360008301526159d181615995565b9050919050565b7f4e487b7100000000000000000000000000000000000000000000000000000000600052601160045260246000fd5b6000615a1282614c09565b915060ff8203615a2557615a246159d8565b5b600182019050919050565b7f4f776e61626c653a2063616c6c6572206973206e6f7420746865206f776e6572600082015250565b6000615a6660208361570b565b9150615a7182615a30565b602082019050919050565b60006020820190508181036000830152615a9581615a59565b9050919050565b7f6164643a20696e76616c6964206465706f73697420666565206261736973207060008201527f6f696e7473000000000000000000000000000000000000000000000000000000602082015250565b6000615af860258361570b565b9150615b0382615a9c565b604082019050919050565b60006020820190508181036000830152615b2781615aeb565b9050919050565b6000615b3982614bd0565b9150615b4483614bd0565b9250828203905081811115615b5c57615b5b6159d8565b5b92915050565b6000615b6d82614bd0565b9150615b7883614bd0565b9250828201905080821115615b9057615b8f6159d8565b5b92915050565b7f4e487b7100000000000000000000000000000000000000000000000000000000600052603160045260246000fd5b7f7365743a20696e76616c6964206465706f73697420666565206261736973207060008201527f6f696e7473000000000000000000000000000000000000000000000000000000602082015250565b6000615c2160258361570b565b9150615c2c82615bc5565b604082019050919050565b60006020820190508181036000830152615c5081615c14565b9050919050565b7f4f776e61626c653a206e6577206f776e657220697320746865207a65726f206160008201527f6464726573730000000000000000000000000000000000000000000000000000602082015250565b6000615cb360268361570b565b9150615cbe82615c57565b604082019050919050565b60006020820190508181036000830152615ce281615ca6565b9050919050565b7f4465706f736974653a20496e73756666696369656e742042616c616e6365206f60008201527f66204469616d6f6e640000000000000000000000000000000000000000000000602082015250565b6000615d4560298361570b565b9150615d5082615ce9565b604082019050919050565b60006020820190508181036000830152615d7481615d38565b9050919050565b7f546f6f206561726c7920746f20616464204469616d6f6e642e00000000000000600082015250565b6000615db160198361570b565b9150615dbc82615d7b565b602082019050919050565b60006020820190508181036000830152615de081615da4565b9050919050565b7f4c696d697420506572696f643a2063616e206e6f74206f766572203130302500600082015250565b6000615e1d601f8361570b565b9150615e2882615de7565b602082019050919050565b60006020820190508181036000830152615e4c81615e10565b9050919050565b6000615e5e82614bd0565b9150615e6983614bd0565b9250828202615e7781614bd0565b91508282048414831517615e8e57615e8d6159d8565b5b5092915050565b7f4e487b7100000000000000000000000000000000000000000000000000000000600052601260045260246000fd5b6000615ecf82614bd0565b9150615eda83614bd0565b925082615eea57615ee9615e95565b5b828204905092915050565b7f536166654d6174683a206d756c7469706c69636174696f6e206f766572666c6f60008201527f7700000000000000000000000000000000000000000000000000000000000000602082015250565b6000615f5160218361570b565b9150615f5c82615ef5565b604082019050919050565b60006020820190508181036000830152615f8081615f44565b9050919050565b7f536166654d6174683a206469766973696f6e206279207a65726f000000000000600082015250565b6000615fbd601a8361570b565b9150615fc882615f87565b602082019050919050565b60006020820190508181036000830152615fec81615fb0565b9050919050565b7f536166654d6174683a206164646974696f6e206f766572666c6f770000000000600082015250565b6000616029601b8361570b565b915061603482615ff3565b602082019050919050565b600060208201905081810360008301526160588161601c565b9050919050565b7f536166654d6174683a207375627472616374696f6e206f766572666c6f770000600082015250565b6000616095601e8361570b565b91506160a08261605f565b602082019050919050565b600060208201905081810360008301526160c481616088565b9050919050565b60006040820190506160e0600083018561541d565b6160ed6020830184614bda565b9392505050565b6000815190506161038161538a565b92915050565b60006020828403121561611f5761611e614c04565b5b600061612d848285016160f4565b91505092915050565b600060608201905061614b600083018661541d565b616158602083018561541d565b6161656040830184614bda565b949350505050565b7f5361666545524332303a204552433230206f7065726174696f6e20646964206e60008201527f6f74207375636365656400000000000000000000000000000000000000000000602082015250565b60006161c9602a8361570b565b91506161d48261616d565b604082019050919050565b600060208201905081810360008301526161f8816161bc565b9050919050565b7f416464726573733a20696e73756666696369656e742062616c616e636520666f60008201527f722063616c6c0000000000000000000000000000000000000000000000000000602082015250565b600061625b60268361570b565b9150616266826161ff565b604082019050919050565b6000602082019050818103600083015261628a8161624e565b9050919050565b7f416464726573733a2063616c6c20746f206e6f6e2d636f6e7472616374000000600082015250565b60006162c7601d8361570b565b91506162d282616291565b602082019050919050565b600060208201905081810360008301526162f6816162ba565b9050919050565b600081519050919050565b600081905092915050565b60005b83811015616331578082015181840152602081019050616316565b60008484015250505050565b6000616348826162fd565b6163528185616308565b9350616362818560208601616313565b80840191505092915050565b600061637a828461633d565b915081905092915050565b600081519050919050565b6000601f19601f8301169050919050565b60006163ac82616385565b6163b6818561570b565b93506163c6818560208601616313565b6163cf81616390565b840191505092915050565b600060208201905081810360008301526163f481846163a1565b90509291505056fea2646970667358221220d9186b860d3179977ffcc0ac0e7d302901cbd9982004194a709100f53a9c3c6f64736f6c634300081b0033","opcodes":"PUSH1 0x80 PUSH1 0x40 MSTORE PUSH2 0x7D0 PUSH1 0x9 SSTORE PUSH1 0x0 PUSH1 0xC SSTORE CALLVALUE DUP1 ISZERO PUSH2 0x1B JUMPI PUSH1 0x0 DUP1 REVERT JUMPDEST POP PUSH1 0x40 MLOAD PUSH2 0x6644 CODESIZE SUB DUP1 PUSH2 0x6644 DUP4 CODECOPY DUP2 DUP2 ADD PUSH1 0x40 MSTORE DUP2 ADD SWAP1 PUSH2 0x3D SWAP2 SWAP1 PUSH2 0x1D6 JUMP JUMPDEST PUSH2 0x59 PUSH2 0x4E PUSH2 0xA7 PUSH1 0x20 SHL PUSH1 0x20 SHR JUMP JUMPDEST PUSH2 0xAF PUSH1 0x20 SHL PUSH1 0x20 SHR JUMP JUMPDEST PUSH1 0x1 DUP1 DUP2 SWAP1 SSTORE POP DUP1 PUSH1 0x5 PUSH1 0x0 PUSH2 0x100 EXP DUP2 SLOAD DUP2 PUSH20 0xFFFFFFFFFFFFFFFFFFFFFFFFFFFFFFFFFFFFFFFF MUL NOT AND SWAP1 DUP4 PUSH20 0xFFFFFFFFFFFFFFFFFFFFFFFFFFFFFFFFFFFFFFFF AND MUL OR SWAP1 SSTORE POP POP PUSH2 0x203 JUMP JUMPDEST PUSH1 0x0 CALLER SWAP1 POP SWAP1 JUMP JUMPDEST PUSH1 0x0 DUP1 PUSH1 0x0 SWAP1 SLOAD SWAP1 PUSH2 0x100 EXP SWAP1 DIV PUSH20 0xFFFFFFFFFFFFFFFFFFFFFFFFFFFFFFFFFFFFFFFF AND SWAP1 POP DUP2 PUSH1 0x0 DUP1 PUSH2 0x100 EXP DUP2 SLOAD DUP2 PUSH20 0xFFFFFFFFFFFFFFFFFFFFFFFFFFFFFFFFFFFFFFFF MUL NOT AND SWAP1 DUP4 PUSH20 0xFFFFFFFFFFFFFFFFFFFFFFFFFFFFFFFFFFFFFFFF AND MUL OR SWAP1 SSTORE POP DUP2 PUSH20 0xFFFFFFFFFFFFFFFFFFFFFFFFFFFFFFFFFFFFFFFF AND DUP2 PUSH20 0xFFFFFFFFFFFFFFFFFFFFFFFFFFFFFFFFFFFFFFFF AND PUSH32 0x8BE0079C531659141344CD1FD0A4F28419497F9722A3DAAFE3B4186F6B6457E0 PUSH1 0x40 MLOAD PUSH1 0x40 MLOAD DUP1 SWAP2 SUB SWAP1 LOG3 POP POP JUMP JUMPDEST PUSH1 0x0 DUP1 REVERT JUMPDEST PUSH1 0x0 PUSH20 0xFFFFFFFFFFFFFFFFFFFFFFFFFFFFFFFFFFFFFFFF DUP3 AND SWAP1 POP SWAP2 SWAP1 POP JUMP JUMPDEST PUSH1 0x0 PUSH2 0x1A3 DUP3 PUSH2 0x178 JUMP JUMPDEST SWAP1 POP SWAP2 SWAP1 POP JUMP JUMPDEST PUSH2 0x1B3 DUP2 PUSH2 0x198 JUMP JUMPDEST DUP2 EQ PUSH2 0x1BE JUMPI PUSH1 0x0 DUP1 REVERT JUMPDEST POP JUMP JUMPDEST PUSH1 0x0 DUP2 MLOAD SWAP1 POP PUSH2 0x1D0 DUP2 PUSH2 0x1AA JUMP JUMPDEST SWAP3 SWAP2 POP POP JUMP JUMPDEST PUSH1 0x0 PUSH1 0x20 DUP3 DUP5 SUB SLT ISZERO PUSH2 0x1EC JUMPI PUSH2 0x1EB PUSH2 0x173 JUMP JUMPDEST JUMPDEST PUSH1 0x0 PUSH2 0x1FA DUP5 DUP3 DUP6 ADD PUSH2 0x1C1 JUMP JUMPDEST SWAP2 POP POP SWAP3 SWAP2 POP POP JUMP JUMPDEST PUSH2 0x6432 DUP1 PUSH2 0x212 PUSH1 0x0 CODECOPY PUSH1 0x0 RETURN INVALID PUSH1 0x80 PUSH1 0x40 MSTORE PUSH1 0x4 CALLDATASIZE LT PUSH2 0x281 JUMPI PUSH1 0x0 CALLDATALOAD PUSH1 0xE0 SHR DUP1 PUSH4 0x84E82A33 GT PUSH2 0x14F JUMPI DUP1 PUSH4 0xD1D0DC1C GT PUSH2 0xC1 JUMPI DUP1 PUSH4 0xF2FDE38B GT PUSH2 0x7A JUMPI DUP1 PUSH4 0xF2FDE38B EQ PUSH2 0xA29 JUMPI DUP1 PUSH4 0xF4D4C9D7 EQ PUSH2 0xA52 JUMPI DUP1 PUSH4 0xFC41AA09 EQ PUSH2 0xA7B JUMPI DUP1 PUSH4 0xFE7CE59F EQ PUSH2 0xAA4 JUMPI DUP1 PUSH4 0xFE9D2103 EQ PUSH2 0xACD JUMPI DUP1 PUSH4 0xFFAF98A0 EQ PUSH2 0xB0B JUMPI PUSH2 0x288 JUMP JUMPDEST DUP1 PUSH4 0xD1D0DC1C EQ PUSH2 0x900 JUMPI DUP1 PUSH4 0xD57D4AD5 EQ PUSH2 0x92B JUMPI DUP1 PUSH4 0xDA772971 EQ PUSH2 0x956 JUMPI DUP1 PUSH4 0xEFF22972 EQ PUSH2 0x97F JUMPI DUP1 PUSH4 0xF0B7DB4E EQ PUSH2 0x9BC JUMPI DUP1 PUSH4 0xF1B8DCAD EQ PUSH2 0x9E7 JUMPI PUSH2 0x288 JUMP JUMPDEST DUP1 PUSH4 0x9548CC17 GT PUSH2 0x113 JUMPI DUP1 PUSH4 0x9548CC17 EQ PUSH2 0x7DC JUMPI DUP1 PUSH4 0x9734C7D3 EQ PUSH2 0x805 JUMPI DUP1 PUSH4 0x9FDF3294 EQ PUSH2 0x82E JUMPI DUP1 PUSH4 0xA0E5F180 EQ PUSH2 0x86B JUMPI DUP1 PUSH4 0xC2CB5814 EQ PUSH2 0x896 JUMPI DUP1 PUSH4 0xC65B796A EQ PUSH2 0x8C1 JUMPI PUSH2 0x288 JUMP JUMPDEST DUP1 PUSH4 0x84E82A33 EQ PUSH2 0x6E0 JUMPI DUP1 PUSH4 0x8DA5CB5B EQ PUSH2 0x709 JUMPI DUP1 PUSH4 0x8DBB1E3A EQ PUSH2 0x734 JUMPI DUP1 PUSH4 0x91878760 EQ PUSH2 0x771 JUMPI DUP1 PUSH4 0x93F1A40B EQ PUSH2 0x79C JUMPI PUSH2 0x288 JUMP JUMPDEST DUP1 PUSH4 0x33299FEB GT PUSH2 0x1F3 JUMPI DUP1 PUSH4 0x6695A8C6 GT PUSH2 0x1AC JUMPI DUP1 PUSH4 0x6695A8C6 EQ PUSH2 0x5E4 JUMPI DUP1 PUSH4 0x6B613B0D EQ PUSH2 0x60D JUMPI DUP1 PUSH4 0x6C60756E EQ PUSH2 0x636 JUMPI DUP1 PUSH4 0x6F77D6AB EQ PUSH2 0x661 JUMPI DUP1 PUSH4 0x715018A6 EQ PUSH2 0x69E JUMPI DUP1 PUSH4 0x7C1D10A5 EQ PUSH2 0x6B5 JUMPI PUSH2 0x288 JUMP JUMPDEST DUP1 PUSH4 0x33299FEB EQ PUSH2 0x4C1 JUMPI DUP1 PUSH4 0x3B913EBA EQ PUSH2 0x4FE JUMPI DUP1 PUSH4 0x3C1D309F EQ PUSH2 0x527 JUMPI DUP1 PUSH4 0x3F489914 EQ PUSH2 0x565 JUMPI DUP1 PUSH4 0x5AC8BD86 EQ PUSH2 0x58E JUMPI DUP1 PUSH4 0x630B5BA1 EQ PUSH2 0x5CD JUMPI PUSH2 0x288 JUMP JUMPDEST DUP1 PUSH4 0xFCD8955 GT PUSH2 0x245 JUMPI DUP1 PUSH4 0xFCD8955 EQ PUSH2 0x386 JUMPI DUP1 PUSH4 0x102855FC EQ PUSH2 0x3C3 JUMPI DUP1 PUSH4 0x15146D13 EQ PUSH2 0x402 JUMPI DUP1 PUSH4 0x1526FE27 EQ PUSH2 0x42B JUMPI DUP1 PUSH4 0x155622A4 EQ PUSH2 0x46D JUMPI DUP1 PUSH4 0x17CAF6F1 EQ PUSH2 0x496 JUMPI PUSH2 0x288 JUMP JUMPDEST DUP1 PUSH4 0x81E3EDA EQ PUSH2 0x28D JUMPI DUP1 PUSH4 0x8FA95D4 EQ PUSH2 0x2B8 JUMPI DUP1 PUSH4 0xD15E044 EQ PUSH2 0x2E1 JUMPI DUP1 PUSH4 0xD2859BA EQ PUSH2 0x30C JUMPI DUP1 PUSH4 0xE36A254 EQ PUSH2 0x349 JUMPI PUSH2 0x288 JUMP JUMPDEST CALLDATASIZE PUSH2 0x288 JUMPI STOP JUMPDEST PUSH1 0x0 DUP1 REVERT JUMPDEST CALLVALUE DUP1 ISZERO PUSH2 0x299 JUMPI PUSH1 0x0 DUP1 REVERT JUMPDEST POP PUSH2 0x2A2 PUSH2 0xB34 JUMP JUMPDEST PUSH1 0x40 MLOAD PUSH2 0x2AF SWAP2 SWAP1 PUSH2 0x4BE9 JUMP JUMPDEST PUSH1 0x40 MLOAD DUP1 SWAP2 SUB SWAP1 RETURN JUMPDEST CALLVALUE DUP1 ISZERO PUSH2 0x2C4 JUMPI PUSH1 0x0 DUP1 REVERT JUMPDEST POP PUSH2 0x2DF PUSH1 0x4 DUP1 CALLDATASIZE SUB DUP2 ADD SWAP1 PUSH2 0x2DA SWAP2 SWAP1 PUSH2 0x4C42 JUMP JUMPDEST PUSH2 0xB41 JUMP JUMPDEST STOP JUMPDEST CALLVALUE DUP1 ISZERO PUSH2 0x2ED JUMPI PUSH1 0x0 DUP1 REVERT JUMPDEST POP PUSH2 0x2F6 PUSH2 0xD64 JUMP JUMPDEST PUSH1 0x40 MLOAD PUSH2 0x303 SWAP2 SWAP1 PUSH2 0x4BE9 JUMP JUMPDEST PUSH1 0x40 MLOAD DUP1 SWAP2 SUB SWAP1 RETURN JUMPDEST CALLVALUE DUP1 ISZERO PUSH2 0x318 JUMPI PUSH1 0x0 DUP1 REVERT JUMPDEST POP PUSH2 0x333 PUSH1 0x4 DUP1 CALLDATASIZE SUB DUP2 ADD SWAP1 PUSH2 0x32E SWAP2 SWAP1 PUSH2 0x4CF9 JUMP JUMPDEST PUSH2 0xD6B JUMP JUMPDEST PUSH1 0x40 MLOAD PUSH2 0x340 SWAP2 SWAP1 PUSH2 0x4BE9 JUMP JUMPDEST PUSH1 0x40 MLOAD DUP1 SWAP2 SUB SWAP1 RETURN JUMPDEST CALLVALUE DUP1 ISZERO PUSH2 0x355 JUMPI PUSH1 0x0 DUP1 REVERT JUMPDEST POP PUSH2 0x370 PUSH1 0x4 DUP1 CALLDATASIZE SUB DUP2 ADD SWAP1 PUSH2 0x36B SWAP2 SWAP1 PUSH2 0x4D4C JUMP JUMPDEST PUSH2 0xEB1 JUMP JUMPDEST PUSH1 0x40 MLOAD PUSH2 0x37D SWAP2 SWAP1 PUSH2 0x4E4A JUMP JUMPDEST PUSH1 0x40 MLOAD DUP1 SWAP2 SUB SWAP1 RETURN JUMPDEST CALLVALUE DUP1 ISZERO PUSH2 0x392 JUMPI PUSH1 0x0 DUP1 REVERT JUMPDEST POP PUSH2 0x3AD PUSH1 0x4 DUP1 CALLDATASIZE SUB DUP2 ADD SWAP1 PUSH2 0x3A8 SWAP2 SWAP1 PUSH2 0x4D4C JUMP JUMPDEST PUSH2 0x1039 JUMP JUMPDEST PUSH1 0x40 MLOAD PUSH2 0x3BA SWAP2 SWAP1 PUSH2 0x4F96 JUMP JUMPDEST PUSH1 0x40 MLOAD DUP1 SWAP2 SUB SWAP1 RETURN JUMPDEST CALLVALUE DUP1 ISZERO PUSH2 0x3CF JUMPI PUSH1 0x0 DUP1 REVERT JUMPDEST POP PUSH2 0x3EA PUSH1 0x4 DUP1 CALLDATASIZE SUB DUP2 ADD SWAP1 PUSH2 0x3E5 SWAP2 SWAP1 PUSH2 0x4FB8 JUMP JUMPDEST PUSH2 0x1128 JUMP JUMPDEST PUSH1 0x40 MLOAD PUSH2 0x3F9 SWAP4 SWAP3 SWAP2 SWAP1 PUSH2 0x501F JUMP JUMPDEST PUSH1 0x40 MLOAD DUP1 SWAP2 SUB SWAP1 RETURN JUMPDEST CALLVALUE DUP1 ISZERO PUSH2 0x40E JUMPI PUSH1 0x0 DUP1 REVERT JUMPDEST POP PUSH2 0x429 PUSH1 0x4 DUP1 CALLDATASIZE SUB DUP2 ADD SWAP1 PUSH2 0x424 SWAP2 SWAP1 PUSH2 0x4C42 JUMP JUMPDEST PUSH2 0x145D JUMP JUMPDEST STOP JUMPDEST CALLVALUE DUP1 ISZERO PUSH2 0x437 JUMPI PUSH1 0x0 DUP1 REVERT JUMPDEST POP PUSH2 0x452 PUSH1 0x4 DUP1 CALLDATASIZE SUB DUP2 ADD SWAP1 PUSH2 0x44D SWAP2 SWAP1 PUSH2 0x5056 JUMP JUMPDEST PUSH2 0x1554 JUMP JUMPDEST PUSH1 0x40 MLOAD PUSH2 0x464 SWAP7 SWAP6 SWAP5 SWAP4 SWAP3 SWAP2 SWAP1 PUSH2 0x50E2 JUMP JUMPDEST PUSH1 0x40 MLOAD DUP1 SWAP2 SUB SWAP1 RETURN JUMPDEST CALLVALUE DUP1 ISZERO PUSH2 0x479 JUMPI PUSH1 0x0 DUP1 REVERT JUMPDEST POP PUSH2 0x494 PUSH1 0x4 DUP1 CALLDATASIZE SUB DUP2 ADD SWAP1 PUSH2 0x48F SWAP2 SWAP1 PUSH2 0x4C42 JUMP JUMPDEST PUSH2 0x15C0 JUMP JUMPDEST STOP JUMPDEST CALLVALUE DUP1 ISZERO PUSH2 0x4A2 JUMPI PUSH1 0x0 DUP1 REVERT JUMPDEST POP PUSH2 0x4AB PUSH2 0x17C5 JUMP JUMPDEST PUSH1 0x40 MLOAD PUSH2 0x4B8 SWAP2 SWAP1 PUSH2 0x4BE9 JUMP JUMPDEST PUSH1 0x40 MLOAD DUP1 SWAP2 SUB SWAP1 RETURN JUMPDEST CALLVALUE DUP1 ISZERO PUSH2 0x4CD JUMPI PUSH1 0x0 DUP1 REVERT JUMPDEST POP PUSH2 0x4E8 PUSH1 0x4 DUP1 CALLDATASIZE SUB DUP2 ADD SWAP1 PUSH2 0x4E3 SWAP2 SWAP1 PUSH2 0x4C42 JUMP JUMPDEST PUSH2 0x17CB JUMP JUMPDEST PUSH1 0x40 MLOAD PUSH2 0x4F5 SWAP2 SWAP1 PUSH2 0x4BE9 JUMP JUMPDEST PUSH1 0x40 MLOAD DUP1 SWAP2 SUB SWAP1 RETURN JUMPDEST CALLVALUE DUP1 ISZERO PUSH2 0x50A JUMPI PUSH1 0x0 DUP1 REVERT JUMPDEST POP PUSH2 0x525 PUSH1 0x4 DUP1 CALLDATASIZE SUB DUP2 ADD SWAP1 PUSH2 0x520 SWAP2 SWAP1 PUSH2 0x5179 JUMP JUMPDEST PUSH2 0x1A08 JUMP JUMPDEST STOP JUMPDEST CALLVALUE DUP1 ISZERO PUSH2 0x533 JUMPI PUSH1 0x0 DUP1 REVERT JUMPDEST POP PUSH2 0x54E PUSH1 0x4 DUP1 CALLDATASIZE SUB DUP2 ADD SWAP1 PUSH2 0x549 SWAP2 SWAP1 PUSH2 0x5179 JUMP JUMPDEST PUSH2 0x1D3A JUMP JUMPDEST PUSH1 0x40 MLOAD PUSH2 0x55C SWAP3 SWAP2 SWAP1 PUSH2 0x51CC JUMP JUMPDEST PUSH1 0x40 MLOAD DUP1 SWAP2 SUB SWAP1 RETURN JUMPDEST CALLVALUE DUP1 ISZERO PUSH2 0x571 JUMPI PUSH1 0x0 DUP1 REVERT JUMPDEST POP PUSH2 0x58C PUSH1 0x4 DUP1 CALLDATASIZE SUB DUP2 ADD SWAP1 PUSH2 0x587 SWAP2 SWAP1 PUSH2 0x51F5 JUMP JUMPDEST PUSH2 0x1F21 JUMP JUMPDEST STOP JUMPDEST CALLVALUE DUP1 ISZERO PUSH2 0x59A JUMPI PUSH1 0x0 DUP1 REVERT JUMPDEST POP PUSH2 0x5B5 PUSH1 0x4 DUP1 CALLDATASIZE SUB DUP2 ADD SWAP1 PUSH2 0x5B0 SWAP2 SWAP1 PUSH2 0x5056 JUMP JUMPDEST PUSH2 0x2220 JUMP JUMPDEST PUSH1 0x40 MLOAD PUSH2 0x5C4 SWAP4 SWAP3 SWAP2 SWAP1 PUSH2 0x501F JUMP JUMPDEST PUSH1 0x40 MLOAD DUP1 SWAP2 SUB SWAP1 RETURN JUMPDEST CALLVALUE DUP1 ISZERO PUSH2 0x5D9 JUMPI PUSH1 0x0 DUP1 REVERT JUMPDEST POP PUSH2 0x5E2 PUSH2 0x225A JUMP JUMPDEST STOP JUMPDEST CALLVALUE DUP1 ISZERO PUSH2 0x5F0 JUMPI PUSH1 0x0 DUP1 REVERT JUMPDEST POP PUSH2 0x60B PUSH1 0x4 DUP1 CALLDATASIZE SUB DUP2 ADD SWAP1 PUSH2 0x606 SWAP2 SWAP1 PUSH2 0x5235 JUMP JUMPDEST PUSH2 0x2290 JUMP JUMPDEST STOP JUMPDEST CALLVALUE DUP1 ISZERO PUSH2 0x619 JUMPI PUSH1 0x0 DUP1 REVERT JUMPDEST POP PUSH2 0x634 PUSH1 0x4 DUP1 CALLDATASIZE SUB DUP2 ADD SWAP1 PUSH2 0x62F SWAP2 SWAP1 PUSH2 0x5275 JUMP JUMPDEST PUSH2 0x246A JUMP JUMPDEST STOP JUMPDEST CALLVALUE DUP1 ISZERO PUSH2 0x642 JUMPI PUSH1 0x0 DUP1 REVERT JUMPDEST POP PUSH2 0x64B PUSH2 0x27FE JUMP JUMPDEST PUSH1 0x40 MLOAD PUSH2 0x658 SWAP2 SWAP1 PUSH2 0x4BE9 JUMP JUMPDEST PUSH1 0x40 MLOAD DUP1 SWAP2 SUB SWAP1 RETURN JUMPDEST CALLVALUE DUP1 ISZERO PUSH2 0x66D JUMPI PUSH1 0x0 DUP1 REVERT JUMPDEST POP PUSH2 0x688 PUSH1 0x4 DUP1 CALLDATASIZE SUB DUP2 ADD SWAP1 PUSH2 0x683 SWAP2 SWAP1 PUSH2 0x4C42 JUMP JUMPDEST PUSH2 0x2804 JUMP JUMPDEST PUSH1 0x40 MLOAD PUSH2 0x695 SWAP2 SWAP1 PUSH2 0x52F7 JUMP JUMPDEST PUSH1 0x40 MLOAD DUP1 SWAP2 SUB SWAP1 RETURN JUMPDEST CALLVALUE DUP1 ISZERO PUSH2 0x6AA JUMPI PUSH1 0x0 DUP1 REVERT JUMPDEST POP PUSH2 0x6B3 PUSH2 0x2824 JUMP JUMPDEST STOP JUMPDEST CALLVALUE DUP1 ISZERO PUSH2 0x6C1 JUMPI PUSH1 0x0 DUP1 REVERT JUMPDEST POP PUSH2 0x6CA PUSH2 0x28AC JUMP JUMPDEST PUSH1 0x40 MLOAD PUSH2 0x6D7 SWAP2 SWAP1 PUSH2 0x4BE9 JUMP JUMPDEST PUSH1 0x40 MLOAD DUP1 SWAP2 SUB SWAP1 RETURN JUMPDEST CALLVALUE DUP1 ISZERO PUSH2 0x6EC JUMPI PUSH1 0x0 DUP1 REVERT JUMPDEST POP PUSH2 0x707 PUSH1 0x4 DUP1 CALLDATASIZE SUB DUP2 ADD SWAP1 PUSH2 0x702 SWAP2 SWAP1 PUSH2 0x53B6 JUMP JUMPDEST PUSH2 0x28B6 JUMP JUMPDEST STOP JUMPDEST CALLVALUE DUP1 ISZERO PUSH2 0x715 JUMPI PUSH1 0x0 DUP1 REVERT JUMPDEST POP PUSH2 0x71E PUSH2 0x2A9D JUMP JUMPDEST PUSH1 0x40 MLOAD PUSH2 0x72B SWAP2 SWAP1 PUSH2 0x542C JUMP JUMPDEST PUSH1 0x40 MLOAD DUP1 SWAP2 SUB SWAP1 RETURN JUMPDEST CALLVALUE DUP1 ISZERO PUSH2 0x740 JUMPI PUSH1 0x0 DUP1 REVERT JUMPDEST POP PUSH2 0x75B PUSH1 0x4 DUP1 CALLDATASIZE SUB DUP2 ADD SWAP1 PUSH2 0x756 SWAP2 SWAP1 PUSH2 0x5447 JUMP JUMPDEST PUSH2 0x2AC6 JUMP JUMPDEST PUSH1 0x40 MLOAD PUSH2 0x768 SWAP2 SWAP1 PUSH2 0x4BE9 JUMP JUMPDEST PUSH1 0x40 MLOAD DUP1 SWAP2 SUB SWAP1 RETURN JUMPDEST CALLVALUE DUP1 ISZERO PUSH2 0x77D JUMPI PUSH1 0x0 DUP1 REVERT JUMPDEST POP PUSH2 0x786 PUSH2 0x2AE3 JUMP JUMPDEST PUSH1 0x40 MLOAD PUSH2 0x793 SWAP2 SWAP1 PUSH2 0x4BE9 JUMP JUMPDEST PUSH1 0x40 MLOAD DUP1 SWAP2 SUB SWAP1 RETURN JUMPDEST CALLVALUE DUP1 ISZERO PUSH2 0x7A8 JUMPI PUSH1 0x0 DUP1 REVERT JUMPDEST POP PUSH2 0x7C3 PUSH1 0x4 DUP1 CALLDATASIZE SUB DUP2 ADD SWAP1 PUSH2 0x7BE SWAP2 SWAP1 PUSH2 0x5487 JUMP JUMPDEST PUSH2 0x2C2C JUMP JUMPDEST PUSH1 0x40 MLOAD PUSH2 0x7D3 SWAP5 SWAP4 SWAP3 SWAP2 SWAP1 PUSH2 0x54C7 JUMP JUMPDEST PUSH1 0x40 MLOAD DUP1 SWAP2 SUB SWAP1 RETURN JUMPDEST CALLVALUE DUP1 ISZERO PUSH2 0x7E8 JUMPI PUSH1 0x0 DUP1 REVERT JUMPDEST POP PUSH2 0x803 PUSH1 0x4 DUP1 CALLDATASIZE SUB DUP2 ADD SWAP1 PUSH2 0x7FE SWAP2 SWAP1 PUSH2 0x550C JUMP JUMPDEST PUSH2 0x2C69 JUMP JUMPDEST STOP JUMPDEST CALLVALUE DUP1 ISZERO PUSH2 0x811 JUMPI PUSH1 0x0 DUP1 REVERT JUMPDEST POP PUSH2 0x82C PUSH1 0x4 DUP1 CALLDATASIZE SUB DUP2 ADD SWAP1 PUSH2 0x827 SWAP2 SWAP1 PUSH2 0x554C JUMP JUMPDEST PUSH2 0x301E JUMP JUMPDEST STOP JUMPDEST CALLVALUE DUP1 ISZERO PUSH2 0x83A JUMPI PUSH1 0x0 DUP1 REVERT JUMPDEST POP PUSH2 0x855 PUSH1 0x4 DUP1 CALLDATASIZE SUB DUP2 ADD SWAP1 PUSH2 0x850 SWAP2 SWAP1 PUSH2 0x550C JUMP JUMPDEST PUSH2 0x30CF JUMP JUMPDEST PUSH1 0x40 MLOAD PUSH2 0x862 SWAP2 SWAP1 PUSH2 0x4BE9 JUMP JUMPDEST PUSH1 0x40 MLOAD DUP1 SWAP2 SUB SWAP1 RETURN JUMPDEST CALLVALUE DUP1 ISZERO PUSH2 0x877 JUMPI PUSH1 0x0 DUP1 REVERT JUMPDEST POP PUSH2 0x880 PUSH2 0x3234 JUMP JUMPDEST PUSH1 0x40 MLOAD PUSH2 0x88D SWAP2 SWAP1 PUSH2 0x4BE9 JUMP JUMPDEST PUSH1 0x40 MLOAD DUP1 SWAP2 SUB SWAP1 RETURN JUMPDEST CALLVALUE DUP1 ISZERO PUSH2 0x8A2 JUMPI PUSH1 0x0 DUP1 REVERT JUMPDEST POP PUSH2 0x8AB PUSH2 0x323A JUMP JUMPDEST PUSH1 0x40 MLOAD PUSH2 0x8B8 SWAP2 SWAP1 PUSH2 0x4BE9 JUMP JUMPDEST PUSH1 0x40 MLOAD DUP1 SWAP2 SUB SWAP1 RETURN JUMPDEST CALLVALUE DUP1 ISZERO PUSH2 0x8CD JUMPI PUSH1 0x0 DUP1 REVERT JUMPDEST POP PUSH2 0x8E8 PUSH1 0x4 DUP1 CALLDATASIZE SUB DUP2 ADD SWAP1 PUSH2 0x8E3 SWAP2 SWAP1 PUSH2 0x4CF9 JUMP JUMPDEST PUSH2 0x3240 JUMP JUMPDEST PUSH1 0x40 MLOAD PUSH2 0x8F7 SWAP4 SWAP3 SWAP2 SWAP1 PUSH2 0x501F JUMP JUMPDEST PUSH1 0x40 MLOAD DUP1 SWAP2 SUB SWAP1 RETURN JUMPDEST CALLVALUE DUP1 ISZERO PUSH2 0x90C JUMPI PUSH1 0x0 DUP1 REVERT JUMPDEST POP PUSH2 0x915 PUSH2 0x3695 JUMP JUMPDEST PUSH1 0x40 MLOAD PUSH2 0x922 SWAP2 SWAP1 PUSH2 0x4BE9 JUMP JUMPDEST PUSH1 0x40 MLOAD DUP1 SWAP2 SUB SWAP1 RETURN JUMPDEST CALLVALUE DUP1 ISZERO PUSH2 0x937 JUMPI PUSH1 0x0 DUP1 REVERT JUMPDEST POP PUSH2 0x940 PUSH2 0x369B JUMP JUMPDEST PUSH1 0x40 MLOAD PUSH2 0x94D SWAP2 SWAP1 PUSH2 0x4BE9 JUMP JUMPDEST PUSH1 0x40 MLOAD DUP1 SWAP2 SUB SWAP1 RETURN JUMPDEST CALLVALUE DUP1 ISZERO PUSH2 0x962 JUMPI PUSH1 0x0 DUP1 REVERT JUMPDEST POP PUSH2 0x97D PUSH1 0x4 DUP1 CALLDATASIZE SUB DUP2 ADD SWAP1 PUSH2 0x978 SWAP2 SWAP1 PUSH2 0x558C JUMP JUMPDEST PUSH2 0x36A0 JUMP JUMPDEST STOP JUMPDEST CALLVALUE DUP1 ISZERO PUSH2 0x98B JUMPI PUSH1 0x0 DUP1 REVERT JUMPDEST POP PUSH2 0x9A6 PUSH1 0x4 DUP1 CALLDATASIZE SUB DUP2 ADD SWAP1 PUSH2 0x9A1 SWAP2 SWAP1 PUSH2 0x4D4C JUMP JUMPDEST PUSH2 0x382A JUMP JUMPDEST PUSH1 0x40 MLOAD PUSH2 0x9B3 SWAP2 SWAP1 PUSH2 0x52F7 JUMP JUMPDEST PUSH1 0x40 MLOAD DUP1 SWAP2 SUB SWAP1 RETURN JUMPDEST CALLVALUE DUP1 ISZERO PUSH2 0x9C8 JUMPI PUSH1 0x0 DUP1 REVERT JUMPDEST POP PUSH2 0x9D1 PUSH2 0x3893 JUMP JUMPDEST PUSH1 0x40 MLOAD PUSH2 0x9DE SWAP2 SWAP1 PUSH2 0x542C JUMP JUMPDEST PUSH1 0x40 MLOAD DUP1 SWAP2 SUB SWAP1 RETURN JUMPDEST CALLVALUE DUP1 ISZERO PUSH2 0x9F3 JUMPI PUSH1 0x0 DUP1 REVERT JUMPDEST POP PUSH2 0xA0E PUSH1 0x4 DUP1 CALLDATASIZE SUB DUP2 ADD SWAP1 PUSH2 0xA09 SWAP2 SWAP1 PUSH2 0x55F3 JUMP JUMPDEST PUSH2 0x38B9 JUMP JUMPDEST PUSH1 0x40 MLOAD PUSH2 0xA20 SWAP7 SWAP6 SWAP5 SWAP4 SWAP3 SWAP2 SWAP1 PUSH2 0x5646 JUMP JUMPDEST PUSH1 0x40 MLOAD DUP1 SWAP2 SUB SWAP1 RETURN JUMPDEST CALLVALUE DUP1 ISZERO PUSH2 0xA35 JUMPI PUSH1 0x0 DUP1 REVERT JUMPDEST POP PUSH2 0xA50 PUSH1 0x4 DUP1 CALLDATASIZE SUB DUP2 ADD SWAP1 PUSH2 0xA4B SWAP2 SWAP1 PUSH2 0x56A7 JUMP JUMPDEST PUSH2 0x391F JUMP JUMPDEST STOP JUMPDEST CALLVALUE DUP1 ISZERO PUSH2 0xA5E JUMPI PUSH1 0x0 DUP1 REVERT JUMPDEST POP PUSH2 0xA79 PUSH1 0x4 DUP1 CALLDATASIZE SUB DUP2 ADD SWAP1 PUSH2 0xA74 SWAP2 SWAP1 PUSH2 0x51F5 JUMP JUMPDEST PUSH2 0x3A16 JUMP JUMPDEST STOP JUMPDEST CALLVALUE DUP1 ISZERO PUSH2 0xA87 JUMPI PUSH1 0x0 DUP1 REVERT JUMPDEST POP PUSH2 0xAA2 PUSH1 0x4 DUP1 CALLDATASIZE SUB DUP2 ADD SWAP1 PUSH2 0xA9D SWAP2 SWAP1 PUSH2 0x5447 JUMP JUMPDEST PUSH2 0x3D9D JUMP JUMPDEST STOP JUMPDEST CALLVALUE DUP1 ISZERO PUSH2 0xAB0 JUMPI PUSH1 0x0 DUP1 REVERT JUMPDEST POP PUSH2 0xACB PUSH1 0x4 DUP1 CALLDATASIZE SUB DUP2 ADD SWAP1 PUSH2 0xAC6 SWAP2 SWAP1 PUSH2 0x5235 JUMP JUMPDEST PUSH2 0x4061 JUMP JUMPDEST STOP JUMPDEST CALLVALUE DUP1 ISZERO PUSH2 0xAD9 JUMPI PUSH1 0x0 DUP1 REVERT JUMPDEST POP PUSH2 0xAF4 PUSH1 0x4 DUP1 CALLDATASIZE SUB DUP2 ADD SWAP1 PUSH2 0xAEF SWAP2 SWAP1 PUSH2 0x4D4C JUMP JUMPDEST PUSH2 0x4139 JUMP JUMPDEST PUSH1 0x40 MLOAD PUSH2 0xB02 SWAP3 SWAP2 SWAP1 PUSH2 0x56D4 JUMP JUMPDEST PUSH1 0x40 MLOAD DUP1 SWAP2 SUB SWAP1 RETURN JUMPDEST CALLVALUE DUP1 ISZERO PUSH2 0xB17 JUMPI PUSH1 0x0 DUP1 REVERT JUMPDEST POP PUSH2 0xB32 PUSH1 0x4 DUP1 CALLDATASIZE SUB DUP2 ADD SWAP1 PUSH2 0xB2D SWAP2 SWAP1 PUSH2 0x5056 JUMP JUMPDEST PUSH2 0x433F JUMP JUMPDEST STOP JUMPDEST PUSH1 0x0 PUSH1 0xA DUP1 SLOAD SWAP1 POP SWAP1 POP SWAP1 JUMP JUMPDEST PUSH1 0x1 ISZERO ISZERO PUSH1 0xD PUSH1 0x0 DUP4 PUSH1 0xFF AND PUSH1 0xFF AND DUP2 MSTORE PUSH1 0x20 ADD SWAP1 DUP2 MSTORE PUSH1 0x20 ADD PUSH1 0x0 KECCAK256 PUSH1 0x0 SWAP1 SLOAD SWAP1 PUSH2 0x100 EXP SWAP1 DIV PUSH1 0xFF AND ISZERO ISZERO EQ PUSH2 0xBAE JUMPI PUSH1 0x40 MLOAD PUSH32 0x8C379A000000000000000000000000000000000000000000000000000000000 DUP2 MSTORE PUSH1 0x4 ADD PUSH2 0xBA5 SWAP1 PUSH2 0x5768 JUMP JUMPDEST PUSH1 0x40 MLOAD DUP1 SWAP2 SUB SWAP1 REVERT JUMPDEST PUSH1 0x0 PUSH1 0xA DUP3 PUSH1 0xFF AND DUP2 SLOAD DUP2 LT PUSH2 0xBC7 JUMPI PUSH2 0xBC6 PUSH2 0x5788 JUMP JUMPDEST JUMPDEST SWAP1 PUSH1 0x0 MSTORE PUSH1 0x20 PUSH1 0x0 KECCAK256 SWAP1 PUSH1 0x6 MUL ADD SWAP1 POP DUP1 PUSH1 0x2 ADD SLOAD NUMBER GT PUSH2 0xBE8 JUMPI POP PUSH2 0xD61 JUMP JUMPDEST PUSH1 0x0 DUP2 PUSH1 0x0 ADD PUSH1 0x0 SWAP1 SLOAD SWAP1 PUSH2 0x100 EXP SWAP1 DIV PUSH20 0xFFFFFFFFFFFFFFFFFFFFFFFFFFFFFFFFFFFFFFFF AND PUSH20 0xFFFFFFFFFFFFFFFFFFFFFFFFFFFFFFFFFFFFFFFF AND PUSH4 0x70A08231 ADDRESS PUSH1 0x40 MLOAD DUP3 PUSH4 0xFFFFFFFF AND PUSH1 0xE0 SHL DUP2 MSTORE PUSH1 0x4 ADD PUSH2 0xC47 SWAP2 SWAP1 PUSH2 0x542C JUMP JUMPDEST PUSH1 0x20 PUSH1 0x40 MLOAD DUP1 DUP4 SUB DUP2 DUP7 GAS STATICCALL ISZERO DUP1 ISZERO PUSH2 0xC64 JUMPI RETURNDATASIZE PUSH1 0x0 DUP1 RETURNDATACOPY RETURNDATASIZE PUSH1 0x0 REVERT JUMPDEST POP POP POP POP PUSH1 0x40 MLOAD RETURNDATASIZE PUSH1 0x1F NOT PUSH1 0x1F DUP3 ADD AND DUP3 ADD DUP1 PUSH1 0x40 MSTORE POP DUP2 ADD SWAP1 PUSH2 0xC88 SWAP2 SWAP1 PUSH2 0x57CC JUMP JUMPDEST SWAP1 POP PUSH1 0x0 DUP2 EQ DUP1 PUSH2 0xC9D JUMPI POP PUSH1 0x0 DUP3 PUSH1 0x1 ADD SLOAD EQ JUMPDEST ISZERO PUSH2 0xCB2 JUMPI NUMBER DUP3 PUSH1 0x2 ADD DUP2 SWAP1 SSTORE POP POP POP PUSH2 0xD61 JUMP JUMPDEST PUSH1 0x0 PUSH2 0xCE7 PUSH1 0xC SLOAD PUSH2 0xCD9 DUP6 PUSH1 0x1 ADD SLOAD PUSH2 0xCCB DUP9 PUSH2 0x17CB JUMP JUMPDEST PUSH2 0x440A SWAP1 SWAP2 SWAP1 PUSH4 0xFFFFFFFF AND JUMP JUMPDEST PUSH2 0x4484 SWAP1 SWAP2 SWAP1 PUSH4 0xFFFFFFFF AND JUMP JUMPDEST SWAP1 POP PUSH2 0xD00 DUP4 PUSH1 0x5 ADD SLOAD DUP3 PUSH2 0x44DC SWAP1 SWAP2 SWAP1 PUSH4 0xFFFFFFFF AND JUMP JUMPDEST SWAP1 POP PUSH1 0x0 DUP4 PUSH1 0x5 ADD DUP2 SWAP1 SSTORE POP PUSH2 0xD4C PUSH2 0xD39 DUP4 PUSH2 0xD2B PUSH5 0xE8D4A51000 DUP6 PUSH2 0x440A SWAP1 SWAP2 SWAP1 PUSH4 0xFFFFFFFF AND JUMP JUMPDEST PUSH2 0x4484 SWAP1 SWAP2 SWAP1 PUSH4 0xFFFFFFFF AND JUMP JUMPDEST DUP5 PUSH1 0x3 ADD SLOAD PUSH2 0x44DC SWAP1 SWAP2 SWAP1 PUSH4 0xFFFFFFFF AND JUMP JUMPDEST DUP4 PUSH1 0x3 ADD DUP2 SWAP1 SSTORE POP NUMBER DUP4 PUSH1 0x2 ADD DUP2 SWAP1 SSTORE POP POP POP POP JUMPDEST POP JUMP JUMPDEST PUSH3 0x15180 DUP2 JUMP JUMPDEST PUSH1 0x0 DUP1 PUSH1 0x3 PUSH1 0x0 DUP6 PUSH20 0xFFFFFFFFFFFFFFFFFFFFFFFFFFFFFFFFFFFFFFFF AND PUSH20 0xFFFFFFFFFFFFFFFFFFFFFFFFFFFFFFFFFFFFFFFF AND DUP2 MSTORE PUSH1 0x20 ADD SWAP1 DUP2 MSTORE PUSH1 0x20 ADD PUSH1 0x0 KECCAK256 PUSH1 0x0 DUP7 PUSH1 0xFF AND DUP2 MSTORE PUSH1 0x20 ADD SWAP1 DUP2 MSTORE PUSH1 0x20 ADD PUSH1 0x0 KECCAK256 DUP4 DUP2 SLOAD DUP2 LT PUSH2 0xDD3 JUMPI PUSH2 0xDD2 PUSH2 0x5788 JUMP JUMPDEST JUMPDEST SWAP1 PUSH1 0x0 MSTORE PUSH1 0x20 PUSH1 0x0 KECCAK256 SWAP1 PUSH1 0x6 MUL ADD SWAP1 POP DUP1 PUSH1 0x3 ADD SLOAD TIMESTAMP LT ISZERO PUSH2 0xDFA JUMPI PUSH1 0x9 SLOAD SWAP2 POP POP PUSH2 0xEAA JUMP JUMPDEST PUSH1 0x0 PUSH2 0xE13 DUP3 PUSH1 0x3 ADD SLOAD TIMESTAMP PUSH2 0x453A SWAP1 SWAP2 SWAP1 PUSH4 0xFFFFFFFF AND JUMP JUMPDEST SWAP1 POP PUSH1 0x0 PUSH2 0xE2D PUSH3 0x15180 DUP4 PUSH2 0x4484 SWAP1 SWAP2 SWAP1 PUSH4 0xFFFFFFFF AND JUMP JUMPDEST SWAP1 POP PUSH2 0xE56 PUSH1 0x64 PUSH2 0xE48 PUSH1 0x1 DUP5 PUSH2 0x44DC SWAP1 SWAP2 SWAP1 PUSH4 0xFFFFFFFF AND JUMP JUMPDEST PUSH2 0x440A SWAP1 SWAP2 SWAP1 PUSH4 0xFFFFFFFF AND JUMP JUMPDEST PUSH1 0x9 SLOAD GT ISZERO PUSH2 0xEA1 JUMPI PUSH2 0xE9A PUSH2 0xE89 PUSH1 0x64 PUSH2 0xE7B PUSH1 0x1 DUP6 PUSH2 0x44DC SWAP1 SWAP2 SWAP1 PUSH4 0xFFFFFFFF AND JUMP JUMPDEST PUSH2 0x440A SWAP1 SWAP2 SWAP1 PUSH4 0xFFFFFFFF AND JUMP JUMPDEST PUSH1 0x9 SLOAD PUSH2 0x453A SWAP1 SWAP2 SWAP1 PUSH4 0xFFFFFFFF AND JUMP JUMPDEST SWAP4 POP PUSH2 0xEA6 JUMP JUMPDEST PUSH1 0x0 SWAP4 POP JUMPDEST POP POP POP JUMPDEST SWAP4 SWAP3 POP POP POP JUMP JUMPDEST PUSH1 0x60 PUSH1 0x0 PUSH1 0x3 PUSH1 0x0 DUP5 PUSH20 0xFFFFFFFFFFFFFFFFFFFFFFFFFFFFFFFFFFFFFFFF AND PUSH20 0xFFFFFFFFFFFFFFFFFFFFFFFFFFFFFFFFFFFFFFFF AND DUP2 MSTORE PUSH1 0x20 ADD SWAP1 DUP2 MSTORE PUSH1 0x20 ADD PUSH1 0x0 KECCAK256 PUSH1 0x0 DUP6 PUSH1 0xFF AND DUP2 MSTORE PUSH1 0x20 ADD SWAP1 DUP2 MSTORE PUSH1 0x20 ADD PUSH1 0x0 KECCAK256 DUP1 SLOAD DUP1 PUSH1 0x20 MUL PUSH1 0x20 ADD PUSH1 0x40 MLOAD SWAP1 DUP2 ADD PUSH1 0x40 MSTORE DUP1 SWAP3 SWAP2 SWAP1 DUP2 DUP2 MSTORE PUSH1 0x20 ADD PUSH1 0x0 SWAP1 JUMPDEST DUP3 DUP3 LT ISZERO PUSH2 0xF96 JUMPI DUP4 DUP3 SWAP1 PUSH1 0x0 MSTORE PUSH1 0x20 PUSH1 0x0 KECCAK256 SWAP1 PUSH1 0x6 MUL ADD PUSH1 0x40 MLOAD DUP1 PUSH1 0xC0 ADD PUSH1 0x40 MSTORE SWAP1 DUP2 PUSH1 0x0 DUP3 ADD SLOAD DUP2 MSTORE PUSH1 0x20 ADD PUSH1 0x1 DUP3 ADD SLOAD DUP2 MSTORE PUSH1 0x20 ADD PUSH1 0x2 DUP3 ADD SLOAD DUP2 MSTORE PUSH1 0x20 ADD PUSH1 0x3 DUP3 ADD SLOAD DUP2 MSTORE PUSH1 0x20 ADD PUSH1 0x4 DUP3 ADD SLOAD DUP2 MSTORE PUSH1 0x20 ADD PUSH1 0x5 DUP3 ADD SLOAD DUP2 MSTORE POP POP DUP2 MSTORE PUSH1 0x20 ADD SWAP1 PUSH1 0x1 ADD SWAP1 PUSH2 0xF28 JUMP JUMPDEST POP POP POP POP SWAP1 POP PUSH1 0x0 DUP2 MLOAD PUSH8 0xFFFFFFFFFFFFFFFF DUP2 GT ISZERO PUSH2 0xFB9 JUMPI PUSH2 0xFB8 PUSH2 0x57F9 JUMP JUMPDEST JUMPDEST PUSH1 0x40 MLOAD SWAP1 DUP1 DUP3 MSTORE DUP1 PUSH1 0x20 MUL PUSH1 0x20 ADD DUP3 ADD PUSH1 0x40 MSTORE DUP1 ISZERO PUSH2 0xFE7 JUMPI DUP2 PUSH1 0x20 ADD PUSH1 0x20 DUP3 MUL DUP1 CALLDATASIZE DUP4 CALLDATACOPY DUP1 DUP3 ADD SWAP2 POP POP SWAP1 POP JUMPDEST POP SWAP1 POP PUSH1 0x0 JUMPDEST DUP3 MLOAD DUP2 LT ISZERO PUSH2 0x102D JUMPI PUSH2 0x1001 DUP7 DUP7 DUP4 PUSH2 0xD6B JUMP JUMPDEST DUP3 DUP3 DUP2 MLOAD DUP2 LT PUSH2 0x1014 JUMPI PUSH2 0x1013 PUSH2 0x5788 JUMP JUMPDEST JUMPDEST PUSH1 0x20 MUL PUSH1 0x20 ADD ADD DUP2 DUP2 MSTORE POP POP DUP1 DUP1 PUSH1 0x1 ADD SWAP2 POP POP PUSH2 0xFED JUMP JUMPDEST POP DUP1 SWAP3 POP POP POP SWAP3 SWAP2 POP POP JUMP JUMPDEST PUSH1 0x60 PUSH1 0x3 PUSH1 0x0 DUP4 PUSH20 0xFFFFFFFFFFFFFFFFFFFFFFFFFFFFFFFFFFFFFFFF AND PUSH20 0xFFFFFFFFFFFFFFFFFFFFFFFFFFFFFFFFFFFFFFFF AND DUP2 MSTORE PUSH1 0x20 ADD SWAP1 DUP2 MSTORE PUSH1 0x20 ADD PUSH1 0x0 KECCAK256 PUSH1 0x0 DUP5 PUSH1 0xFF AND DUP2 MSTORE PUSH1 0x20 ADD SWAP1 DUP2 MSTORE PUSH1 0x20 ADD PUSH1 0x0 KECCAK256 DUP1 SLOAD DUP1 PUSH1 0x20 MUL PUSH1 0x20 ADD PUSH1 0x40 MLOAD SWAP1 DUP2 ADD PUSH1 0x40 MSTORE DUP1 SWAP3 SWAP2 SWAP1 DUP2 DUP2 MSTORE PUSH1 0x20 ADD PUSH1 0x0 SWAP1 JUMPDEST DUP3 DUP3 LT ISZERO PUSH2 0x111C JUMPI DUP4 DUP3 SWAP1 PUSH1 0x0 MSTORE PUSH1 0x20 PUSH1 0x0 KECCAK256 SWAP1 PUSH1 0x6 MUL ADD PUSH1 0x40 MLOAD DUP1 PUSH1 0xC0 ADD PUSH1 0x40 MSTORE SWAP1 DUP2 PUSH1 0x0 DUP3 ADD SLOAD DUP2 MSTORE PUSH1 0x20 ADD PUSH1 0x1 DUP3 ADD SLOAD DUP2 MSTORE PUSH1 0x20 ADD PUSH1 0x2 DUP3 ADD SLOAD DUP2 MSTORE PUSH1 0x20 ADD PUSH1 0x3 DUP3 ADD SLOAD DUP2 MSTORE PUSH1 0x20 ADD PUSH1 0x4 DUP3 ADD SLOAD DUP2 MSTORE PUSH1 0x20 ADD PUSH1 0x5 DUP3 ADD SLOAD DUP2 MSTORE POP POP DUP2 MSTORE PUSH1 0x20 ADD SWAP1 PUSH1 0x1 ADD SWAP1 PUSH2 0x10AE JUMP JUMPDEST POP POP POP POP SWAP1 POP SWAP3 SWAP2 POP POP JUMP JUMPDEST PUSH1 0x0 DUP1 PUSH1 0x0 DUP1 PUSH1 0x0 DUP1 PUSH1 0xA DUP11 PUSH1 0xFF AND DUP2 SLOAD DUP2 LT PUSH2 0x1148 JUMPI PUSH2 0x1147 PUSH2 0x5788 JUMP JUMPDEST JUMPDEST SWAP1 PUSH1 0x0 MSTORE PUSH1 0x20 PUSH1 0x0 KECCAK256 SWAP1 PUSH1 0x6 MUL ADD SWAP1 POP PUSH1 0x0 PUSH1 0xB PUSH1 0x0 DUP13 PUSH1 0xFF AND DUP2 MSTORE PUSH1 0x20 ADD SWAP1 DUP2 MSTORE PUSH1 0x20 ADD PUSH1 0x0 KECCAK256 PUSH1 0x0 DUP12 PUSH20 0xFFFFFFFFFFFFFFFFFFFFFFFFFFFFFFFFFFFFFFFF AND PUSH20 0xFFFFFFFFFFFFFFFFFFFFFFFFFFFFFFFFFFFFFFFF AND DUP2 MSTORE PUSH1 0x20 ADD SWAP1 DUP2 MSTORE PUSH1 0x20 ADD PUSH1 0x0 KECCAK256 SWAP1 POP PUSH1 0x0 PUSH1 0x3 PUSH1 0x0 DUP13 PUSH20 0xFFFFFFFFFFFFFFFFFFFFFFFFFFFFFFFFFFFFFFFF AND PUSH20 0xFFFFFFFFFFFFFFFFFFFFFFFFFFFFFFFFFFFFFFFF AND DUP2 MSTORE PUSH1 0x20 ADD SWAP1 DUP2 MSTORE PUSH1 0x20 ADD PUSH1 0x0 KECCAK256 PUSH1 0x0 DUP14 PUSH1 0xFF AND DUP2 MSTORE PUSH1 0x20 ADD SWAP1 DUP2 MSTORE PUSH1 0x20 ADD PUSH1 0x0 KECCAK256 DUP10 DUP2 SLOAD DUP2 LT PUSH2 0x1216 JUMPI PUSH2 0x1215 PUSH2 0x5788 JUMP JUMPDEST JUMPDEST SWAP1 PUSH1 0x0 MSTORE PUSH1 0x20 PUSH1 0x0 KECCAK256 SWAP1 PUSH1 0x6 MUL ADD PUSH1 0x40 MLOAD DUP1 PUSH1 0xC0 ADD PUSH1 0x40 MSTORE SWAP1 DUP2 PUSH1 0x0 DUP3 ADD SLOAD DUP2 MSTORE PUSH1 0x20 ADD PUSH1 0x1 DUP3 ADD SLOAD DUP2 MSTORE PUSH1 0x20 ADD PUSH1 0x2 DUP3 ADD SLOAD DUP2 MSTORE PUSH1 0x20 ADD PUSH1 0x3 DUP3 ADD SLOAD DUP2 MSTORE PUSH1 0x20 ADD PUSH1 0x4 DUP3 ADD SLOAD DUP2 MSTORE PUSH1 0x20 ADD PUSH1 0x5 DUP3 ADD SLOAD DUP2 MSTORE POP POP SWAP1 POP PUSH2 0x134A PUSH2 0x133B DUP5 PUSH1 0x0 ADD PUSH1 0x0 SWAP1 SLOAD SWAP1 PUSH2 0x100 EXP SWAP1 DIV PUSH20 0xFFFFFFFFFFFFFFFFFFFFFFFFFFFFFFFFFFFFFFFF AND PUSH20 0xFFFFFFFFFFFFFFFFFFFFFFFFFFFFFFFFFFFFFFFF AND PUSH4 0x70A08231 ADDRESS PUSH1 0x40 MLOAD DUP3 PUSH4 0xFFFFFFFF AND PUSH1 0xE0 SHL DUP2 MSTORE PUSH1 0x4 ADD PUSH2 0x12D0 SWAP2 SWAP1 PUSH2 0x542C JUMP JUMPDEST PUSH1 0x20 PUSH1 0x40 MLOAD DUP1 DUP4 SUB DUP2 DUP7 GAS STATICCALL ISZERO DUP1 ISZERO PUSH2 0x12ED JUMPI RETURNDATASIZE PUSH1 0x0 DUP1 RETURNDATACOPY RETURNDATASIZE PUSH1 0x0 REVERT JUMPDEST POP POP POP POP PUSH1 0x40 MLOAD RETURNDATASIZE PUSH1 0x1F NOT PUSH1 0x1F DUP3 ADD AND DUP3 ADD DUP1 PUSH1 0x40 MSTORE POP DUP2 ADD SWAP1 PUSH2 0x1311 SWAP2 SWAP1 PUSH2 0x57CC JUMP JUMPDEST PUSH2 0x132D PUSH5 0xE8D4A51000 DUP7 PUSH1 0x3 ADD SLOAD PUSH2 0x440A SWAP1 SWAP2 SWAP1 PUSH4 0xFFFFFFFF AND JUMP JUMPDEST PUSH2 0x4484 SWAP1 SWAP2 SWAP1 PUSH4 0xFFFFFFFF AND JUMP JUMPDEST DUP12 PUSH2 0x453A SWAP1 SWAP2 SWAP1 PUSH4 0xFFFFFFFF AND JUMP JUMPDEST SWAP10 POP PUSH2 0x137E PUSH5 0xE8D4A51000 PUSH2 0x1370 DUP4 PUSH1 0x80 ADD MLOAD DUP5 PUSH1 0x20 ADD MLOAD PUSH2 0x440A SWAP1 SWAP2 SWAP1 PUSH4 0xFFFFFFFF AND JUMP JUMPDEST PUSH2 0x4484 SWAP1 SWAP2 SWAP1 PUSH4 0xFFFFFFFF AND JUMP JUMPDEST SWAP4 POP PUSH2 0x13AE PUSH5 0xE8D4A51000 PUSH2 0x13A0 DUP13 DUP5 PUSH1 0x20 ADD MLOAD PUSH2 0x440A SWAP1 SWAP2 SWAP1 PUSH4 0xFFFFFFFF AND JUMP JUMPDEST PUSH2 0x4484 SWAP1 SWAP2 SWAP1 PUSH4 0xFFFFFFFF AND JUMP JUMPDEST SWAP8 POP DUP8 DUP5 GT ISZERO PUSH2 0x13CD JUMPI PUSH1 0x0 DUP1 PUSH1 0x0 SWAP8 POP SWAP8 POP SWAP8 POP POP POP POP POP POP PUSH2 0x1453 JUMP JUMPDEST PUSH2 0x13E0 DUP5 DUP10 PUSH2 0x453A SWAP1 SWAP2 SWAP1 PUSH4 0xFFFFFFFF AND JUMP JUMPDEST SWAP8 POP TIMESTAMP DUP2 PUSH1 0x60 ADD MLOAD GT ISZERO PUSH2 0x1402 JUMPI DUP8 PUSH1 0x0 DUP1 SWAP8 POP SWAP8 POP SWAP8 POP POP POP POP POP POP PUSH2 0x1453 JUMP JUMPDEST PUSH2 0x140D DUP13 DUP13 DUP12 PUSH2 0xD6B JUMP JUMPDEST SWAP5 POP PUSH2 0x1436 PUSH2 0x2710 PUSH2 0x1428 DUP8 DUP12 PUSH2 0x440A SWAP1 SWAP2 SWAP1 PUSH4 0xFFFFFFFF AND JUMP JUMPDEST PUSH2 0x4484 SWAP1 SWAP2 SWAP1 PUSH4 0xFFFFFFFF AND JUMP JUMPDEST SWAP6 POP PUSH2 0x144B DUP7 DUP10 PUSH2 0x453A SWAP1 SWAP2 SWAP1 PUSH4 0xFFFFFFFF AND JUMP JUMPDEST SWAP7 POP POP POP POP POP POP JUMPDEST SWAP5 POP SWAP5 POP SWAP5 SWAP2 POP POP JUMP JUMPDEST PUSH1 0x2 PUSH1 0x1 SLOAD SUB PUSH2 0x14A2 JUMPI PUSH1 0x40 MLOAD PUSH32 0x8C379A000000000000000000000000000000000000000000000000000000000 DUP2 MSTORE PUSH1 0x4 ADD PUSH2 0x1499 SWAP1 PUSH2 0x5874 JUMP JUMPDEST PUSH1 0x40 MLOAD DUP1 SWAP2 SUB SWAP1 REVERT JUMPDEST PUSH1 0x2 PUSH1 0x1 DUP2 SWAP1 SSTORE POP PUSH1 0x1 ISZERO ISZERO PUSH1 0xD PUSH1 0x0 DUP4 PUSH1 0xFF AND PUSH1 0xFF AND DUP2 MSTORE PUSH1 0x20 ADD SWAP1 DUP2 MSTORE PUSH1 0x20 ADD PUSH1 0x0 KECCAK256 PUSH1 0x0 SWAP1 SLOAD SWAP1 PUSH2 0x100 EXP SWAP1 DIV PUSH1 0xFF AND ISZERO ISZERO EQ PUSH2 0x1517 JUMPI PUSH1 0x40 MLOAD PUSH32 0x8C379A000000000000000000000000000000000000000000000000000000000 DUP2 MSTORE PUSH1 0x4 ADD PUSH2 0x150E SWAP1 PUSH2 0x5768 JUMP JUMPDEST PUSH1 0x40 MLOAD DUP1 SWAP2 SUB SWAP1 REVERT JUMPDEST PUSH2 0x1520 DUP2 PUSH2 0xB41 JUMP JUMPDEST PUSH2 0x154A DUP2 PUSH32 0xFFFFFFFFFFFFFFFFFFFFFFFFFFFFFFFFFFFFFFFFFFFFFFFFFFFFFFFFFFFFFFFF PUSH2 0x2290 JUMP JUMPDEST PUSH1 0x1 DUP1 DUP2 SWAP1 SSTORE POP POP JUMP JUMPDEST PUSH1 0xA DUP2 DUP2 SLOAD DUP2 LT PUSH2 0x1564 JUMPI PUSH1 0x0 DUP1 REVERT JUMPDEST SWAP1 PUSH1 0x0 MSTORE PUSH1 0x20 PUSH1 0x0 KECCAK256 SWAP1 PUSH1 0x6 MUL ADD PUSH1 0x0 SWAP2 POP SWAP1 POP DUP1 PUSH1 0x0 ADD PUSH1 0x0 SWAP1 SLOAD SWAP1 PUSH2 0x100 EXP SWAP1 DIV PUSH20 0xFFFFFFFFFFFFFFFFFFFFFFFFFFFFFFFFFFFFFFFF AND SWAP1 DUP1 PUSH1 0x1 ADD SLOAD SWAP1 DUP1 PUSH1 0x2 ADD SLOAD SWAP1 DUP1 PUSH1 0x3 ADD SLOAD SWAP1 DUP1 PUSH1 0x4 ADD SLOAD SWAP1 DUP1 PUSH1 0x5 ADD SLOAD SWAP1 POP DUP7 JUMP JUMPDEST PUSH1 0x2 PUSH1 0x1 SLOAD SUB PUSH2 0x1605 JUMPI PUSH1 0x40 MLOAD PUSH32 0x8C379A000000000000000000000000000000000000000000000000000000000 DUP2 MSTORE PUSH1 0x4 ADD PUSH2 0x15FC SWAP1 PUSH2 0x5874 JUMP JUMPDEST PUSH1 0x40 MLOAD DUP1 SWAP2 SUB SWAP1 REVERT JUMPDEST PUSH1 0x2 PUSH1 0x1 DUP2 SWAP1 SSTORE POP PUSH1 0x1 ISZERO ISZERO PUSH1 0xD PUSH1 0x0 DUP4 PUSH1 0xFF AND PUSH1 0xFF AND DUP2 MSTORE PUSH1 0x20 ADD SWAP1 DUP2 MSTORE PUSH1 0x20 ADD PUSH1 0x0 KECCAK256 PUSH1 0x0 SWAP1 SLOAD SWAP1 PUSH2 0x100 EXP SWAP1 DIV PUSH1 0xFF AND ISZERO ISZERO EQ PUSH2 0x167A JUMPI PUSH1 0x40 MLOAD PUSH32 0x8C379A000000000000000000000000000000000000000000000000000000000 DUP2 MSTORE PUSH1 0x4 ADD PUSH2 0x1671 SWAP1 PUSH2 0x58E0 JUMP JUMPDEST PUSH1 0x40 MLOAD DUP1 SWAP2 SUB SWAP1 REVERT JUMPDEST PUSH1 0x0 PUSH1 0xA DUP3 PUSH1 0xFF AND DUP2 SLOAD DUP2 LT PUSH2 0x1693 JUMPI PUSH2 0x1692 PUSH2 0x5788 JUMP JUMPDEST JUMPDEST SWAP1 PUSH1 0x0 MSTORE PUSH1 0x20 PUSH1 0x0 KECCAK256 SWAP1 PUSH1 0x6 MUL ADD SWAP1 POP PUSH1 0x0 PUSH1 0xB PUSH1 0x0 DUP5 PUSH1 0xFF AND DUP2 MSTORE PUSH1 0x20 ADD SWAP1 DUP2 MSTORE PUSH1 0x20 ADD PUSH1 0x0 KECCAK256 PUSH1 0x0 CALLER PUSH20 0xFFFFFFFFFFFFFFFFFFFFFFFFFFFFFFFFFFFFFFFF AND PUSH20 0xFFFFFFFFFFFFFFFFFFFFFFFFFFFFFFFFFFFFFFFF AND DUP2 MSTORE PUSH1 0x20 ADD SWAP1 DUP2 MSTORE PUSH1 0x20 ADD PUSH1 0x0 KECCAK256 SWAP1 POP PUSH1 0x0 DUP2 PUSH1 0x0 ADD SLOAD SWAP1 POP PUSH1 0x0 DUP3 PUSH1 0x0 ADD DUP2 SWAP1 SSTORE POP PUSH1 0x0 DUP3 PUSH1 0x1 ADD DUP2 SWAP1 SSTORE POP PUSH2 0x1766 CALLER DUP3 DUP6 PUSH1 0x0 ADD PUSH1 0x0 SWAP1 SLOAD SWAP1 PUSH2 0x100 EXP SWAP1 DIV PUSH20 0xFFFFFFFFFFFFFFFFFFFFFFFFFFFFFFFFFFFFFFFF AND PUSH20 0xFFFFFFFFFFFFFFFFFFFFFFFFFFFFFFFFFFFFFFFF AND PUSH2 0x4593 SWAP1 SWAP3 SWAP2 SWAP1 PUSH4 0xFFFFFFFF AND JUMP JUMPDEST DUP4 PUSH1 0xFF AND CALLER PUSH20 0xFFFFFFFFFFFFFFFFFFFFFFFFFFFFFFFFFFFFFFFF AND PUSH32 0xBB757047C2B5F3974FE26B7C10F732E7BCE710B0952A71082702781E62AE0595 DUP4 PUSH1 0x40 MLOAD PUSH2 0x17B0 SWAP2 SWAP1 PUSH2 0x4BE9 JUMP JUMPDEST PUSH1 0x40 MLOAD DUP1 SWAP2 SUB SWAP1 LOG3 POP POP POP PUSH1 0x1 DUP1 DUP2 SWAP1 SSTORE POP POP JUMP JUMPDEST PUSH1 0xC SLOAD DUP2 JUMP JUMPDEST PUSH1 0x0 DUP1 PUSH1 0xA DUP4 PUSH1 0xFF AND DUP2 SLOAD DUP2 LT PUSH2 0x17E5 JUMPI PUSH2 0x17E4 PUSH2 0x5788 JUMP JUMPDEST JUMPDEST SWAP1 PUSH1 0x0 MSTORE PUSH1 0x20 PUSH1 0x0 KECCAK256 SWAP1 PUSH1 0x6 MUL ADD SWAP1 POP PUSH1 0x0 PUSH1 0x4 DUP1 SLOAD SWAP1 POP SWAP1 POP PUSH1 0x0 DUP1 PUSH1 0x0 DUP1 PUSH1 0x0 DUP1 PUSH1 0x0 SWAP1 POP JUMPDEST DUP7 DUP2 LT ISZERO PUSH2 0x19F8 JUMPI PUSH1 0x4 DUP2 DUP2 SLOAD DUP2 LT PUSH2 0x1829 JUMPI PUSH2 0x1828 PUSH2 0x5788 JUMP JUMPDEST JUMPDEST SWAP1 PUSH1 0x0 MSTORE PUSH1 0x20 PUSH1 0x0 KECCAK256 SWAP1 PUSH1 0x3 MUL ADD PUSH1 0x0 ADD SLOAD SWAP6 POP PUSH1 0x4 DUP2 DUP2 SLOAD DUP2 LT PUSH2 0x1851 JUMPI PUSH2 0x1850 PUSH2 0x5788 JUMP JUMPDEST JUMPDEST SWAP1 PUSH1 0x0 MSTORE PUSH1 0x20 PUSH1 0x0 KECCAK256 SWAP1 PUSH1 0x3 MUL ADD PUSH1 0x1 ADD SLOAD SWAP5 POP PUSH2 0x18AF PUSH2 0x187B DUP8 DUP8 PUSH2 0x453A SWAP1 SWAP2 SWAP1 PUSH4 0xFFFFFFFF AND JUMP JUMPDEST PUSH1 0x4 DUP4 DUP2 SLOAD DUP2 LT PUSH2 0x188F JUMPI PUSH2 0x188E PUSH2 0x5788 JUMP JUMPDEST JUMPDEST SWAP1 PUSH1 0x0 MSTORE PUSH1 0x20 PUSH1 0x0 KECCAK256 SWAP1 PUSH1 0x3 MUL ADD PUSH1 0x2 ADD SLOAD PUSH2 0x4484 SWAP1 SWAP2 SWAP1 PUSH4 0xFFFFFFFF AND JUMP JUMPDEST SWAP4 POP DUP8 PUSH1 0x2 ADD SLOAD DUP6 GT ISZERO PUSH2 0x19EB JUMPI DUP8 PUSH1 0x2 ADD SLOAD DUP7 LT DUP1 ISZERO PUSH2 0x18CF JUMPI POP NUMBER DUP6 LT JUMPDEST ISZERO PUSH2 0x1904 JUMPI PUSH2 0x18FD DUP5 PUSH2 0x18EF DUP11 PUSH1 0x2 ADD SLOAD DUP9 PUSH2 0x453A SWAP1 SWAP2 SWAP1 PUSH4 0xFFFFFFFF AND JUMP JUMPDEST PUSH2 0x440A SWAP1 SWAP2 SWAP1 PUSH4 0xFFFFFFFF AND JUMP JUMPDEST SWAP3 POP PUSH2 0x19D5 JUMP JUMPDEST DUP8 PUSH1 0x2 ADD SLOAD DUP7 LT DUP1 ISZERO PUSH2 0x1917 JUMPI POP NUMBER DUP6 LT ISZERO JUMPDEST ISZERO PUSH2 0x194C JUMPI PUSH2 0x1945 DUP5 PUSH2 0x1937 DUP11 PUSH1 0x2 ADD SLOAD NUMBER PUSH2 0x453A SWAP1 SWAP2 SWAP1 PUSH4 0xFFFFFFFF AND JUMP JUMPDEST PUSH2 0x440A SWAP1 SWAP2 SWAP1 PUSH4 0xFFFFFFFF AND JUMP JUMPDEST SWAP3 POP PUSH2 0x19D4 JUMP JUMPDEST DUP8 PUSH1 0x2 ADD SLOAD DUP7 LT ISZERO DUP1 ISZERO PUSH2 0x1960 JUMPI POP NUMBER DUP6 GT ISZERO JUMPDEST ISZERO PUSH2 0x1992 JUMPI PUSH1 0x4 DUP2 DUP2 SLOAD DUP2 LT PUSH2 0x1979 JUMPI PUSH2 0x1978 PUSH2 0x5788 JUMP JUMPDEST JUMPDEST SWAP1 PUSH1 0x0 MSTORE PUSH1 0x20 PUSH1 0x0 KECCAK256 SWAP1 PUSH1 0x3 MUL ADD PUSH1 0x2 ADD SLOAD SWAP3 POP PUSH2 0x19D3 JUMP JUMPDEST DUP8 PUSH1 0x2 ADD SLOAD DUP7 LT ISZERO DUP1 ISZERO PUSH2 0x19A5 JUMPI POP NUMBER DUP6 GT JUMPDEST ISZERO PUSH2 0x19D2 JUMPI PUSH2 0x19CF DUP5 PUSH2 0x19C1 DUP9 NUMBER PUSH2 0x453A SWAP1 SWAP2 SWAP1 PUSH4 0xFFFFFFFF AND JUMP JUMPDEST PUSH2 0x440A SWAP1 SWAP2 SWAP1 PUSH4 0xFFFFFFFF AND JUMP JUMPDEST SWAP3 POP JUMPDEST JUMPDEST JUMPDEST JUMPDEST PUSH2 0x19E8 DUP4 DUP4 PUSH2 0x44DC SWAP1 SWAP2 SWAP1 PUSH4 0xFFFFFFFF AND JUMP JUMPDEST SWAP2 POP JUMPDEST DUP1 DUP1 PUSH1 0x1 ADD SWAP2 POP POP PUSH2 0x180D JUMP JUMPDEST POP DUP1 SWAP8 POP POP POP POP POP POP POP POP SWAP2 SWAP1 POP JUMP JUMPDEST PUSH1 0x0 PUSH1 0xA DUP5 PUSH1 0xFF AND DUP2 SLOAD DUP2 LT PUSH2 0x1A21 JUMPI PUSH2 0x1A20 PUSH2 0x5788 JUMP JUMPDEST JUMPDEST SWAP1 PUSH1 0x0 MSTORE PUSH1 0x20 PUSH1 0x0 KECCAK256 SWAP1 PUSH1 0x6 MUL ADD SWAP1 POP PUSH1 0x0 DUP3 SLT PUSH2 0x1B89 JUMPI PUSH1 0x0 PUSH1 0x3 PUSH1 0x0 DUP6 PUSH20 0xFFFFFFFFFFFFFFFFFFFFFFFFFFFFFFFFFFFFFFFF AND PUSH20 0xFFFFFFFFFFFFFFFFFFFFFFFFFFFFFFFFFFFFFFFF AND DUP2 MSTORE PUSH1 0x20 ADD SWAP1 DUP2 MSTORE PUSH1 0x20 ADD PUSH1 0x0 KECCAK256 PUSH1 0x0 DUP7 PUSH1 0xFF AND DUP2 MSTORE PUSH1 0x20 ADD SWAP1 DUP2 MSTORE PUSH1 0x20 ADD PUSH1 0x0 KECCAK256 DUP4 DUP2 SLOAD DUP2 LT PUSH2 0x1AA0 JUMPI PUSH2 0x1A9F PUSH2 0x5788 JUMP JUMPDEST JUMPDEST SWAP1 PUSH1 0x0 MSTORE PUSH1 0x20 PUSH1 0x0 KECCAK256 SWAP1 PUSH1 0x6 MUL ADD PUSH1 0x40 MLOAD DUP1 PUSH1 0xC0 ADD PUSH1 0x40 MSTORE SWAP1 DUP2 PUSH1 0x0 DUP3 ADD SLOAD DUP2 MSTORE PUSH1 0x20 ADD PUSH1 0x1 DUP3 ADD SLOAD DUP2 MSTORE PUSH1 0x20 ADD PUSH1 0x2 DUP3 ADD SLOAD DUP2 MSTORE PUSH1 0x20 ADD PUSH1 0x3 DUP3 ADD SLOAD DUP2 MSTORE PUSH1 0x20 ADD PUSH1 0x4 DUP3 ADD SLOAD DUP2 MSTORE PUSH1 0x20 ADD PUSH1 0x5 DUP3 ADD SLOAD DUP2 MSTORE POP POP SWAP1 POP TIMESTAMP DUP2 PUSH1 0x60 ADD MLOAD LT ISZERO PUSH2 0x1B83 JUMPI DUP2 PUSH1 0x3 ADD SLOAD PUSH1 0x3 PUSH1 0x0 DUP7 PUSH20 0xFFFFFFFFFFFFFFFFFFFFFFFFFFFFFFFFFFFFFFFF AND PUSH20 0xFFFFFFFFFFFFFFFFFFFFFFFFFFFFFFFFFFFFFFFF AND DUP2 MSTORE PUSH1 0x20 ADD SWAP1 DUP2 MSTORE PUSH1 0x20 ADD PUSH1 0x0 KECCAK256 PUSH1 0x0 DUP8 PUSH1 0xFF AND DUP2 MSTORE PUSH1 0x20 ADD SWAP1 DUP2 MSTORE PUSH1 0x20 ADD PUSH1 0x0 KECCAK256 DUP5 DUP2 SLOAD DUP2 LT PUSH2 0x1B6D JUMPI PUSH2 0x1B6C PUSH2 0x5788 JUMP JUMPDEST JUMPDEST SWAP1 PUSH1 0x0 MSTORE PUSH1 0x20 PUSH1 0x0 KECCAK256 SWAP1 PUSH1 0x6 MUL ADD PUSH1 0x4 ADD DUP2 SWAP1 SSTORE POP JUMPDEST POP PUSH2 0x1D34 JUMP JUMPDEST PUSH1 0x0 PUSH1 0x3 PUSH1 0x0 DUP6 PUSH20 0xFFFFFFFFFFFFFFFFFFFFFFFFFFFFFFFFFFFFFFFF AND PUSH20 0xFFFFFFFFFFFFFFFFFFFFFFFFFFFFFFFFFFFFFFFF AND DUP2 MSTORE PUSH1 0x20 ADD SWAP1 DUP2 MSTORE PUSH1 0x20 ADD PUSH1 0x0 KECCAK256 PUSH1 0x0 DUP7 PUSH1 0xFF AND DUP2 MSTORE PUSH1 0x20 ADD SWAP1 DUP2 MSTORE PUSH1 0x20 ADD PUSH1 0x0 KECCAK256 DUP1 SLOAD DUP1 PUSH1 0x20 MUL PUSH1 0x20 ADD PUSH1 0x40 MLOAD SWAP1 DUP2 ADD PUSH1 0x40 MSTORE DUP1 SWAP3 SWAP2 SWAP1 DUP2 DUP2 MSTORE PUSH1 0x20 ADD PUSH1 0x0 SWAP1 JUMPDEST DUP3 DUP3 LT ISZERO PUSH2 0x1C6C JUMPI DUP4 DUP3 SWAP1 PUSH1 0x0 MSTORE PUSH1 0x20 PUSH1 0x0 KECCAK256 SWAP1 PUSH1 0x6 MUL ADD PUSH1 0x40 MLOAD DUP1 PUSH1 0xC0 ADD PUSH1 0x40 MSTORE SWAP1 DUP2 PUSH1 0x0 DUP3 ADD SLOAD DUP2 MSTORE PUSH1 0x20 ADD PUSH1 0x1 DUP3 ADD SLOAD DUP2 MSTORE PUSH1 0x20 ADD PUSH1 0x2 DUP3 ADD SLOAD DUP2 MSTORE PUSH1 0x20 ADD PUSH1 0x3 DUP3 ADD SLOAD DUP2 MSTORE PUSH1 0x20 ADD PUSH1 0x4 DUP3 ADD SLOAD DUP2 MSTORE PUSH1 0x20 ADD PUSH1 0x5 DUP3 ADD SLOAD DUP2 MSTORE POP POP DUP2 MSTORE PUSH1 0x20 ADD SWAP1 PUSH1 0x1 ADD SWAP1 PUSH2 0x1BFE JUMP JUMPDEST POP POP POP POP SWAP1 POP PUSH1 0x0 JUMPDEST DUP2 MLOAD DUP2 LT ISZERO PUSH2 0x1D31 JUMPI TIMESTAMP DUP3 DUP3 DUP2 MLOAD DUP2 LT PUSH2 0x1C92 JUMPI PUSH2 0x1C91 PUSH2 0x5788 JUMP JUMPDEST JUMPDEST PUSH1 0x20 MUL PUSH1 0x20 ADD ADD MLOAD PUSH1 0x60 ADD MLOAD LT ISZERO PUSH2 0x1D24 JUMPI DUP3 PUSH1 0x3 ADD SLOAD PUSH1 0x3 PUSH1 0x0 DUP8 PUSH20 0xFFFFFFFFFFFFFFFFFFFFFFFFFFFFFFFFFFFFFFFF AND PUSH20 0xFFFFFFFFFFFFFFFFFFFFFFFFFFFFFFFFFFFFFFFF AND DUP2 MSTORE PUSH1 0x20 ADD SWAP1 DUP2 MSTORE PUSH1 0x20 ADD PUSH1 0x0 KECCAK256 PUSH1 0x0 DUP9 PUSH1 0xFF AND DUP2 MSTORE PUSH1 0x20 ADD SWAP1 DUP2 MSTORE PUSH1 0x20 ADD PUSH1 0x0 KECCAK256 DUP3 DUP2 SLOAD DUP2 LT PUSH2 0x1D0E JUMPI PUSH2 0x1D0D PUSH2 0x5788 JUMP JUMPDEST JUMPDEST SWAP1 PUSH1 0x0 MSTORE PUSH1 0x20 PUSH1 0x0 KECCAK256 SWAP1 PUSH1 0x6 MUL ADD PUSH1 0x4 ADD DUP2 SWAP1 SSTORE POP JUMPDEST DUP1 DUP1 PUSH1 0x1 ADD SWAP2 POP POP PUSH2 0x1C75 JUMP JUMPDEST POP POP JUMPDEST POP POP POP POP JUMP JUMPDEST PUSH1 0x0 DUP1 PUSH1 0x0 PUSH1 0xA DUP7 PUSH1 0xFF AND DUP2 SLOAD DUP2 LT PUSH2 0x1D56 JUMPI PUSH2 0x1D55 PUSH2 0x5788 JUMP JUMPDEST JUMPDEST SWAP1 PUSH1 0x0 MSTORE PUSH1 0x20 PUSH1 0x0 KECCAK256 SWAP1 PUSH1 0x6 MUL ADD SWAP1 POP PUSH1 0x0 DUP2 PUSH1 0x0 ADD PUSH1 0x0 SWAP1 SLOAD SWAP1 PUSH2 0x100 EXP SWAP1 DIV PUSH20 0xFFFFFFFFFFFFFFFFFFFFFFFFFFFFFFFFFFFFFFFF AND PUSH20 0xFFFFFFFFFFFFFFFFFFFFFFFFFFFFFFFFFFFFFFFF AND PUSH4 0x70A08231 ADDRESS PUSH1 0x40 MLOAD DUP3 PUSH4 0xFFFFFFFF AND PUSH1 0xE0 SHL DUP2 MSTORE PUSH1 0x4 ADD PUSH2 0x1DC5 SWAP2 SWAP1 PUSH2 0x542C JUMP JUMPDEST PUSH1 0x20 PUSH1 0x40 MLOAD DUP1 DUP4 SUB DUP2 DUP7 GAS STATICCALL ISZERO DUP1 ISZERO PUSH2 0x1DE2 JUMPI RETURNDATASIZE PUSH1 0x0 DUP1 RETURNDATACOPY RETURNDATASIZE PUSH1 0x0 REVERT JUMPDEST POP POP POP POP PUSH1 0x40 MLOAD RETURNDATASIZE PUSH1 0x1F NOT PUSH1 0x1F DUP3 ADD AND DUP3 ADD DUP1 PUSH1 0x40 MSTORE POP DUP2 ADD SWAP1 PUSH2 0x1E06 SWAP2 SWAP1 PUSH2 0x57CC JUMP JUMPDEST SWAP1 POP PUSH1 0x0 DUP2 SUB PUSH2 0x1E1E JUMPI PUSH1 0x0 DUP1 SWAP4 POP SWAP4 POP POP POP PUSH2 0x1F19 JUMP JUMPDEST PUSH1 0x0 DUP3 PUSH1 0x3 ADD SLOAD SWAP1 POP DUP3 PUSH1 0x2 ADD SLOAD NUMBER GT DUP1 ISZERO PUSH2 0x1E3B JUMPI POP PUSH1 0x0 DUP3 EQ ISZERO JUMPDEST ISZERO PUSH2 0x1ED0 JUMPI PUSH1 0x0 PUSH2 0x1E75 PUSH1 0xC SLOAD PUSH2 0x1E67 DUP7 PUSH1 0x1 ADD SLOAD PUSH2 0x1E59 DUP14 PUSH2 0x17CB JUMP JUMPDEST PUSH2 0x440A SWAP1 SWAP2 SWAP1 PUSH4 0xFFFFFFFF AND JUMP JUMPDEST PUSH2 0x4484 SWAP1 SWAP2 SWAP1 PUSH4 0xFFFFFFFF AND JUMP JUMPDEST SWAP1 POP PUSH2 0x1E8E DUP5 PUSH1 0x5 ADD SLOAD DUP3 PUSH2 0x44DC SWAP1 SWAP2 SWAP1 PUSH4 0xFFFFFFFF AND JUMP JUMPDEST SWAP1 POP PUSH2 0x1ECC PUSH2 0x1EBD DUP5 PUSH2 0x1EAF PUSH5 0xE8D4A51000 DUP6 PUSH2 0x440A SWAP1 SWAP2 SWAP1 PUSH4 0xFFFFFFFF AND JUMP JUMPDEST PUSH2 0x4484 SWAP1 SWAP2 SWAP1 PUSH4 0xFFFFFFFF AND JUMP JUMPDEST DUP4 PUSH2 0x44DC SWAP1 SWAP2 SWAP1 PUSH4 0xFFFFFFFF AND JUMP JUMPDEST SWAP2 POP POP JUMPDEST PUSH1 0x0 DUP7 SLT PUSH2 0x1EF9 JUMPI PUSH1 0x0 DUP1 PUSH2 0x1EE7 DUP11 DUP11 DUP6 DUP12 PUSH2 0x1128 JUMP JUMPDEST POP SWAP2 POP SWAP2 POP DUP2 SWAP7 POP DUP1 SWAP6 POP POP POP PUSH2 0x1F15 JUMP JUMPDEST PUSH1 0x0 DUP1 PUSH2 0x1F07 DUP11 DUP11 DUP6 PUSH2 0x3240 JUMP JUMPDEST POP SWAP2 POP SWAP2 POP DUP2 SWAP7 POP DUP1 SWAP6 POP POP POP JUMPDEST POP POP POP JUMPDEST SWAP4 POP SWAP4 SWAP2 POP POP JUMP JUMPDEST PUSH1 0x2 PUSH1 0x1 SLOAD SUB PUSH2 0x1F66 JUMPI PUSH1 0x40 MLOAD PUSH32 0x8C379A000000000000000000000000000000000000000000000000000000000 DUP2 MSTORE PUSH1 0x4 ADD PUSH2 0x1F5D SWAP1 PUSH2 0x5874 JUMP JUMPDEST PUSH1 0x40 MLOAD DUP1 SWAP2 SUB SWAP1 REVERT JUMPDEST PUSH1 0x2 PUSH1 0x1 DUP2 SWAP1 SSTORE POP PUSH1 0x1 ISZERO ISZERO PUSH1 0xD PUSH1 0x0 DUP5 PUSH1 0xFF AND PUSH1 0xFF AND DUP2 MSTORE PUSH1 0x20 ADD SWAP1 DUP2 MSTORE PUSH1 0x20 ADD PUSH1 0x0 KECCAK256 PUSH1 0x0 SWAP1 SLOAD SWAP1 PUSH2 0x100 EXP SWAP1 DIV PUSH1 0xFF AND ISZERO ISZERO EQ PUSH2 0x1FDB JUMPI PUSH1 0x40 MLOAD PUSH32 0x8C379A000000000000000000000000000000000000000000000000000000000 DUP2 MSTORE PUSH1 0x4 ADD PUSH2 0x1FD2 SWAP1 PUSH2 0x58E0 JUMP JUMPDEST PUSH1 0x40 MLOAD DUP1 SWAP2 SUB SWAP1 REVERT JUMPDEST PUSH1 0x0 PUSH1 0xA DUP4 PUSH1 0xFF AND DUP2 SLOAD DUP2 LT PUSH2 0x1FF4 JUMPI PUSH2 0x1FF3 PUSH2 0x5788 JUMP JUMPDEST JUMPDEST SWAP1 PUSH1 0x0 MSTORE PUSH1 0x20 PUSH1 0x0 KECCAK256 SWAP1 PUSH1 0x6 MUL ADD SWAP1 POP PUSH1 0x0 PUSH1 0xB PUSH1 0x0 DUP6 PUSH1 0xFF AND DUP2 MSTORE PUSH1 0x20 ADD SWAP1 DUP2 MSTORE PUSH1 0x20 ADD PUSH1 0x0 KECCAK256 PUSH1 0x0 CALLER PUSH20 0xFFFFFFFFFFFFFFFFFFFFFFFFFFFFFFFFFFFFFFFF AND PUSH20 0xFFFFFFFFFFFFFFFFFFFFFFFFFFFFFFFFFFFFFFFF AND DUP2 MSTORE PUSH1 0x20 ADD SWAP1 DUP2 MSTORE PUSH1 0x20 ADD PUSH1 0x0 KECCAK256 SWAP1 POP DUP3 DUP2 PUSH1 0x0 ADD SLOAD LT ISZERO PUSH2 0x20A2 JUMPI PUSH1 0x40 MLOAD PUSH32 0x8C379A000000000000000000000000000000000000000000000000000000000 DUP2 MSTORE PUSH1 0x4 ADD PUSH2 0x2099 SWAP1 PUSH2 0x594C JUMP JUMPDEST PUSH1 0x40 MLOAD DUP1 SWAP2 SUB SWAP1 REVERT JUMPDEST PUSH1 0x0 PUSH2 0x20AE CALLER DUP7 PUSH2 0x30CF JUMP JUMPDEST SWAP1 POP PUSH1 0x0 DUP2 GT PUSH2 0x20F3 JUMPI PUSH1 0x40 MLOAD PUSH32 0x8C379A000000000000000000000000000000000000000000000000000000000 DUP2 MSTORE PUSH1 0x4 ADD PUSH2 0x20EA SWAP1 PUSH2 0x59B8 JUMP JUMPDEST PUSH1 0x40 MLOAD DUP1 SWAP2 SUB SWAP1 REVERT JUMPDEST DUP4 DUP2 LT ISZERO PUSH2 0x20FF JUMPI DUP1 SWAP4 POP JUMPDEST PUSH2 0x2108 DUP6 PUSH2 0xB41 JUMP JUMPDEST PUSH2 0x2132 DUP6 PUSH32 0xFFFFFFFFFFFFFFFFFFFFFFFFFFFFFFFFFFFFFFFFFFFFFFFFFFFFFFFFFFFFFFFF PUSH2 0x2290 JUMP JUMPDEST PUSH1 0x0 DUP5 GT ISZERO PUSH2 0x21AA JUMPI PUSH2 0x2152 DUP5 DUP4 PUSH1 0x0 ADD SLOAD PUSH2 0x453A SWAP1 SWAP2 SWAP1 PUSH4 0xFFFFFFFF AND JUMP JUMPDEST DUP3 PUSH1 0x0 ADD DUP2 SWAP1 SSTORE POP PUSH2 0x21A9 CALLER DUP6 DUP6 PUSH1 0x0 ADD PUSH1 0x0 SWAP1 SLOAD SWAP1 PUSH2 0x100 EXP SWAP1 DIV PUSH20 0xFFFFFFFFFFFFFFFFFFFFFFFFFFFFFFFFFFFFFFFF AND PUSH20 0xFFFFFFFFFFFFFFFFFFFFFFFFFFFFFFFFFFFFFFFF AND PUSH2 0x4593 SWAP1 SWAP3 SWAP2 SWAP1 PUSH4 0xFFFFFFFF AND JUMP JUMPDEST JUMPDEST PUSH2 0x21B6 CALLER DUP7 DUP7 TIMESTAMP PUSH2 0x246A JUMP JUMPDEST PUSH2 0x21C0 CALLER DUP7 PUSH2 0x2C69 JUMP JUMPDEST DUP5 PUSH1 0xFF AND CALLER PUSH20 0xFFFFFFFFFFFFFFFFFFFFFFFFFFFFFFFFFFFFFFFF AND PUSH32 0xF279E6A1F5E320CCA91135676D9CB6E44CA8A08C0B88342BCDB1144F6511B568 DUP7 PUSH1 0x40 MLOAD PUSH2 0x220A SWAP2 SWAP1 PUSH2 0x4BE9 JUMP JUMPDEST PUSH1 0x40 MLOAD DUP1 SWAP2 SUB SWAP1 LOG3 POP POP POP PUSH1 0x1 DUP1 DUP2 SWAP1 SSTORE POP POP POP JUMP JUMPDEST PUSH1 0x4 DUP2 DUP2 SLOAD DUP2 LT PUSH2 0x2230 JUMPI PUSH1 0x0 DUP1 REVERT JUMPDEST SWAP1 PUSH1 0x0 MSTORE PUSH1 0x20 PUSH1 0x0 KECCAK256 SWAP1 PUSH1 0x3 MUL ADD PUSH1 0x0 SWAP2 POP SWAP1 POP DUP1 PUSH1 0x0 ADD SLOAD SWAP1 DUP1 PUSH1 0x1 ADD SLOAD SWAP1 DUP1 PUSH1 0x2 ADD SLOAD SWAP1 POP DUP4 JUMP JUMPDEST PUSH1 0x0 PUSH1 0xA DUP1 SLOAD SWAP1 POP SWAP1 POP PUSH1 0x0 JUMPDEST DUP2 DUP2 PUSH1 0xFF AND LT ISZERO PUSH2 0x228C JUMPI PUSH2 0x227B DUP2 PUSH2 0xB41 JUMP JUMPDEST DUP1 PUSH2 0x2285 SWAP1 PUSH2 0x5A07 JUMP JUMPDEST SWAP1 POP PUSH2 0x2267 JUMP JUMPDEST POP POP JUMP JUMPDEST PUSH1 0x1 ISZERO ISZERO PUSH1 0xD PUSH1 0x0 DUP5 PUSH1 0xFF AND PUSH1 0xFF AND DUP2 MSTORE PUSH1 0x20 ADD SWAP1 DUP2 MSTORE PUSH1 0x20 ADD PUSH1 0x0 KECCAK256 PUSH1 0x0 SWAP1 SLOAD SWAP1 PUSH2 0x100 EXP SWAP1 DIV PUSH1 0xFF AND ISZERO ISZERO EQ PUSH2 0x22FD JUMPI PUSH1 0x40 MLOAD PUSH32 0x8C379A000000000000000000000000000000000000000000000000000000000 DUP2 MSTORE PUSH1 0x4 ADD PUSH2 0x22F4 SWAP1 PUSH2 0x58E0 JUMP JUMPDEST PUSH1 0x40 MLOAD DUP1 SWAP2 SUB SWAP1 REVERT JUMPDEST PUSH1 0x0 PUSH1 0xA DUP4 PUSH1 0xFF AND DUP2 SLOAD DUP2 LT PUSH2 0x2316 JUMPI PUSH2 0x2315 PUSH2 0x5788 JUMP JUMPDEST JUMPDEST SWAP1 PUSH1 0x0 MSTORE PUSH1 0x20 PUSH1 0x0 KECCAK256 SWAP1 PUSH1 0x6 MUL ADD SWAP1 POP PUSH1 0x0 PUSH1 0xB PUSH1 0x0 DUP6 PUSH1 0xFF AND DUP2 MSTORE PUSH1 0x20 ADD SWAP1 DUP2 MSTORE PUSH1 0x20 ADD PUSH1 0x0 KECCAK256 PUSH1 0x0 CALLER PUSH20 0xFFFFFFFFFFFFFFFFFFFFFFFFFFFFFFFFFFFFFFFF AND PUSH20 0xFFFFFFFFFFFFFFFFFFFFFFFFFFFFFFFFFFFFFFFF AND DUP2 MSTORE PUSH1 0x20 ADD SWAP1 DUP2 MSTORE PUSH1 0x20 ADD PUSH1 0x0 KECCAK256 SWAP1 POP PUSH1 0x0 DUP1 PUSH1 0x0 DUP6 SLT PUSH2 0x23AD JUMPI PUSH1 0x0 DUP1 PUSH2 0x239B DUP9 CALLER DUP9 PUSH1 0x3 ADD SLOAD DUP11 PUSH2 0x1128 JUMP JUMPDEST SWAP3 POP SWAP3 POP POP DUP2 SWAP4 POP DUP1 SWAP3 POP POP POP PUSH2 0x23CD JUMP JUMPDEST PUSH1 0x0 DUP1 PUSH2 0x23BF DUP9 CALLER DUP9 PUSH1 0x3 ADD SLOAD PUSH2 0x3240 JUMP JUMPDEST SWAP3 POP SWAP3 POP POP DUP2 SWAP4 POP DUP1 SWAP3 POP POP POP JUMPDEST PUSH2 0x23D7 DUP7 CALLER PUSH2 0x382A JUMP JUMPDEST ISZERO PUSH2 0x2462 JUMPI PUSH1 0x0 DUP3 GT ISZERO PUSH2 0x2461 JUMPI PUSH2 0x23FC DUP2 DUP6 PUSH1 0x5 ADD SLOAD PUSH2 0x44DC SWAP1 SWAP2 SWAP1 PUSH4 0xFFFFFFFF AND JUMP JUMPDEST DUP5 PUSH1 0x5 ADD DUP2 SWAP1 SSTORE POP PUSH2 0x241B DUP5 PUSH1 0x4 ADD SLOAD TIMESTAMP PUSH2 0x44DC SWAP1 SWAP2 SWAP1 PUSH4 0xFFFFFFFF AND JUMP JUMPDEST DUP4 PUSH1 0x1 ADD DUP2 SWAP1 SSTORE POP PUSH2 0x242D CALLER DUP4 PUSH2 0x4619 JUMP JUMPDEST PUSH2 0x2444 DUP3 DUP5 PUSH1 0x2 ADD SLOAD PUSH2 0x44DC SWAP1 SWAP2 SWAP1 PUSH4 0xFFFFFFFF AND JUMP JUMPDEST DUP4 PUSH1 0x2 ADD DUP2 SWAP1 SSTORE POP DUP1 DUP4 PUSH1 0x3 ADD DUP2 SWAP1 SSTORE POP PUSH2 0x2460 DUP7 CALLER DUP8 PUSH2 0x1A08 JUMP JUMPDEST JUMPDEST JUMPDEST POP POP POP POP POP POP JUMP JUMPDEST PUSH1 0x0 PUSH1 0x3 PUSH1 0x0 DUP7 PUSH20 0xFFFFFFFFFFFFFFFFFFFFFFFFFFFFFFFFFFFFFFFF AND PUSH20 0xFFFFFFFFFFFFFFFFFFFFFFFFFFFFFFFFFFFFFFFF AND DUP2 MSTORE PUSH1 0x20 ADD SWAP1 DUP2 MSTORE PUSH1 0x20 ADD PUSH1 0x0 KECCAK256 PUSH1 0x0 DUP6 PUSH1 0xFF AND DUP2 MSTORE PUSH1 0x20 ADD SWAP1 DUP2 MSTORE PUSH1 0x20 ADD PUSH1 0x0 KECCAK256 DUP1 SLOAD SWAP1 POP SWAP1 POP PUSH1 0x0 JUMPDEST DUP2 DUP2 LT ISZERO PUSH2 0x27F6 JUMPI DUP3 PUSH1 0x3 PUSH1 0x0 DUP9 PUSH20 0xFFFFFFFFFFFFFFFFFFFFFFFFFFFFFFFFFFFFFFFF AND PUSH20 0xFFFFFFFFFFFFFFFFFFFFFFFFFFFFFFFFFFFFFFFF AND DUP2 MSTORE PUSH1 0x20 ADD SWAP1 DUP2 MSTORE PUSH1 0x20 ADD PUSH1 0x0 KECCAK256 PUSH1 0x0 DUP8 PUSH1 0xFF AND DUP2 MSTORE PUSH1 0x20 ADD SWAP1 DUP2 MSTORE PUSH1 0x20 ADD PUSH1 0x0 KECCAK256 DUP3 DUP2 SLOAD DUP2 LT PUSH2 0x2536 JUMPI PUSH2 0x2535 PUSH2 0x5788 JUMP JUMPDEST JUMPDEST SWAP1 PUSH1 0x0 MSTORE PUSH1 0x20 PUSH1 0x0 KECCAK256 SWAP1 PUSH1 0x6 MUL ADD PUSH1 0x3 ADD SLOAD LT ISZERO PUSH2 0x27E0 JUMPI DUP4 PUSH1 0x3 PUSH1 0x0 DUP9 PUSH20 0xFFFFFFFFFFFFFFFFFFFFFFFFFFFFFFFFFFFFFFFF AND PUSH20 0xFFFFFFFFFFFFFFFFFFFFFFFFFFFFFFFFFFFFFFFF AND DUP2 MSTORE PUSH1 0x20 ADD SWAP1 DUP2 MSTORE PUSH1 0x20 ADD PUSH1 0x0 KECCAK256 PUSH1 0x0 DUP8 PUSH1 0xFF AND DUP2 MSTORE PUSH1 0x20 ADD SWAP1 DUP2 MSTORE PUSH1 0x20 ADD PUSH1 0x0 KECCAK256 DUP3 DUP2 SLOAD DUP2 LT PUSH2 0x25B4 JUMPI PUSH2 0x25B3 PUSH2 0x5788 JUMP JUMPDEST JUMPDEST SWAP1 PUSH1 0x0 MSTORE PUSH1 0x20 PUSH1 0x0 KECCAK256 SWAP1 PUSH1 0x6 MUL ADD PUSH1 0x1 ADD SLOAD GT PUSH2 0x26D7 JUMPI PUSH2 0x2654 PUSH1 0x3 PUSH1 0x0 DUP9 PUSH20 0xFFFFFFFFFFFFFFFFFFFFFFFFFFFFFFFFFFFFFFFF AND PUSH20 0xFFFFFFFFFFFFFFFFFFFFFFFFFFFFFFFFFFFFFFFF AND DUP2 MSTORE PUSH1 0x20 ADD SWAP1 DUP2 MSTORE PUSH1 0x20 ADD PUSH1 0x0 KECCAK256 PUSH1 0x0 DUP8 PUSH1 0xFF AND DUP2 MSTORE PUSH1 0x20 ADD SWAP1 DUP2 MSTORE PUSH1 0x20 ADD PUSH1 0x0 KECCAK256 DUP3 DUP2 SLOAD DUP2 LT PUSH2 0x2633 JUMPI PUSH2 0x2632 PUSH2 0x5788 JUMP JUMPDEST JUMPDEST SWAP1 PUSH1 0x0 MSTORE PUSH1 0x20 PUSH1 0x0 KECCAK256 SWAP1 PUSH1 0x6 MUL ADD PUSH1 0x1 ADD SLOAD DUP6 PUSH2 0x453A SWAP1 SWAP2 SWAP1 PUSH4 0xFFFFFFFF AND JUMP JUMPDEST SWAP4 POP PUSH1 0x0 PUSH1 0x3 PUSH1 0x0 DUP9 PUSH20 0xFFFFFFFFFFFFFFFFFFFFFFFFFFFFFFFFFFFFFFFF AND PUSH20 0xFFFFFFFFFFFFFFFFFFFFFFFFFFFFFFFFFFFFFFFF AND DUP2 MSTORE PUSH1 0x20 ADD SWAP1 DUP2 MSTORE PUSH1 0x20 ADD PUSH1 0x0 KECCAK256 PUSH1 0x0 DUP8 PUSH1 0xFF AND DUP2 MSTORE PUSH1 0x20 ADD SWAP1 DUP2 MSTORE PUSH1 0x20 ADD PUSH1 0x0 KECCAK256 DUP3 DUP2 SLOAD DUP2 LT PUSH2 0x26BD JUMPI PUSH2 0x26BC PUSH2 0x5788 JUMP JUMPDEST JUMPDEST SWAP1 PUSH1 0x0 MSTORE PUSH1 0x20 PUSH1 0x0 KECCAK256 SWAP1 PUSH1 0x6 MUL ADD PUSH1 0x1 ADD DUP2 SWAP1 SSTORE POP PUSH2 0x27DF JUMP JUMPDEST PUSH2 0x2760 DUP5 PUSH1 0x3 PUSH1 0x0 DUP10 PUSH20 0xFFFFFFFFFFFFFFFFFFFFFFFFFFFFFFFFFFFFFFFF AND PUSH20 0xFFFFFFFFFFFFFFFFFFFFFFFFFFFFFFFFFFFFFFFF AND DUP2 MSTORE PUSH1 0x20 ADD SWAP1 DUP2 MSTORE PUSH1 0x20 ADD PUSH1 0x0 KECCAK256 PUSH1 0x0 DUP9 PUSH1 0xFF AND DUP2 MSTORE PUSH1 0x20 ADD SWAP1 DUP2 MSTORE PUSH1 0x20 ADD PUSH1 0x0 KECCAK256 DUP4 DUP2 SLOAD DUP2 LT PUSH2 0x2740 JUMPI PUSH2 0x273F PUSH2 0x5788 JUMP JUMPDEST JUMPDEST SWAP1 PUSH1 0x0 MSTORE PUSH1 0x20 PUSH1 0x0 KECCAK256 SWAP1 PUSH1 0x6 MUL ADD PUSH1 0x1 ADD SLOAD PUSH2 0x453A SWAP1 SWAP2 SWAP1 PUSH4 0xFFFFFFFF AND JUMP JUMPDEST PUSH1 0x3 PUSH1 0x0 DUP9 PUSH20 0xFFFFFFFFFFFFFFFFFFFFFFFFFFFFFFFFFFFFFFFF AND PUSH20 0xFFFFFFFFFFFFFFFFFFFFFFFFFFFFFFFFFFFFFFFF AND DUP2 MSTORE PUSH1 0x20 ADD SWAP1 DUP2 MSTORE PUSH1 0x20 ADD PUSH1 0x0 KECCAK256 PUSH1 0x0 DUP8 PUSH1 0xFF AND DUP2 MSTORE PUSH1 0x20 ADD SWAP1 DUP2 MSTORE PUSH1 0x20 ADD PUSH1 0x0 KECCAK256 DUP3 DUP2 SLOAD DUP2 LT PUSH2 0x27C5 JUMPI PUSH2 0x27C4 PUSH2 0x5788 JUMP JUMPDEST JUMPDEST SWAP1 PUSH1 0x0 MSTORE PUSH1 0x20 PUSH1 0x0 KECCAK256 SWAP1 PUSH1 0x6 MUL ADD PUSH1 0x1 ADD DUP2 SWAP1 SSTORE POP PUSH1 0x0 SWAP4 POP JUMPDEST JUMPDEST PUSH1 0x0 DUP5 SUB ISZERO PUSH2 0x27F6 JUMPI DUP1 DUP1 PUSH1 0x1 ADD SWAP2 POP POP PUSH2 0x24C8 JUMP JUMPDEST POP POP POP POP POP POP JUMP JUMPDEST PUSH1 0x6 SLOAD DUP2 JUMP JUMPDEST PUSH1 0xD PUSH1 0x20 MSTORE DUP1 PUSH1 0x0 MSTORE PUSH1 0x40 PUSH1 0x0 KECCAK256 PUSH1 0x0 SWAP2 POP SLOAD SWAP1 PUSH2 0x100 EXP SWAP1 DIV PUSH1 0xFF AND DUP2 JUMP JUMPDEST PUSH2 0x282C PUSH2 0x480E JUMP JUMPDEST PUSH20 0xFFFFFFFFFFFFFFFFFFFFFFFFFFFFFFFFFFFFFFFF AND PUSH2 0x284A PUSH2 0x2A9D JUMP JUMPDEST PUSH20 0xFFFFFFFFFFFFFFFFFFFFFFFFFFFFFFFFFFFFFFFF AND EQ PUSH2 0x28A0 JUMPI PUSH1 0x40 MLOAD PUSH32 0x8C379A000000000000000000000000000000000000000000000000000000000 DUP2 MSTORE PUSH1 0x4 ADD PUSH2 0x2897 SWAP1 PUSH2 0x5A7C JUMP JUMPDEST PUSH1 0x40 MLOAD DUP1 SWAP2 SUB SWAP1 REVERT JUMPDEST PUSH2 0x28AA PUSH1 0x0 PUSH2 0x4816 JUMP JUMPDEST JUMP JUMPDEST PUSH1 0x0 PUSH1 0x7 SLOAD SWAP1 POP SWAP1 JUMP JUMPDEST PUSH2 0x28BE PUSH2 0x480E JUMP JUMPDEST PUSH20 0xFFFFFFFFFFFFFFFFFFFFFFFFFFFFFFFFFFFFFFFF AND PUSH2 0x28DC PUSH2 0x2A9D JUMP JUMPDEST PUSH20 0xFFFFFFFFFFFFFFFFFFFFFFFFFFFFFFFFFFFFFFFF AND EQ PUSH2 0x2932 JUMPI PUSH1 0x40 MLOAD PUSH32 0x8C379A000000000000000000000000000000000000000000000000000000000 DUP2 MSTORE PUSH1 0x4 ADD PUSH2 0x2929 SWAP1 PUSH2 0x5A7C JUMP JUMPDEST PUSH1 0x40 MLOAD DUP1 SWAP2 SUB SWAP1 REVERT JUMPDEST PUSH2 0x2710 DUP3 PUSH2 0xFFFF AND GT ISZERO PUSH2 0x297B JUMPI PUSH1 0x40 MLOAD PUSH32 0x8C379A000000000000000000000000000000000000000000000000000000000 DUP2 MSTORE PUSH1 0x4 ADD PUSH2 0x2972 SWAP1 PUSH2 0x5B0E JUMP JUMPDEST PUSH1 0x40 MLOAD DUP1 SWAP2 SUB SWAP1 REVERT JUMPDEST DUP1 ISZERO PUSH2 0x298A JUMPI PUSH2 0x2989 PUSH2 0x225A JUMP JUMPDEST JUMPDEST PUSH1 0x0 NUMBER SWAP1 POP PUSH2 0x29A4 DUP6 PUSH1 0xC SLOAD PUSH2 0x44DC SWAP1 SWAP2 SWAP1 PUSH4 0xFFFFFFFF AND JUMP JUMPDEST PUSH1 0xC DUP2 SWAP1 SSTORE POP PUSH1 0xA PUSH1 0x40 MLOAD DUP1 PUSH1 0xC0 ADD PUSH1 0x40 MSTORE DUP1 DUP7 PUSH20 0xFFFFFFFFFFFFFFFFFFFFFFFFFFFFFFFFFFFFFFFF AND DUP2 MSTORE PUSH1 0x20 ADD DUP8 DUP2 MSTORE PUSH1 0x20 ADD DUP4 DUP2 MSTORE PUSH1 0x20 ADD PUSH1 0x0 DUP2 MSTORE PUSH1 0x20 ADD PUSH1 0x3C DUP2 MSTORE PUSH1 0x20 ADD PUSH1 0x0 DUP2 MSTORE POP SWAP1 DUP1 PUSH1 0x1 DUP2 SLOAD ADD DUP1 DUP3 SSTORE DUP1 SWAP2 POP POP PUSH1 0x1 SWAP1 SUB SWAP1 PUSH1 0x0 MSTORE PUSH1 0x20 PUSH1 0x0 KECCAK256 SWAP1 PUSH1 0x6 MUL ADD PUSH1 0x0 SWAP1 SWAP2 SWAP1 SWAP2 SWAP1 SWAP2 POP PUSH1 0x0 DUP3 ADD MLOAD DUP2 PUSH1 0x0 ADD PUSH1 0x0 PUSH2 0x100 EXP DUP2 SLOAD DUP2 PUSH20 0xFFFFFFFFFFFFFFFFFFFFFFFFFFFFFFFFFFFFFFFF MUL NOT AND SWAP1 DUP4 PUSH20 0xFFFFFFFFFFFFFFFFFFFFFFFFFFFFFFFFFFFFFFFF AND MUL OR SWAP1 SSTORE POP PUSH1 0x20 DUP3 ADD MLOAD DUP2 PUSH1 0x1 ADD SSTORE PUSH1 0x40 DUP3 ADD MLOAD DUP2 PUSH1 0x2 ADD SSTORE PUSH1 0x60 DUP3 ADD MLOAD DUP2 PUSH1 0x3 ADD SSTORE PUSH1 0x80 DUP3 ADD MLOAD DUP2 PUSH1 0x4 ADD SSTORE PUSH1 0xA0 DUP3 ADD MLOAD DUP2 PUSH1 0x5 ADD SSTORE POP POP POP POP POP POP POP JUMP JUMPDEST PUSH1 0x0 DUP1 PUSH1 0x0 SWAP1 SLOAD SWAP1 PUSH2 0x100 EXP SWAP1 DIV PUSH20 0xFFFFFFFFFFFFFFFFFFFFFFFFFFFFFFFFFFFFFFFF AND SWAP1 POP SWAP1 JUMP JUMPDEST PUSH1 0x0 PUSH2 0x2ADB DUP4 DUP4 PUSH2 0x453A SWAP1 SWAP2 SWAP1 PUSH4 0xFFFFFFFF AND JUMP JUMPDEST SWAP1 POP SWAP3 SWAP2 POP POP JUMP JUMPDEST PUSH1 0x0 DUP1 PUSH1 0x4 DUP1 SLOAD SWAP1 POP SWAP1 POP PUSH1 0x0 DUP1 PUSH1 0x0 DUP1 PUSH1 0x0 DUP1 PUSH1 0x0 SWAP1 POP JUMPDEST DUP7 DUP2 LT ISZERO PUSH2 0x2C1F JUMPI PUSH1 0x4 DUP2 DUP2 SLOAD DUP2 LT PUSH2 0x2B18 JUMPI PUSH2 0x2B17 PUSH2 0x5788 JUMP JUMPDEST JUMPDEST SWAP1 PUSH1 0x0 MSTORE PUSH1 0x20 PUSH1 0x0 KECCAK256 SWAP1 PUSH1 0x3 MUL ADD PUSH1 0x0 ADD SLOAD SWAP6 POP PUSH1 0x4 DUP2 DUP2 SLOAD DUP2 LT PUSH2 0x2B40 JUMPI PUSH2 0x2B3F PUSH2 0x5788 JUMP JUMPDEST JUMPDEST SWAP1 PUSH1 0x0 MSTORE PUSH1 0x20 PUSH1 0x0 KECCAK256 SWAP1 PUSH1 0x3 MUL ADD PUSH1 0x1 ADD SLOAD SWAP5 POP PUSH2 0x2B9E PUSH2 0x2B6A DUP8 DUP8 PUSH2 0x453A SWAP1 SWAP2 SWAP1 PUSH4 0xFFFFFFFF AND JUMP JUMPDEST PUSH1 0x4 DUP4 DUP2 SLOAD DUP2 LT PUSH2 0x2B7E JUMPI PUSH2 0x2B7D PUSH2 0x5788 JUMP JUMPDEST JUMPDEST SWAP1 PUSH1 0x0 MSTORE PUSH1 0x20 PUSH1 0x0 KECCAK256 SWAP1 PUSH1 0x3 MUL ADD PUSH1 0x2 ADD SLOAD PUSH2 0x4484 SWAP1 SWAP2 SWAP1 PUSH4 0xFFFFFFFF AND JUMP JUMPDEST SWAP4 POP NUMBER DUP6 LT ISZERO PUSH2 0x2BD5 JUMPI PUSH1 0x4 DUP2 DUP2 SLOAD DUP2 LT PUSH2 0x2BBC JUMPI PUSH2 0x2BBB PUSH2 0x5788 JUMP JUMPDEST JUMPDEST SWAP1 PUSH1 0x0 MSTORE PUSH1 0x20 PUSH1 0x0 KECCAK256 SWAP1 PUSH1 0x3 MUL ADD PUSH1 0x2 ADD SLOAD SWAP3 POP PUSH2 0x2BFD JUMP JUMPDEST PUSH2 0x2BFA DUP5 PUSH2 0x2BEC DUP9 NUMBER PUSH2 0x453A SWAP1 SWAP2 SWAP1 PUSH4 0xFFFFFFFF AND JUMP JUMPDEST PUSH2 0x440A SWAP1 SWAP2 SWAP1 PUSH4 0xFFFFFFFF AND JUMP JUMPDEST SWAP3 POP JUMPDEST PUSH2 0x2C10 DUP4 DUP4 PUSH2 0x44DC SWAP1 SWAP2 SWAP1 PUSH4 0xFFFFFFFF AND JUMP JUMPDEST SWAP2 POP DUP1 DUP1 PUSH1 0x1 ADD SWAP2 POP POP PUSH2 0x2AFC JUMP JUMPDEST POP DUP1 SWAP7 POP POP POP POP POP POP POP SWAP1 JUMP JUMPDEST PUSH1 0xB PUSH1 0x20 MSTORE DUP2 PUSH1 0x0 MSTORE PUSH1 0x40 PUSH1 0x0 KECCAK256 PUSH1 0x20 MSTORE DUP1 PUSH1 0x0 MSTORE PUSH1 0x40 PUSH1 0x0 KECCAK256 PUSH1 0x0 SWAP2 POP SWAP2 POP POP DUP1 PUSH1 0x0 ADD SLOAD SWAP1 DUP1 PUSH1 0x1 ADD SLOAD SWAP1 DUP1 PUSH1 0x2 ADD SLOAD SWAP1 DUP1 PUSH1 0x3 ADD SLOAD SWAP1 POP DUP5 JUMP JUMPDEST PUSH1 0x0 JUMPDEST PUSH1 0x3 PUSH1 0x0 DUP5 PUSH20 0xFFFFFFFFFFFFFFFFFFFFFFFFFFFFFFFFFFFFFFFF AND PUSH20 0xFFFFFFFFFFFFFFFFFFFFFFFFFFFFFFFFFFFFFFFF AND DUP2 MSTORE PUSH1 0x20 ADD SWAP1 DUP2 MSTORE PUSH1 0x20 ADD PUSH1 0x0 KECCAK256 PUSH1 0x0 DUP4 PUSH1 0xFF AND DUP2 MSTORE PUSH1 0x20 ADD SWAP1 DUP2 MSTORE PUSH1 0x20 ADD PUSH1 0x0 KECCAK256 DUP1 SLOAD SWAP1 POP DUP2 LT ISZERO PUSH2 0x3019 JUMPI JUMPDEST PUSH1 0x0 PUSH1 0x3 PUSH1 0x0 DUP6 PUSH20 0xFFFFFFFFFFFFFFFFFFFFFFFFFFFFFFFFFFFFFFFF AND PUSH20 0xFFFFFFFFFFFFFFFFFFFFFFFFFFFFFFFFFFFFFFFF AND DUP2 MSTORE PUSH1 0x20 ADD SWAP1 DUP2 MSTORE PUSH1 0x20 ADD PUSH1 0x0 KECCAK256 PUSH1 0x0 DUP5 PUSH1 0xFF AND DUP2 MSTORE PUSH1 0x20 ADD SWAP1 DUP2 MSTORE PUSH1 0x20 ADD PUSH1 0x0 KECCAK256 DUP1 SLOAD SWAP1 POP GT DUP1 ISZERO PUSH2 0x2DA7 JUMPI POP PUSH1 0x0 PUSH1 0x3 PUSH1 0x0 DUP6 PUSH20 0xFFFFFFFFFFFFFFFFFFFFFFFFFFFFFFFFFFFFFFFF AND PUSH20 0xFFFFFFFFFFFFFFFFFFFFFFFFFFFFFFFFFFFFFFFF AND DUP2 MSTORE PUSH1 0x20 ADD SWAP1 DUP2 MSTORE PUSH1 0x20 ADD PUSH1 0x0 KECCAK256 PUSH1 0x0 DUP5 PUSH1 0xFF AND DUP2 MSTORE PUSH1 0x20 ADD SWAP1 DUP2 MSTORE PUSH1 0x20 ADD PUSH1 0x0 KECCAK256 DUP3 DUP2 SLOAD DUP2 LT PUSH2 0x2D93 JUMPI PUSH2 0x2D92 PUSH2 0x5788 JUMP JUMPDEST JUMPDEST SWAP1 PUSH1 0x0 MSTORE PUSH1 0x20 PUSH1 0x0 KECCAK256 SWAP1 PUSH1 0x6 MUL ADD PUSH1 0x1 ADD SLOAD EQ JUMPDEST ISZERO PUSH2 0x300C JUMPI PUSH1 0x0 DUP2 SWAP1 POP JUMPDEST PUSH1 0x1 PUSH1 0x3 PUSH1 0x0 DUP7 PUSH20 0xFFFFFFFFFFFFFFFFFFFFFFFFFFFFFFFFFFFFFFFF AND PUSH20 0xFFFFFFFFFFFFFFFFFFFFFFFFFFFFFFFFFFFFFFFF AND DUP2 MSTORE PUSH1 0x20 ADD SWAP1 DUP2 MSTORE PUSH1 0x20 ADD PUSH1 0x0 KECCAK256 PUSH1 0x0 DUP6 PUSH1 0xFF AND DUP2 MSTORE PUSH1 0x20 ADD SWAP1 DUP2 MSTORE PUSH1 0x20 ADD PUSH1 0x0 KECCAK256 DUP1 SLOAD SWAP1 POP PUSH2 0x2E15 SWAP2 SWAP1 PUSH2 0x5B2E JUMP JUMPDEST DUP2 LT ISZERO PUSH2 0x2F5A JUMPI PUSH1 0x3 PUSH1 0x0 DUP6 PUSH20 0xFFFFFFFFFFFFFFFFFFFFFFFFFFFFFFFFFFFFFFFF AND PUSH20 0xFFFFFFFFFFFFFFFFFFFFFFFFFFFFFFFFFFFFFFFF AND DUP2 MSTORE PUSH1 0x20 ADD SWAP1 DUP2 MSTORE PUSH1 0x20 ADD PUSH1 0x0 KECCAK256 PUSH1 0x0 DUP5 PUSH1 0xFF AND DUP2 MSTORE PUSH1 0x20 ADD SWAP1 DUP2 MSTORE PUSH1 0x20 ADD PUSH1 0x0 KECCAK256 PUSH1 0x1 DUP3 PUSH2 0x2E7C SWAP2 SWAP1 PUSH2 0x5B62 JUMP JUMPDEST DUP2 SLOAD DUP2 LT PUSH2 0x2E8D JUMPI PUSH2 0x2E8C PUSH2 0x5788 JUMP JUMPDEST JUMPDEST SWAP1 PUSH1 0x0 MSTORE PUSH1 0x20 PUSH1 0x0 KECCAK256 SWAP1 PUSH1 0x6 MUL ADD PUSH1 0x3 PUSH1 0x0 DUP7 PUSH20 0xFFFFFFFFFFFFFFFFFFFFFFFFFFFFFFFFFFFFFFFF AND PUSH20 0xFFFFFFFFFFFFFFFFFFFFFFFFFFFFFFFFFFFFFFFF AND DUP2 MSTORE PUSH1 0x20 ADD SWAP1 DUP2 MSTORE PUSH1 0x20 ADD PUSH1 0x0 KECCAK256 PUSH1 0x0 DUP6 PUSH1 0xFF AND DUP2 MSTORE PUSH1 0x20 ADD SWAP1 DUP2 MSTORE PUSH1 0x20 ADD PUSH1 0x0 KECCAK256 DUP3 DUP2 SLOAD DUP2 LT PUSH2 0x2F00 JUMPI PUSH2 0x2EFF PUSH2 0x5788 JUMP JUMPDEST JUMPDEST SWAP1 PUSH1 0x0 MSTORE PUSH1 0x20 PUSH1 0x0 KECCAK256 SWAP1 PUSH1 0x6 MUL ADD PUSH1 0x0 DUP3 ADD SLOAD DUP2 PUSH1 0x0 ADD SSTORE PUSH1 0x1 DUP3 ADD SLOAD DUP2 PUSH1 0x1 ADD SSTORE PUSH1 0x2 DUP3 ADD SLOAD DUP2 PUSH1 0x2 ADD SSTORE PUSH1 0x3 DUP3 ADD SLOAD DUP2 PUSH1 0x3 ADD SSTORE PUSH1 0x4 DUP3 ADD SLOAD DUP2 PUSH1 0x4 ADD SSTORE PUSH1 0x5 DUP3 ADD SLOAD DUP2 PUSH1 0x5 ADD SSTORE SWAP1 POP POP DUP1 DUP1 PUSH1 0x1 ADD SWAP2 POP POP PUSH2 0x2DB2 JUMP JUMPDEST POP PUSH1 0x3 PUSH1 0x0 DUP5 PUSH20 0xFFFFFFFFFFFFFFFFFFFFFFFFFFFFFFFFFFFFFFFF AND PUSH20 0xFFFFFFFFFFFFFFFFFFFFFFFFFFFFFFFFFFFFFFFF AND DUP2 MSTORE PUSH1 0x20 ADD SWAP1 DUP2 MSTORE PUSH1 0x20 ADD PUSH1 0x0 KECCAK256 PUSH1 0x0 DUP4 PUSH1 0xFF AND DUP2 MSTORE PUSH1 0x20 ADD SWAP1 DUP2 MSTORE PUSH1 0x20 ADD PUSH1 0x0 KECCAK256 DUP1 SLOAD DUP1 PUSH2 0x2FBE JUMPI PUSH2 0x2FBD PUSH2 0x5B96 JUMP JUMPDEST JUMPDEST PUSH1 0x1 SWAP1 SUB DUP2 DUP2 SWAP1 PUSH1 0x0 MSTORE PUSH1 0x20 PUSH1 0x0 KECCAK256 SWAP1 PUSH1 0x6 MUL ADD PUSH1 0x0 DUP1 DUP3 ADD PUSH1 0x0 SWAP1 SSTORE PUSH1 0x1 DUP3 ADD PUSH1 0x0 SWAP1 SSTORE PUSH1 0x2 DUP3 ADD PUSH1 0x0 SWAP1 SSTORE PUSH1 0x3 DUP3 ADD PUSH1 0x0 SWAP1 SSTORE PUSH1 0x4 DUP3 ADD PUSH1 0x0 SWAP1 SSTORE PUSH1 0x5 DUP3 ADD PUSH1 0x0 SWAP1 SSTORE POP POP SWAP1 SSTORE PUSH2 0x2CCB JUMP JUMPDEST DUP1 DUP1 PUSH1 0x1 ADD SWAP2 POP POP PUSH2 0x2C6C JUMP JUMPDEST POP POP POP JUMP JUMPDEST PUSH2 0x3026 PUSH2 0x480E JUMP JUMPDEST PUSH20 0xFFFFFFFFFFFFFFFFFFFFFFFFFFFFFFFFFFFFFFFF AND PUSH2 0x3044 PUSH2 0x2A9D JUMP JUMPDEST PUSH20 0xFFFFFFFFFFFFFFFFFFFFFFFFFFFFFFFFFFFFFFFF AND EQ PUSH2 0x309A JUMPI PUSH1 0x40 MLOAD PUSH32 0x8C379A000000000000000000000000000000000000000000000000000000000 DUP2 MSTORE PUSH1 0x4 ADD PUSH2 0x3091 SWAP1 PUSH2 0x5A7C JUMP JUMPDEST PUSH1 0x40 MLOAD DUP1 SWAP2 SUB SWAP1 REVERT JUMPDEST DUP1 PUSH1 0xD PUSH1 0x0 DUP5 PUSH1 0xFF AND PUSH1 0xFF AND DUP2 MSTORE PUSH1 0x20 ADD SWAP1 DUP2 MSTORE PUSH1 0x20 ADD PUSH1 0x0 KECCAK256 PUSH1 0x0 PUSH2 0x100 EXP DUP2 SLOAD DUP2 PUSH1 0xFF MUL NOT AND SWAP1 DUP4 ISZERO ISZERO MUL OR SWAP1 SSTORE POP POP POP JUMP JUMPDEST PUSH1 0x0 DUP1 PUSH1 0x3 PUSH1 0x0 DUP6 PUSH20 0xFFFFFFFFFFFFFFFFFFFFFFFFFFFFFFFFFFFFFFFF AND PUSH20 0xFFFFFFFFFFFFFFFFFFFFFFFFFFFFFFFFFFFFFFFF AND DUP2 MSTORE PUSH1 0x20 ADD SWAP1 DUP2 MSTORE PUSH1 0x20 ADD PUSH1 0x0 KECCAK256 PUSH1 0x0 DUP5 PUSH1 0xFF AND DUP2 MSTORE PUSH1 0x20 ADD SWAP1 DUP2 MSTORE PUSH1 0x20 ADD PUSH1 0x0 KECCAK256 DUP1 SLOAD DUP1 PUSH1 0x20 MUL PUSH1 0x20 ADD PUSH1 0x40 MLOAD SWAP1 DUP2 ADD PUSH1 0x40 MSTORE DUP1 SWAP3 SWAP2 SWAP1 DUP2 DUP2 MSTORE PUSH1 0x20 ADD PUSH1 0x0 SWAP1 JUMPDEST DUP3 DUP3 LT ISZERO PUSH2 0x31B3 JUMPI DUP4 DUP3 SWAP1 PUSH1 0x0 MSTORE PUSH1 0x20 PUSH1 0x0 KECCAK256 SWAP1 PUSH1 0x6 MUL ADD PUSH1 0x40 MLOAD DUP1 PUSH1 0xC0 ADD PUSH1 0x40 MSTORE SWAP1 DUP2 PUSH1 0x0 DUP3 ADD SLOAD DUP2 MSTORE PUSH1 0x20 ADD PUSH1 0x1 DUP3 ADD SLOAD DUP2 MSTORE PUSH1 0x20 ADD PUSH1 0x2 DUP3 ADD SLOAD DUP2 MSTORE PUSH1 0x20 ADD PUSH1 0x3 DUP3 ADD SLOAD DUP2 MSTORE PUSH1 0x20 ADD PUSH1 0x4 DUP3 ADD SLOAD DUP2 MSTORE PUSH1 0x20 ADD PUSH1 0x5 DUP3 ADD SLOAD DUP2 MSTORE POP POP DUP2 MSTORE PUSH1 0x20 ADD SWAP1 PUSH1 0x1 ADD SWAP1 PUSH2 0x3145 JUMP JUMPDEST POP POP POP POP SWAP1 POP PUSH1 0x0 JUMPDEST DUP2 MLOAD DUP2 LT ISZERO PUSH2 0x322C JUMPI TIMESTAMP DUP3 DUP3 DUP2 MLOAD DUP2 LT PUSH2 0x31D9 JUMPI PUSH2 0x31D8 PUSH2 0x5788 JUMP JUMPDEST JUMPDEST PUSH1 0x20 MUL PUSH1 0x20 ADD ADD MLOAD PUSH1 0x60 ADD MLOAD LT ISZERO PUSH2 0x321F JUMPI PUSH2 0x321C DUP3 DUP3 DUP2 MLOAD DUP2 LT PUSH2 0x3201 JUMPI PUSH2 0x3200 PUSH2 0x5788 JUMP JUMPDEST JUMPDEST PUSH1 0x20 MUL PUSH1 0x20 ADD ADD MLOAD PUSH1 0x20 ADD MLOAD DUP5 PUSH2 0x44DC SWAP1 SWAP2 SWAP1 PUSH4 0xFFFFFFFF AND JUMP JUMPDEST SWAP3 POP JUMPDEST DUP1 DUP1 PUSH1 0x1 ADD SWAP2 POP POP PUSH2 0x31BC JUMP JUMPDEST POP POP SWAP3 SWAP2 POP POP JUMP JUMPDEST PUSH1 0x7 SLOAD DUP2 JUMP JUMPDEST PUSH1 0x8 SLOAD DUP2 JUMP JUMPDEST PUSH1 0x0 DUP1 PUSH1 0x0 DUP1 PUSH1 0x0 DUP1 PUSH1 0x0 DUP1 PUSH1 0xA DUP12 PUSH1 0xFF AND DUP2 SLOAD DUP2 LT PUSH2 0x3263 JUMPI PUSH2 0x3262 PUSH2 0x5788 JUMP JUMPDEST JUMPDEST SWAP1 PUSH1 0x0 MSTORE PUSH1 0x20 PUSH1 0x0 KECCAK256 SWAP1 PUSH1 0x6 MUL ADD SWAP1 POP PUSH1 0x0 PUSH1 0xB PUSH1 0x0 DUP14 PUSH1 0xFF AND DUP2 MSTORE PUSH1 0x20 ADD SWAP1 DUP2 MSTORE PUSH1 0x20 ADD PUSH1 0x0 KECCAK256 PUSH1 0x0 DUP13 PUSH20 0xFFFFFFFFFFFFFFFFFFFFFFFFFFFFFFFFFFFFFFFF AND PUSH20 0xFFFFFFFFFFFFFFFFFFFFFFFFFFFFFFFFFFFFFFFF AND DUP2 MSTORE PUSH1 0x20 ADD SWAP1 DUP2 MSTORE PUSH1 0x20 ADD PUSH1 0x0 KECCAK256 SWAP1 POP PUSH1 0x0 PUSH1 0x3 PUSH1 0x0 DUP14 PUSH20 0xFFFFFFFFFFFFFFFFFFFFFFFFFFFFFFFFFFFFFFFF AND PUSH20 0xFFFFFFFFFFFFFFFFFFFFFFFFFFFFFFFFFFFFFFFF AND DUP2 MSTORE PUSH1 0x20 ADD SWAP1 DUP2 MSTORE PUSH1 0x20 ADD PUSH1 0x0 KECCAK256 PUSH1 0x0 DUP15 PUSH1 0xFF AND DUP2 MSTORE PUSH1 0x20 ADD SWAP1 DUP2 MSTORE PUSH1 0x20 ADD PUSH1 0x0 KECCAK256 DUP1 SLOAD DUP1 PUSH1 0x20 MUL PUSH1 0x20 ADD PUSH1 0x40 MLOAD SWAP1 DUP2 ADD PUSH1 0x40 MSTORE DUP1 SWAP3 SWAP2 SWAP1 DUP2 DUP2 MSTORE PUSH1 0x20 ADD PUSH1 0x0 SWAP1 JUMPDEST DUP3 DUP3 LT ISZERO PUSH2 0x33AD JUMPI DUP4 DUP3 SWAP1 PUSH1 0x0 MSTORE PUSH1 0x20 PUSH1 0x0 KECCAK256 SWAP1 PUSH1 0x6 MUL ADD PUSH1 0x40 MLOAD DUP1 PUSH1 0xC0 ADD PUSH1 0x40 MSTORE SWAP1 DUP2 PUSH1 0x0 DUP3 ADD SLOAD DUP2 MSTORE PUSH1 0x20 ADD PUSH1 0x1 DUP3 ADD SLOAD DUP2 MSTORE PUSH1 0x20 ADD PUSH1 0x2 DUP3 ADD SLOAD DUP2 MSTORE PUSH1 0x20 ADD PUSH1 0x3 DUP3 ADD SLOAD DUP2 MSTORE PUSH1 0x20 ADD PUSH1 0x4 DUP3 ADD SLOAD DUP2 MSTORE PUSH1 0x20 ADD PUSH1 0x5 DUP3 ADD SLOAD DUP2 MSTORE POP POP DUP2 MSTORE PUSH1 0x20 ADD SWAP1 PUSH1 0x1 ADD SWAP1 PUSH2 0x333F JUMP JUMPDEST POP POP POP POP SWAP1 POP PUSH2 0x3490 PUSH2 0x3481 DUP5 PUSH1 0x0 ADD PUSH1 0x0 SWAP1 SLOAD SWAP1 PUSH2 0x100 EXP SWAP1 DIV PUSH20 0xFFFFFFFFFFFFFFFFFFFFFFFFFFFFFFFFFFFFFFFF AND PUSH20 0xFFFFFFFFFFFFFFFFFFFFFFFFFFFFFFFFFFFFFFFF AND PUSH4 0x70A08231 ADDRESS PUSH1 0x40 MLOAD DUP3 PUSH4 0xFFFFFFFF AND PUSH1 0xE0 SHL DUP2 MSTORE PUSH1 0x4 ADD PUSH2 0x3416 SWAP2 SWAP1 PUSH2 0x542C JUMP JUMPDEST PUSH1 0x20 PUSH1 0x40 MLOAD DUP1 DUP4 SUB DUP2 DUP7 GAS STATICCALL ISZERO DUP1 ISZERO PUSH2 0x3433 JUMPI RETURNDATASIZE PUSH1 0x0 DUP1 RETURNDATACOPY RETURNDATASIZE PUSH1 0x0 REVERT JUMPDEST POP POP POP POP PUSH1 0x40 MLOAD RETURNDATASIZE PUSH1 0x1F NOT PUSH1 0x1F DUP3 ADD AND DUP3 ADD DUP1 PUSH1 0x40 MSTORE POP DUP2 ADD SWAP1 PUSH2 0x3457 SWAP2 SWAP1 PUSH2 0x57CC JUMP JUMPDEST PUSH2 0x3473 PUSH5 0xE8D4A51000 DUP7 PUSH1 0x3 ADD SLOAD PUSH2 0x440A SWAP1 SWAP2 SWAP1 PUSH4 0xFFFFFFFF AND JUMP JUMPDEST PUSH2 0x4484 SWAP1 SWAP2 SWAP1 PUSH4 0xFFFFFFFF AND JUMP JUMPDEST DUP13 PUSH2 0x453A SWAP1 SWAP2 SWAP1 PUSH4 0xFFFFFFFF AND JUMP JUMPDEST SWAP11 POP PUSH1 0x0 JUMPDEST DUP2 MLOAD DUP2 LT ISZERO PUSH2 0x3642 JUMPI PUSH2 0x3504 PUSH5 0xE8D4A51000 PUSH2 0x34F6 DUP5 DUP5 DUP2 MLOAD DUP2 LT PUSH2 0x34BD JUMPI PUSH2 0x34BC PUSH2 0x5788 JUMP JUMPDEST JUMPDEST PUSH1 0x20 MUL PUSH1 0x20 ADD ADD MLOAD PUSH1 0x80 ADD MLOAD DUP6 DUP6 DUP2 MLOAD DUP2 LT PUSH2 0x34DC JUMPI PUSH2 0x34DB PUSH2 0x5788 JUMP JUMPDEST JUMPDEST PUSH1 0x20 MUL PUSH1 0x20 ADD ADD MLOAD PUSH1 0x20 ADD MLOAD PUSH2 0x440A SWAP1 SWAP2 SWAP1 PUSH4 0xFFFFFFFF AND JUMP JUMPDEST PUSH2 0x4484 SWAP1 SWAP2 SWAP1 PUSH4 0xFFFFFFFF AND JUMP JUMPDEST SWAP6 POP PUSH2 0x3519 DUP7 DUP7 PUSH2 0x44DC SWAP1 SWAP2 SWAP1 PUSH4 0xFFFFFFFF AND JUMP JUMPDEST SWAP5 POP TIMESTAMP DUP3 DUP3 DUP2 MLOAD DUP2 LT PUSH2 0x352F JUMPI PUSH2 0x352E PUSH2 0x5788 JUMP JUMPDEST JUMPDEST PUSH1 0x20 MUL PUSH1 0x20 ADD ADD MLOAD PUSH1 0x60 ADD MLOAD GT PUSH2 0x3635 JUMPI PUSH2 0x3588 PUSH5 0xE8D4A51000 PUSH2 0x357A DUP15 DUP6 DUP6 DUP2 MLOAD DUP2 LT PUSH2 0x3560 JUMPI PUSH2 0x355F PUSH2 0x5788 JUMP JUMPDEST JUMPDEST PUSH1 0x20 MUL PUSH1 0x20 ADD ADD MLOAD PUSH1 0x20 ADD MLOAD PUSH2 0x440A SWAP1 SWAP2 SWAP1 PUSH4 0xFFFFFFFF AND JUMP JUMPDEST PUSH2 0x4484 SWAP1 SWAP2 SWAP1 PUSH4 0xFFFFFFFF AND JUMP JUMPDEST SWAP8 POP PUSH2 0x359D DUP7 DUP10 PUSH2 0x453A SWAP1 SWAP2 SWAP1 PUSH4 0xFFFFFFFF AND JUMP JUMPDEST SWAP8 POP PUSH2 0x35AA DUP15 DUP15 DUP4 PUSH2 0xD6B JUMP JUMPDEST SWAP7 POP PUSH2 0x35E5 PUSH2 0x35D6 PUSH2 0x2710 PUSH2 0x35C8 DUP11 DUP13 PUSH2 0x440A SWAP1 SWAP2 SWAP1 PUSH4 0xFFFFFFFF AND JUMP JUMPDEST PUSH2 0x4484 SWAP1 SWAP2 SWAP1 PUSH4 0xFFFFFFFF AND JUMP JUMPDEST DUP11 PUSH2 0x44DC SWAP1 SWAP2 SWAP1 PUSH4 0xFFFFFFFF AND JUMP JUMPDEST SWAP9 POP PUSH2 0x3632 PUSH2 0x3623 PUSH2 0x3614 PUSH2 0x2710 PUSH2 0x3606 DUP12 DUP14 PUSH2 0x440A SWAP1 SWAP2 SWAP1 PUSH4 0xFFFFFFFF AND JUMP JUMPDEST PUSH2 0x4484 SWAP1 SWAP2 SWAP1 PUSH4 0xFFFFFFFF AND JUMP JUMPDEST DUP11 PUSH2 0x453A SWAP1 SWAP2 SWAP1 PUSH4 0xFFFFFFFF AND JUMP JUMPDEST DUP12 PUSH2 0x44DC SWAP1 SWAP2 SWAP1 PUSH4 0xFFFFFFFF AND JUMP JUMPDEST SWAP10 POP JUMPDEST DUP1 DUP1 PUSH1 0x1 ADD SWAP2 POP POP PUSH2 0x3495 JUMP JUMPDEST POP PUSH2 0x3683 DUP5 PUSH2 0x3675 PUSH5 0xE8D4A51000 PUSH2 0x3667 DUP16 DUP8 PUSH1 0x0 ADD SLOAD PUSH2 0x440A SWAP1 SWAP2 SWAP1 PUSH4 0xFFFFFFFF AND JUMP JUMPDEST PUSH2 0x4484 SWAP1 SWAP2 SWAP1 PUSH4 0xFFFFFFFF AND JUMP JUMPDEST PUSH2 0x453A SWAP1 SWAP2 SWAP1 PUSH4 0xFFFFFFFF AND JUMP JUMPDEST SWAP10 POP POP POP POP POP POP POP POP SWAP4 POP SWAP4 POP SWAP4 SWAP1 POP JUMP JUMPDEST PUSH1 0x9 SLOAD DUP2 JUMP JUMPDEST PUSH1 0x3C DUP2 JUMP JUMPDEST PUSH2 0x36A8 PUSH2 0x480E JUMP JUMPDEST PUSH20 0xFFFFFFFFFFFFFFFFFFFFFFFFFFFFFFFFFFFFFFFF AND PUSH2 0x36C6 PUSH2 0x2A9D JUMP JUMPDEST PUSH20 0xFFFFFFFFFFFFFFFFFFFFFFFFFFFFFFFFFFFFFFFF AND EQ PUSH2 0x371C JUMPI PUSH1 0x40 MLOAD PUSH32 0x8C379A000000000000000000000000000000000000000000000000000000000 DUP2 MSTORE PUSH1 0x4 ADD PUSH2 0x3713 SWAP1 PUSH2 0x5A7C JUMP JUMPDEST PUSH1 0x40 MLOAD DUP1 SWAP2 SUB SWAP1 REVERT JUMPDEST PUSH2 0x2710 DUP3 PUSH2 0xFFFF AND GT ISZERO PUSH2 0x3765 JUMPI PUSH1 0x40 MLOAD PUSH32 0x8C379A000000000000000000000000000000000000000000000000000000000 DUP2 MSTORE PUSH1 0x4 ADD PUSH2 0x375C SWAP1 PUSH2 0x5C37 JUMP JUMPDEST PUSH1 0x40 MLOAD DUP1 SWAP2 SUB SWAP1 REVERT JUMPDEST DUP1 ISZERO PUSH2 0x3774 JUMPI PUSH2 0x3773 PUSH2 0x225A JUMP JUMPDEST JUMPDEST PUSH2 0x37C3 DUP4 PUSH2 0x37B5 PUSH1 0xA DUP8 PUSH1 0xFF AND DUP2 SLOAD DUP2 LT PUSH2 0x3792 JUMPI PUSH2 0x3791 PUSH2 0x5788 JUMP JUMPDEST JUMPDEST SWAP1 PUSH1 0x0 MSTORE PUSH1 0x20 PUSH1 0x0 KECCAK256 SWAP1 PUSH1 0x6 MUL ADD PUSH1 0x1 ADD SLOAD PUSH1 0xC SLOAD PUSH2 0x453A SWAP1 SWAP2 SWAP1 PUSH4 0xFFFFFFFF AND JUMP JUMPDEST PUSH2 0x44DC SWAP1 SWAP2 SWAP1 PUSH4 0xFFFFFFFF AND JUMP JUMPDEST PUSH1 0xC DUP2 SWAP1 SSTORE POP DUP3 PUSH1 0xA DUP6 PUSH1 0xFF AND DUP2 SLOAD DUP2 LT PUSH2 0x37E1 JUMPI PUSH2 0x37E0 PUSH2 0x5788 JUMP JUMPDEST JUMPDEST SWAP1 PUSH1 0x0 MSTORE PUSH1 0x20 PUSH1 0x0 KECCAK256 SWAP1 PUSH1 0x6 MUL ADD PUSH1 0x1 ADD DUP2 SWAP1 SSTORE POP PUSH1 0x3C PUSH1 0xA DUP6 PUSH1 0xFF AND DUP2 SLOAD DUP2 LT PUSH2 0x380F JUMPI PUSH2 0x380E PUSH2 0x5788 JUMP JUMPDEST JUMPDEST SWAP1 PUSH1 0x0 MSTORE PUSH1 0x20 PUSH1 0x0 KECCAK256 SWAP1 PUSH1 0x6 MUL ADD PUSH1 0x4 ADD DUP2 SWAP1 SSTORE POP POP POP POP POP JUMP JUMPDEST PUSH1 0x0 DUP1 PUSH1 0xB PUSH1 0x0 DUP6 PUSH1 0xFF AND DUP2 MSTORE PUSH1 0x20 ADD SWAP1 DUP2 MSTORE PUSH1 0x20 ADD PUSH1 0x0 KECCAK256 PUSH1 0x0 DUP5 PUSH20 0xFFFFFFFFFFFFFFFFFFFFFFFFFFFFFFFFFFFFFFFF AND PUSH20 0xFFFFFFFFFFFFFFFFFFFFFFFFFFFFFFFFFFFFFFFF AND DUP2 MSTORE PUSH1 0x20 ADD SWAP1 DUP2 MSTORE PUSH1 0x20 ADD PUSH1 0x0 KECCAK256 SWAP1 POP DUP1 PUSH1 0x1 ADD SLOAD TIMESTAMP LT ISZERO SWAP2 POP POP SWAP3 SWAP2 POP POP JUMP JUMPDEST PUSH1 0x5 PUSH1 0x0 SWAP1 SLOAD SWAP1 PUSH2 0x100 EXP SWAP1 DIV PUSH20 0xFFFFFFFFFFFFFFFFFFFFFFFFFFFFFFFFFFFFFFFF AND DUP2 JUMP JUMPDEST PUSH1 0x3 PUSH1 0x20 MSTORE DUP3 PUSH1 0x0 MSTORE PUSH1 0x40 PUSH1 0x0 KECCAK256 PUSH1 0x20 MSTORE DUP2 PUSH1 0x0 MSTORE PUSH1 0x40 PUSH1 0x0 KECCAK256 DUP2 DUP2 SLOAD DUP2 LT PUSH2 0x38E1 JUMPI PUSH1 0x0 DUP1 REVERT JUMPDEST SWAP1 PUSH1 0x0 MSTORE PUSH1 0x20 PUSH1 0x0 KECCAK256 SWAP1 PUSH1 0x6 MUL ADD PUSH1 0x0 SWAP3 POP SWAP3 POP POP POP DUP1 PUSH1 0x0 ADD SLOAD SWAP1 DUP1 PUSH1 0x1 ADD SLOAD SWAP1 DUP1 PUSH1 0x2 ADD SLOAD SWAP1 DUP1 PUSH1 0x3 ADD SLOAD SWAP1 DUP1 PUSH1 0x4 ADD SLOAD SWAP1 DUP1 PUSH1 0x5 ADD SLOAD SWAP1 POP DUP7 JUMP JUMPDEST PUSH2 0x3927 PUSH2 0x480E JUMP JUMPDEST PUSH20 0xFFFFFFFFFFFFFFFFFFFFFFFFFFFFFFFFFFFFFFFF AND PUSH2 0x3945 PUSH2 0x2A9D JUMP JUMPDEST PUSH20 0xFFFFFFFFFFFFFFFFFFFFFFFFFFFFFFFFFFFFFFFF AND EQ PUSH2 0x399B JUMPI PUSH1 0x40 MLOAD PUSH32 0x8C379A000000000000000000000000000000000000000000000000000000000 DUP2 MSTORE PUSH1 0x4 ADD PUSH2 0x3992 SWAP1 PUSH2 0x5A7C JUMP JUMPDEST PUSH1 0x40 MLOAD DUP1 SWAP2 SUB SWAP1 REVERT JUMPDEST PUSH1 0x0 PUSH20 0xFFFFFFFFFFFFFFFFFFFFFFFFFFFFFFFFFFFFFFFF AND DUP2 PUSH20 0xFFFFFFFFFFFFFFFFFFFFFFFFFFFFFFFFFFFFFFFF AND SUB PUSH2 0x3A0A JUMPI PUSH1 0x40 MLOAD PUSH32 0x8C379A000000000000000000000000000000000000000000000000000000000 DUP2 MSTORE PUSH1 0x4 ADD PUSH2 0x3A01 SWAP1 PUSH2 0x5CC9 JUMP JUMPDEST PUSH1 0x40 MLOAD DUP1 SWAP2 SUB SWAP1 REVERT JUMPDEST PUSH2 0x3A13 DUP2 PUSH2 0x4816 JUMP JUMPDEST POP JUMP JUMPDEST PUSH1 0x2 PUSH1 0x1 SLOAD SUB PUSH2 0x3A5B JUMPI PUSH1 0x40 MLOAD PUSH32 0x8C379A000000000000000000000000000000000000000000000000000000000 DUP2 MSTORE PUSH1 0x4 ADD PUSH2 0x3A52 SWAP1 PUSH2 0x5874 JUMP JUMPDEST PUSH1 0x40 MLOAD DUP1 SWAP2 SUB SWAP1 REVERT JUMPDEST PUSH1 0x2 PUSH1 0x1 DUP2 SWAP1 SSTORE POP PUSH1 0x1 ISZERO ISZERO PUSH1 0xD PUSH1 0x0 DUP5 PUSH1 0xFF AND PUSH1 0xFF AND DUP2 MSTORE PUSH1 0x20 ADD SWAP1 DUP2 MSTORE PUSH1 0x20 ADD PUSH1 0x0 KECCAK256 PUSH1 0x0 SWAP1 SLOAD SWAP1 PUSH2 0x100 EXP SWAP1 DIV PUSH1 0xFF AND ISZERO ISZERO EQ PUSH2 0x3AD0 JUMPI PUSH1 0x40 MLOAD PUSH32 0x8C379A000000000000000000000000000000000000000000000000000000000 DUP2 MSTORE PUSH1 0x4 ADD PUSH2 0x3AC7 SWAP1 PUSH2 0x5768 JUMP JUMPDEST PUSH1 0x40 MLOAD DUP1 SWAP2 SUB SWAP1 REVERT JUMPDEST PUSH1 0x0 DUP2 GT PUSH2 0x3B13 JUMPI PUSH1 0x40 MLOAD PUSH32 0x8C379A000000000000000000000000000000000000000000000000000000000 DUP2 MSTORE PUSH1 0x4 ADD PUSH2 0x3B0A SWAP1 PUSH2 0x5768 JUMP JUMPDEST PUSH1 0x40 MLOAD DUP1 SWAP2 SUB SWAP1 REVERT JUMPDEST PUSH1 0x0 PUSH1 0xA DUP4 PUSH1 0xFF AND DUP2 SLOAD DUP2 LT PUSH2 0x3B2C JUMPI PUSH2 0x3B2B PUSH2 0x5788 JUMP JUMPDEST JUMPDEST SWAP1 PUSH1 0x0 MSTORE PUSH1 0x20 PUSH1 0x0 KECCAK256 SWAP1 PUSH1 0x6 MUL ADD SWAP1 POP PUSH1 0x0 PUSH1 0xB PUSH1 0x0 DUP6 PUSH1 0xFF AND DUP2 MSTORE PUSH1 0x20 ADD SWAP1 DUP2 MSTORE PUSH1 0x20 ADD PUSH1 0x0 KECCAK256 PUSH1 0x0 CALLER PUSH20 0xFFFFFFFFFFFFFFFFFFFFFFFFFFFFFFFFFFFFFFFF AND PUSH20 0xFFFFFFFFFFFFFFFFFFFFFFFFFFFFFFFFFFFFFFFF AND DUP2 MSTORE PUSH1 0x20 ADD SWAP1 DUP2 MSTORE PUSH1 0x20 ADD PUSH1 0x0 KECCAK256 SWAP1 POP PUSH2 0x3B9C DUP5 PUSH2 0xB41 JUMP JUMPDEST PUSH2 0x3BED CALLER ADDRESS DUP6 DUP6 PUSH1 0x0 ADD PUSH1 0x0 SWAP1 SLOAD SWAP1 PUSH2 0x100 EXP SWAP1 DIV PUSH20 0xFFFFFFFFFFFFFFFFFFFFFFFFFFFFFFFFFFFFFFFF AND PUSH20 0xFFFFFFFFFFFFFFFFFFFFFFFFFFFFFFFFFFFFFFFF AND PUSH2 0x48DA SWAP1 SWAP4 SWAP3 SWAP2 SWAP1 PUSH4 0xFFFFFFFF AND JUMP JUMPDEST PUSH2 0x3C04 DUP4 DUP3 PUSH1 0x0 ADD SLOAD PUSH2 0x44DC SWAP1 SWAP2 SWAP1 PUSH4 0xFFFFFFFF AND JUMP JUMPDEST DUP2 PUSH1 0x0 ADD DUP2 SWAP1 SSTORE POP PUSH1 0x3 PUSH1 0x0 CALLER PUSH20 0xFFFFFFFFFFFFFFFFFFFFFFFFFFFFFFFFFFFFFFFF AND PUSH20 0xFFFFFFFFFFFFFFFFFFFFFFFFFFFFFFFFFFFFFFFF AND DUP2 MSTORE PUSH1 0x20 ADD SWAP1 DUP2 MSTORE PUSH1 0x20 ADD PUSH1 0x0 KECCAK256 PUSH1 0x0 DUP6 PUSH1 0xFF AND DUP2 MSTORE PUSH1 0x20 ADD SWAP1 DUP2 MSTORE PUSH1 0x20 ADD PUSH1 0x0 KECCAK256 PUSH1 0x40 MLOAD DUP1 PUSH1 0xC0 ADD PUSH1 0x40 MSTORE DUP1 DUP7 PUSH1 0xFF AND DUP2 MSTORE PUSH1 0x20 ADD DUP6 DUP2 MSTORE PUSH1 0x20 ADD PUSH3 0x15180 DUP2 MSTORE PUSH1 0x20 ADD PUSH2 0x3C98 PUSH3 0x15180 TIMESTAMP PUSH2 0x44DC SWAP1 SWAP2 SWAP1 PUSH4 0xFFFFFFFF AND JUMP JUMPDEST DUP2 MSTORE PUSH1 0x20 ADD DUP5 PUSH1 0x3 ADD SLOAD DUP2 MSTORE PUSH1 0x20 ADD PUSH1 0x0 DUP2 MSTORE POP SWAP1 DUP1 PUSH1 0x1 DUP2 SLOAD ADD DUP1 DUP3 SSTORE DUP1 SWAP2 POP POP PUSH1 0x1 SWAP1 SUB SWAP1 PUSH1 0x0 MSTORE PUSH1 0x20 PUSH1 0x0 KECCAK256 SWAP1 PUSH1 0x6 MUL ADD PUSH1 0x0 SWAP1 SWAP2 SWAP1 SWAP2 SWAP1 SWAP2 POP PUSH1 0x0 DUP3 ADD MLOAD DUP2 PUSH1 0x0 ADD SSTORE PUSH1 0x20 DUP3 ADD MLOAD DUP2 PUSH1 0x1 ADD SSTORE PUSH1 0x40 DUP3 ADD MLOAD DUP2 PUSH1 0x2 ADD SSTORE PUSH1 0x60 DUP3 ADD MLOAD DUP2 PUSH1 0x3 ADD SSTORE PUSH1 0x80 DUP3 ADD MLOAD DUP2 PUSH1 0x4 ADD SSTORE PUSH1 0xA0 DUP3 ADD MLOAD DUP2 PUSH1 0x5 ADD SSTORE POP POP PUSH1 0x0 DUP2 PUSH1 0x1 ADD SLOAD SUB PUSH2 0x3D3E JUMPI PUSH2 0x3D35 PUSH3 0x15180 TIMESTAMP PUSH2 0x44DC SWAP1 SWAP2 SWAP1 PUSH4 0xFFFFFFFF AND JUMP JUMPDEST DUP2 PUSH1 0x1 ADD DUP2 SWAP1 SSTORE POP JUMPDEST DUP4 PUSH1 0xFF AND CALLER PUSH20 0xFFFFFFFFFFFFFFFFFFFFFFFFFFFFFFFFFFFFFFFF AND PUSH32 0x90890809C654F11D6E72A28FA60149770A0D11EC6C92319D6CEB2BB0A4EA1A15 DUP6 PUSH1 0x40 MLOAD PUSH2 0x3D88 SWAP2 SWAP1 PUSH2 0x4BE9 JUMP JUMPDEST PUSH1 0x40 MLOAD DUP1 SWAP2 SUB SWAP1 LOG3 POP POP PUSH1 0x1 DUP1 DUP2 SWAP1 SSTORE POP POP POP JUMP JUMPDEST PUSH2 0x3DA5 PUSH2 0x480E JUMP JUMPDEST PUSH20 0xFFFFFFFFFFFFFFFFFFFFFFFFFFFFFFFFFFFFFFFF AND PUSH2 0x3DC3 PUSH2 0x2A9D JUMP JUMPDEST PUSH20 0xFFFFFFFFFFFFFFFFFFFFFFFFFFFFFFFFFFFFFFFF AND EQ PUSH2 0x3E19 JUMPI PUSH1 0x40 MLOAD PUSH32 0x8C379A000000000000000000000000000000000000000000000000000000000 DUP2 MSTORE PUSH1 0x4 ADD PUSH2 0x3E10 SWAP1 PUSH2 0x5A7C JUMP JUMPDEST PUSH1 0x40 MLOAD DUP1 SWAP2 SUB SWAP1 REVERT JUMPDEST PUSH1 0x5 PUSH1 0x0 SWAP1 SLOAD SWAP1 PUSH2 0x100 EXP SWAP1 DIV PUSH20 0xFFFFFFFFFFFFFFFFFFFFFFFFFFFFFFFFFFFFFFFF AND PUSH20 0xFFFFFFFFFFFFFFFFFFFFFFFFFFFFFFFFFFFFFFFF AND PUSH4 0x70A08231 CALLER PUSH1 0x40 MLOAD DUP3 PUSH4 0xFFFFFFFF AND PUSH1 0xE0 SHL DUP2 MSTORE PUSH1 0x4 ADD PUSH2 0x3E74 SWAP2 SWAP1 PUSH2 0x542C JUMP JUMPDEST PUSH1 0x20 PUSH1 0x40 MLOAD DUP1 DUP4 SUB DUP2 DUP7 GAS STATICCALL ISZERO DUP1 ISZERO PUSH2 0x3E91 JUMPI RETURNDATASIZE PUSH1 0x0 DUP1 RETURNDATACOPY RETURNDATASIZE PUSH1 0x0 REVERT JUMPDEST POP POP POP POP PUSH1 0x40 MLOAD RETURNDATASIZE PUSH1 0x1F NOT PUSH1 0x1F DUP3 ADD AND DUP3 ADD DUP1 PUSH1 0x40 MSTORE POP DUP2 ADD SWAP1 PUSH2 0x3EB5 SWAP2 SWAP1 PUSH2 0x57CC JUMP JUMPDEST DUP3 GT ISZERO PUSH2 0x3EF7 JUMPI PUSH1 0x40 MLOAD PUSH32 0x8C379A000000000000000000000000000000000000000000000000000000000 DUP2 MSTORE PUSH1 0x4 ADD PUSH2 0x3EEE SWAP1 PUSH2 0x5D5B JUMP JUMPDEST PUSH1 0x40 MLOAD DUP1 SWAP2 SUB SWAP1 REVERT JUMPDEST PUSH1 0x0 PUSH2 0x3F0F PUSH3 0x15180 DUP4 PUSH2 0x440A SWAP1 SWAP2 SWAP1 PUSH4 0xFFFFFFFF AND JUMP JUMPDEST SWAP1 POP PUSH1 0x6 SLOAD TIMESTAMP LT ISZERO PUSH2 0x3F56 JUMPI PUSH1 0x40 MLOAD PUSH32 0x8C379A000000000000000000000000000000000000000000000000000000000 DUP2 MSTORE PUSH1 0x4 ADD PUSH2 0x3F4D SWAP1 PUSH2 0x5DC7 JUMP JUMPDEST PUSH1 0x40 MLOAD DUP1 SWAP2 SUB SWAP1 REVERT JUMPDEST PUSH2 0x3FA5 CALLER ADDRESS DUP6 PUSH1 0x5 PUSH1 0x0 SWAP1 SLOAD SWAP1 PUSH2 0x100 EXP SWAP1 DIV PUSH20 0xFFFFFFFFFFFFFFFFFFFFFFFFFFFFFFFFFFFFFFFF AND PUSH20 0xFFFFFFFFFFFFFFFFFFFFFFFFFFFFFFFFFFFFFFFF AND PUSH2 0x48DA SWAP1 SWAP4 SWAP3 SWAP2 SWAP1 PUSH4 0xFFFFFFFF AND JUMP JUMPDEST PUSH2 0x3FB8 DUP2 DUP5 PUSH2 0x4484 SWAP1 SWAP2 SWAP1 PUSH4 0xFFFFFFFF AND JUMP JUMPDEST PUSH1 0x8 DUP2 SWAP1 SSTORE POP DUP1 TIMESTAMP PUSH2 0x3FCA SWAP2 SWAP1 PUSH2 0x5B62 JUMP JUMPDEST PUSH1 0x6 DUP2 SWAP1 SSTORE POP PUSH2 0x3FE5 DUP4 PUSH1 0x7 SLOAD PUSH2 0x44DC SWAP1 SWAP2 SWAP1 PUSH4 0xFFFFFFFF AND JUMP JUMPDEST PUSH1 0x7 DUP2 SWAP1 SSTORE POP PUSH1 0x4 PUSH1 0x40 MLOAD DUP1 PUSH1 0x60 ADD PUSH1 0x40 MSTORE DUP1 NUMBER DUP2 MSTORE PUSH1 0x20 ADD DUP4 NUMBER PUSH2 0x400A SWAP2 SWAP1 PUSH2 0x5B62 JUMP JUMPDEST DUP2 MSTORE PUSH1 0x20 ADD DUP6 DUP2 MSTORE POP SWAP1 DUP1 PUSH1 0x1 DUP2 SLOAD ADD DUP1 DUP3 SSTORE DUP1 SWAP2 POP POP PUSH1 0x1 SWAP1 SUB SWAP1 PUSH1 0x0 MSTORE PUSH1 0x20 PUSH1 0x0 KECCAK256 SWAP1 PUSH1 0x3 MUL ADD PUSH1 0x0 SWAP1 SWAP2 SWAP1 SWAP2 SWAP1 SWAP2 POP PUSH1 0x0 DUP3 ADD MLOAD DUP2 PUSH1 0x0 ADD SSTORE PUSH1 0x20 DUP3 ADD MLOAD DUP2 PUSH1 0x1 ADD SSTORE PUSH1 0x40 DUP3 ADD MLOAD DUP2 PUSH1 0x2 ADD SSTORE POP POP POP POP POP JUMP JUMPDEST PUSH1 0x2 PUSH1 0x1 SLOAD SUB PUSH2 0x40A6 JUMPI PUSH1 0x40 MLOAD PUSH32 0x8C379A000000000000000000000000000000000000000000000000000000000 DUP2 MSTORE PUSH1 0x4 ADD PUSH2 0x409D SWAP1 PUSH2 0x5874 JUMP JUMPDEST PUSH1 0x40 MLOAD DUP1 SWAP2 SUB SWAP1 REVERT JUMPDEST PUSH1 0x2 PUSH1 0x1 DUP2 SWAP1 SSTORE POP PUSH1 0x1 ISZERO ISZERO PUSH1 0xD PUSH1 0x0 DUP5 PUSH1 0xFF AND PUSH1 0xFF AND DUP2 MSTORE PUSH1 0x20 ADD SWAP1 DUP2 MSTORE PUSH1 0x20 ADD PUSH1 0x0 KECCAK256 PUSH1 0x0 SWAP1 SLOAD SWAP1 PUSH2 0x100 EXP SWAP1 DIV PUSH1 0xFF AND ISZERO ISZERO EQ PUSH2 0x411B JUMPI PUSH1 0x40 MLOAD PUSH32 0x8C379A000000000000000000000000000000000000000000000000000000000 DUP2 MSTORE PUSH1 0x4 ADD PUSH2 0x4112 SWAP1 PUSH2 0x5768 JUMP JUMPDEST PUSH1 0x40 MLOAD DUP1 SWAP2 SUB SWAP1 REVERT JUMPDEST PUSH2 0x4124 DUP3 PUSH2 0xB41 JUMP JUMPDEST PUSH2 0x412E DUP3 DUP3 PUSH2 0x2290 JUMP JUMPDEST PUSH1 0x1 DUP1 DUP2 SWAP1 SSTORE POP POP POP JUMP JUMPDEST PUSH1 0x60 DUP1 PUSH1 0x0 PUSH1 0x3 PUSH1 0x0 DUP6 PUSH20 0xFFFFFFFFFFFFFFFFFFFFFFFFFFFFFFFFFFFFFFFF AND PUSH20 0xFFFFFFFFFFFFFFFFFFFFFFFFFFFFFFFFFFFFFFFF AND DUP2 MSTORE PUSH1 0x20 ADD SWAP1 DUP2 MSTORE PUSH1 0x20 ADD PUSH1 0x0 KECCAK256 PUSH1 0x0 DUP7 PUSH1 0xFF AND DUP2 MSTORE PUSH1 0x20 ADD SWAP1 DUP2 MSTORE PUSH1 0x20 ADD PUSH1 0x0 KECCAK256 DUP1 SLOAD DUP1 PUSH1 0x20 MUL PUSH1 0x20 ADD PUSH1 0x40 MLOAD SWAP1 DUP2 ADD PUSH1 0x40 MSTORE DUP1 SWAP3 SWAP2 SWAP1 DUP2 DUP2 MSTORE PUSH1 0x20 ADD PUSH1 0x0 SWAP1 JUMPDEST DUP3 DUP3 LT ISZERO PUSH2 0x421F JUMPI DUP4 DUP3 SWAP1 PUSH1 0x0 MSTORE PUSH1 0x20 PUSH1 0x0 KECCAK256 SWAP1 PUSH1 0x6 MUL ADD PUSH1 0x40 MLOAD DUP1 PUSH1 0xC0 ADD PUSH1 0x40 MSTORE SWAP1 DUP2 PUSH1 0x0 DUP3 ADD SLOAD DUP2 MSTORE PUSH1 0x20 ADD PUSH1 0x1 DUP3 ADD SLOAD DUP2 MSTORE PUSH1 0x20 ADD PUSH1 0x2 DUP3 ADD SLOAD DUP2 MSTORE PUSH1 0x20 ADD PUSH1 0x3 DUP3 ADD SLOAD DUP2 MSTORE PUSH1 0x20 ADD PUSH1 0x4 DUP3 ADD SLOAD DUP2 MSTORE PUSH1 0x20 ADD PUSH1 0x5 DUP3 ADD SLOAD DUP2 MSTORE POP POP DUP2 MSTORE PUSH1 0x20 ADD SWAP1 PUSH1 0x1 ADD SWAP1 PUSH2 0x41B1 JUMP JUMPDEST POP POP POP POP SWAP1 POP PUSH1 0x0 DUP2 MLOAD PUSH8 0xFFFFFFFFFFFFFFFF DUP2 GT ISZERO PUSH2 0x4242 JUMPI PUSH2 0x4241 PUSH2 0x57F9 JUMP JUMPDEST JUMPDEST PUSH1 0x40 MLOAD SWAP1 DUP1 DUP3 MSTORE DUP1 PUSH1 0x20 MUL PUSH1 0x20 ADD DUP3 ADD PUSH1 0x40 MSTORE DUP1 ISZERO PUSH2 0x4270 JUMPI DUP2 PUSH1 0x20 ADD PUSH1 0x20 DUP3 MUL DUP1 CALLDATASIZE DUP4 CALLDATACOPY DUP1 DUP3 ADD SWAP2 POP POP SWAP1 POP JUMPDEST POP SWAP1 POP PUSH1 0x0 DUP3 MLOAD PUSH8 0xFFFFFFFFFFFFFFFF DUP2 GT ISZERO PUSH2 0x4290 JUMPI PUSH2 0x428F PUSH2 0x57F9 JUMP JUMPDEST JUMPDEST PUSH1 0x40 MLOAD SWAP1 DUP1 DUP3 MSTORE DUP1 PUSH1 0x20 MUL PUSH1 0x20 ADD DUP3 ADD PUSH1 0x40 MSTORE DUP1 ISZERO PUSH2 0x42BE JUMPI DUP2 PUSH1 0x20 ADD PUSH1 0x20 DUP3 MUL DUP1 CALLDATASIZE DUP4 CALLDATACOPY DUP1 DUP3 ADD SWAP2 POP POP SWAP1 POP JUMPDEST POP SWAP1 POP PUSH1 0x0 JUMPDEST DUP4 MLOAD DUP2 LT ISZERO PUSH2 0x432E JUMPI PUSH1 0x0 DUP1 PUSH2 0x42DB DUP11 DUP11 DUP6 PUSH2 0x1D3A JUMP JUMPDEST SWAP2 POP SWAP2 POP DUP2 DUP6 DUP5 DUP2 MLOAD DUP2 LT PUSH2 0x42F3 JUMPI PUSH2 0x42F2 PUSH2 0x5788 JUMP JUMPDEST JUMPDEST PUSH1 0x20 MUL PUSH1 0x20 ADD ADD DUP2 DUP2 MSTORE POP POP DUP1 DUP5 DUP5 DUP2 MLOAD DUP2 LT PUSH2 0x4313 JUMPI PUSH2 0x4312 PUSH2 0x5788 JUMP JUMPDEST JUMPDEST PUSH1 0x20 MUL PUSH1 0x20 ADD ADD DUP2 DUP2 MSTORE POP POP POP POP DUP1 DUP1 PUSH1 0x1 ADD SWAP2 POP POP PUSH2 0x42C4 JUMP JUMPDEST POP DUP2 DUP2 SWAP5 POP SWAP5 POP POP POP POP SWAP3 POP SWAP3 SWAP1 POP JUMP JUMPDEST PUSH2 0x4347 PUSH2 0x480E JUMP JUMPDEST PUSH20 0xFFFFFFFFFFFFFFFFFFFFFFFFFFFFFFFFFFFFFFFF AND PUSH2 0x4365 PUSH2 0x2A9D JUMP JUMPDEST PUSH20 0xFFFFFFFFFFFFFFFFFFFFFFFFFFFFFFFFFFFFFFFF AND EQ PUSH2 0x43BB JUMPI PUSH1 0x40 MLOAD PUSH32 0x8C379A000000000000000000000000000000000000000000000000000000000 DUP2 MSTORE PUSH1 0x4 ADD PUSH2 0x43B2 SWAP1 PUSH2 0x5A7C JUMP JUMPDEST PUSH1 0x40 MLOAD DUP1 SWAP2 SUB SWAP1 REVERT JUMPDEST PUSH2 0x2710 DUP2 GT ISZERO PUSH2 0x4400 JUMPI PUSH1 0x40 MLOAD PUSH32 0x8C379A000000000000000000000000000000000000000000000000000000000 DUP2 MSTORE PUSH1 0x4 ADD PUSH2 0x43F7 SWAP1 PUSH2 0x5E33 JUMP JUMPDEST PUSH1 0x40 MLOAD DUP1 SWAP2 SUB SWAP1 REVERT JUMPDEST DUP1 PUSH1 0x9 DUP2 SWAP1 SSTORE POP POP JUMP JUMPDEST PUSH1 0x0 DUP1 DUP4 SUB PUSH2 0x441C JUMPI PUSH1 0x0 SWAP1 POP PUSH2 0x447E JUMP JUMPDEST PUSH1 0x0 DUP3 DUP5 PUSH2 0x442A SWAP2 SWAP1 PUSH2 0x5E53 JUMP JUMPDEST SWAP1 POP DUP3 DUP5 DUP3 PUSH2 0x4439 SWAP2 SWAP1 PUSH2 0x5EC4 JUMP JUMPDEST EQ PUSH2 0x4479 JUMPI PUSH1 0x40 MLOAD PUSH32 0x8C379A000000000000000000000000000000000000000000000000000000000 DUP2 MSTORE PUSH1 0x4 ADD PUSH2 0x4470 SWAP1 PUSH2 0x5F67 JUMP JUMPDEST PUSH1 0x40 MLOAD DUP1 SWAP2 SUB SWAP1 REVERT JUMPDEST DUP1 SWAP2 POP POP JUMPDEST SWAP3 SWAP2 POP POP JUMP JUMPDEST PUSH1 0x0 DUP1 DUP3 GT PUSH2 0x44C8 JUMPI PUSH1 0x40 MLOAD PUSH32 0x8C379A000000000000000000000000000000000000000000000000000000000 DUP2 MSTORE PUSH1 0x4 ADD PUSH2 0x44BF SWAP1 PUSH2 0x5FD3 JUMP JUMPDEST PUSH1 0x40 MLOAD DUP1 SWAP2 SUB SWAP1 REVERT JUMPDEST DUP2 DUP4 PUSH2 0x44D4 SWAP2 SWAP1 PUSH2 0x5EC4 JUMP JUMPDEST SWAP1 POP SWAP3 SWAP2 POP POP JUMP JUMPDEST PUSH1 0x0 DUP1 DUP3 DUP5 PUSH2 0x44EB SWAP2 SWAP1 PUSH2 0x5B62 JUMP JUMPDEST SWAP1 POP DUP4 DUP2 LT ISZERO PUSH2 0x4530 JUMPI PUSH1 0x40 MLOAD PUSH32 0x8C379A000000000000000000000000000000000000000000000000000000000 DUP2 MSTORE PUSH1 0x4 ADD PUSH2 0x4527 SWAP1 PUSH2 0x603F JUMP JUMPDEST PUSH1 0x40 MLOAD DUP1 SWAP2 SUB SWAP1 REVERT JUMPDEST DUP1 SWAP2 POP POP SWAP3 SWAP2 POP POP JUMP JUMPDEST PUSH1 0x0 DUP3 DUP3 GT ISZERO PUSH2 0x457F JUMPI PUSH1 0x40 MLOAD PUSH32 0x8C379A000000000000000000000000000000000000000000000000000000000 DUP2 MSTORE PUSH1 0x4 ADD PUSH2 0x4576 SWAP1 PUSH2 0x60AB JUMP JUMPDEST PUSH1 0x40 MLOAD DUP1 SWAP2 SUB SWAP1 REVERT JUMPDEST DUP2 DUP4 PUSH2 0x458B SWAP2 SWAP1 PUSH2 0x5B2E JUMP JUMPDEST SWAP1 POP SWAP3 SWAP2 POP POP JUMP JUMPDEST PUSH2 0x4614 DUP4 PUSH4 0xA9059CBB PUSH1 0xE0 SHL DUP5 DUP5 PUSH1 0x40 MLOAD PUSH1 0x24 ADD PUSH2 0x45B2 SWAP3 SWAP2 SWAP1 PUSH2 0x60CB JUMP JUMPDEST PUSH1 0x40 MLOAD PUSH1 0x20 DUP2 DUP4 SUB SUB DUP2 MSTORE SWAP1 PUSH1 0x40 MSTORE SWAP1 PUSH28 0xFFFFFFFFFFFFFFFFFFFFFFFFFFFFFFFFFFFFFFFFFFFFFFFFFFFFFFFF NOT AND PUSH1 0x20 DUP3 ADD DUP1 MLOAD PUSH28 0xFFFFFFFFFFFFFFFFFFFFFFFFFFFFFFFFFFFFFFFFFFFFFFFFFFFFFFFF DUP4 DUP2 DUP4 AND OR DUP4 MSTORE POP POP POP POP PUSH2 0x4963 JUMP JUMPDEST POP POP POP JUMP JUMPDEST PUSH1 0x0 PUSH1 0x5 PUSH1 0x0 SWAP1 SLOAD SWAP1 PUSH2 0x100 EXP SWAP1 DIV PUSH20 0xFFFFFFFFFFFFFFFFFFFFFFFFFFFFFFFFFFFFFFFF AND PUSH20 0xFFFFFFFFFFFFFFFFFFFFFFFFFFFFFFFFFFFFFFFF AND PUSH4 0x70A08231 ADDRESS PUSH1 0x40 MLOAD DUP3 PUSH4 0xFFFFFFFF AND PUSH1 0xE0 SHL DUP2 MSTORE PUSH1 0x4 ADD PUSH2 0x4676 SWAP2 SWAP1 PUSH2 0x542C JUMP JUMPDEST PUSH1 0x20 PUSH1 0x40 MLOAD DUP1 DUP4 SUB DUP2 DUP7 GAS STATICCALL ISZERO DUP1 ISZERO PUSH2 0x4693 JUMPI RETURNDATASIZE PUSH1 0x0 DUP1 RETURNDATACOPY RETURNDATASIZE PUSH1 0x0 REVERT JUMPDEST POP POP POP POP PUSH1 0x40 MLOAD RETURNDATASIZE PUSH1 0x1F NOT PUSH1 0x1F DUP3 ADD AND DUP3 ADD DUP1 PUSH1 0x40 MSTORE POP DUP2 ADD SWAP1 PUSH2 0x46B7 SWAP2 SWAP1 PUSH2 0x57CC JUMP JUMPDEST SWAP1 POP DUP1 DUP3 GT ISZERO PUSH2 0x4767 JUMPI PUSH1 0x5 PUSH1 0x0 SWAP1 SLOAD SWAP1 PUSH2 0x100 EXP SWAP1 DIV PUSH20 0xFFFFFFFFFFFFFFFFFFFFFFFFFFFFFFFFFFFFFFFF AND PUSH20 0xFFFFFFFFFFFFFFFFFFFFFFFFFFFFFFFFFFFFFFFF AND PUSH4 0xA9059CBB DUP5 DUP4 PUSH1 0x40 MLOAD DUP4 PUSH4 0xFFFFFFFF AND PUSH1 0xE0 SHL DUP2 MSTORE PUSH1 0x4 ADD PUSH2 0x471E SWAP3 SWAP2 SWAP1 PUSH2 0x60CB JUMP JUMPDEST PUSH1 0x20 PUSH1 0x40 MLOAD DUP1 DUP4 SUB DUP2 PUSH1 0x0 DUP8 GAS CALL ISZERO DUP1 ISZERO PUSH2 0x473D JUMPI RETURNDATASIZE PUSH1 0x0 DUP1 RETURNDATACOPY RETURNDATASIZE PUSH1 0x0 REVERT JUMPDEST POP POP POP POP PUSH1 0x40 MLOAD RETURNDATASIZE PUSH1 0x1F NOT PUSH1 0x1F DUP3 ADD AND DUP3 ADD DUP1 PUSH1 0x40 MSTORE POP DUP2 ADD SWAP1 PUSH2 0x4761 SWAP2 SWAP1 PUSH2 0x6109 JUMP JUMPDEST POP PUSH2 0x4809 JUMP JUMPDEST PUSH1 0x5 PUSH1 0x0 SWAP1 SLOAD SWAP1 PUSH2 0x100 EXP SWAP1 DIV PUSH20 0xFFFFFFFFFFFFFFFFFFFFFFFFFFFFFFFFFFFFFFFF AND PUSH20 0xFFFFFFFFFFFFFFFFFFFFFFFFFFFFFFFFFFFFFFFF AND PUSH4 0xA9059CBB DUP5 DUP5 PUSH1 0x40 MLOAD DUP4 PUSH4 0xFFFFFFFF AND PUSH1 0xE0 SHL DUP2 MSTORE PUSH1 0x4 ADD PUSH2 0x47C4 SWAP3 SWAP2 SWAP1 PUSH2 0x60CB JUMP JUMPDEST PUSH1 0x20 PUSH1 0x40 MLOAD DUP1 DUP4 SUB DUP2 PUSH1 0x0 DUP8 GAS CALL ISZERO DUP1 ISZERO PUSH2 0x47E3 JUMPI RETURNDATASIZE PUSH1 0x0 DUP1 RETURNDATACOPY RETURNDATASIZE PUSH1 0x0 REVERT JUMPDEST POP POP POP POP PUSH1 0x40 MLOAD RETURNDATASIZE PUSH1 0x1F NOT PUSH1 0x1F DUP3 ADD AND DUP3 ADD DUP1 PUSH1 0x40 MSTORE POP DUP2 ADD SWAP1 PUSH2 0x4807 SWAP2 SWAP1 PUSH2 0x6109 JUMP JUMPDEST POP JUMPDEST POP POP POP JUMP JUMPDEST PUSH1 0x0 CALLER SWAP1 POP SWAP1 JUMP JUMPDEST PUSH1 0x0 DUP1 PUSH1 0x0 SWAP1 SLOAD SWAP1 PUSH2 0x100 EXP SWAP1 DIV PUSH20 0xFFFFFFFFFFFFFFFFFFFFFFFFFFFFFFFFFFFFFFFF AND SWAP1 POP DUP2 PUSH1 0x0 DUP1 PUSH2 0x100 EXP DUP2 SLOAD DUP2 PUSH20 0xFFFFFFFFFFFFFFFFFFFFFFFFFFFFFFFFFFFFFFFF MUL NOT AND SWAP1 DUP4 PUSH20 0xFFFFFFFFFFFFFFFFFFFFFFFFFFFFFFFFFFFFFFFF AND MUL OR SWAP1 SSTORE POP DUP2 PUSH20 0xFFFFFFFFFFFFFFFFFFFFFFFFFFFFFFFFFFFFFFFF AND DUP2 PUSH20 0xFFFFFFFFFFFFFFFFFFFFFFFFFFFFFFFFFFFFFFFF AND PUSH32 0x8BE0079C531659141344CD1FD0A4F28419497F9722A3DAAFE3B4186F6B6457E0 PUSH1 0x40 MLOAD PUSH1 0x40 MLOAD DUP1 SWAP2 SUB SWAP1 LOG3 POP POP JUMP JUMPDEST PUSH2 0x495D DUP5 PUSH4 0x23B872DD PUSH1 0xE0 SHL DUP6 DUP6 DUP6 PUSH1 0x40 MLOAD PUSH1 0x24 ADD PUSH2 0x48FB SWAP4 SWAP3 SWAP2 SWAP1 PUSH2 0x6136 JUMP JUMPDEST PUSH1 0x40 MLOAD PUSH1 0x20 DUP2 DUP4 SUB SUB DUP2 MSTORE SWAP1 PUSH1 0x40 MSTORE SWAP1 PUSH28 0xFFFFFFFFFFFFFFFFFFFFFFFFFFFFFFFFFFFFFFFFFFFFFFFFFFFFFFFF NOT AND PUSH1 0x20 DUP3 ADD DUP1 MLOAD PUSH28 0xFFFFFFFFFFFFFFFFFFFFFFFFFFFFFFFFFFFFFFFFFFFFFFFFFFFFFFFF DUP4 DUP2 DUP4 AND OR DUP4 MSTORE POP POP POP POP PUSH2 0x4963 JUMP JUMPDEST POP POP POP POP JUMP JUMPDEST PUSH1 0x0 PUSH2 0x49C5 DUP3 PUSH1 0x40 MLOAD DUP1 PUSH1 0x40 ADD PUSH1 0x40 MSTORE DUP1 PUSH1 0x20 DUP2 MSTORE PUSH1 0x20 ADD PUSH32 0x5361666545524332303A206C6F772D6C6576656C2063616C6C206661696C6564 DUP2 MSTORE POP DUP6 PUSH20 0xFFFFFFFFFFFFFFFFFFFFFFFFFFFFFFFFFFFFFFFF AND PUSH2 0x4A2A SWAP1 SWAP3 SWAP2 SWAP1 PUSH4 0xFFFFFFFF AND JUMP JUMPDEST SWAP1 POP PUSH1 0x0 DUP2 MLOAD GT ISZERO PUSH2 0x4A25 JUMPI DUP1 DUP1 PUSH1 0x20 ADD SWAP1 MLOAD DUP2 ADD SWAP1 PUSH2 0x49E5 SWAP2 SWAP1 PUSH2 0x6109 JUMP JUMPDEST PUSH2 0x4A24 JUMPI PUSH1 0x40 MLOAD PUSH32 0x8C379A000000000000000000000000000000000000000000000000000000000 DUP2 MSTORE PUSH1 0x4 ADD PUSH2 0x4A1B SWAP1 PUSH2 0x61DF JUMP JUMPDEST PUSH1 0x40 MLOAD DUP1 SWAP2 SUB SWAP1 REVERT JUMPDEST JUMPDEST POP POP POP JUMP JUMPDEST PUSH1 0x60 PUSH2 0x4A39 DUP5 DUP5 PUSH1 0x0 DUP6 PUSH2 0x4A42 JUMP JUMPDEST SWAP1 POP SWAP4 SWAP3 POP POP POP JUMP JUMPDEST PUSH1 0x60 DUP3 SELFBALANCE LT ISZERO PUSH2 0x4A87 JUMPI PUSH1 0x40 MLOAD PUSH32 0x8C379A000000000000000000000000000000000000000000000000000000000 DUP2 MSTORE PUSH1 0x4 ADD PUSH2 0x4A7E SWAP1 PUSH2 0x6271 JUMP JUMPDEST PUSH1 0x40 MLOAD DUP1 SWAP2 SUB SWAP1 REVERT JUMPDEST PUSH2 0x4A90 DUP6 PUSH2 0x4B56 JUMP JUMPDEST PUSH2 0x4ACF JUMPI PUSH1 0x40 MLOAD PUSH32 0x8C379A000000000000000000000000000000000000000000000000000000000 DUP2 MSTORE PUSH1 0x4 ADD PUSH2 0x4AC6 SWAP1 PUSH2 0x62DD JUMP JUMPDEST PUSH1 0x40 MLOAD DUP1 SWAP2 SUB SWAP1 REVERT JUMPDEST PUSH1 0x0 DUP1 DUP7 PUSH20 0xFFFFFFFFFFFFFFFFFFFFFFFFFFFFFFFFFFFFFFFF AND DUP6 DUP8 PUSH1 0x40 MLOAD PUSH2 0x4AF8 SWAP2 SWAP1 PUSH2 0x636E JUMP JUMPDEST PUSH1 0x0 PUSH1 0x40 MLOAD DUP1 DUP4 SUB DUP2 DUP6 DUP8 GAS CALL SWAP3 POP POP POP RETURNDATASIZE DUP1 PUSH1 0x0 DUP2 EQ PUSH2 0x4B35 JUMPI PUSH1 0x40 MLOAD SWAP2 POP PUSH1 0x1F NOT PUSH1 0x3F RETURNDATASIZE ADD AND DUP3 ADD PUSH1 0x40 MSTORE RETURNDATASIZE DUP3 MSTORE RETURNDATASIZE PUSH1 0x0 PUSH1 0x20 DUP5 ADD RETURNDATACOPY PUSH2 0x4B3A JUMP JUMPDEST PUSH1 0x60 SWAP2 POP JUMPDEST POP SWAP2 POP SWAP2 POP PUSH2 0x4B4A DUP3 DUP3 DUP7 PUSH2 0x4B69 JUMP JUMPDEST SWAP3 POP POP POP SWAP5 SWAP4 POP POP POP POP JUMP JUMPDEST PUSH1 0x0 DUP1 DUP3 EXTCODESIZE SWAP1 POP PUSH1 0x0 DUP2 GT SWAP2 POP POP SWAP2 SWAP1 POP JUMP JUMPDEST PUSH1 0x60 DUP4 ISZERO PUSH2 0x4B79 JUMPI DUP3 SWAP1 POP PUSH2 0x4BC9 JUMP JUMPDEST PUSH1 0x0 DUP4 MLOAD GT ISZERO PUSH2 0x4B8C JUMPI DUP3 MLOAD DUP1 DUP5 PUSH1 0x20 ADD REVERT JUMPDEST DUP2 PUSH1 0x40 MLOAD PUSH32 0x8C379A000000000000000000000000000000000000000000000000000000000 DUP2 MSTORE PUSH1 0x4 ADD PUSH2 0x4BC0 SWAP2 SWAP1 PUSH2 0x63DA JUMP JUMPDEST PUSH1 0x40 MLOAD DUP1 SWAP2 SUB SWAP1 REVERT JUMPDEST SWAP4 SWAP3 POP POP POP JUMP JUMPDEST PUSH1 0x0 DUP2 SWAP1 POP SWAP2 SWAP1 POP JUMP JUMPDEST PUSH2 0x4BE3 DUP2 PUSH2 0x4BD0 JUMP JUMPDEST DUP3 MSTORE POP POP JUMP JUMPDEST PUSH1 0x0 PUSH1 0x20 DUP3 ADD SWAP1 POP PUSH2 0x4BFE PUSH1 0x0 DUP4 ADD DUP5 PUSH2 0x4BDA JUMP JUMPDEST SWAP3 SWAP2 POP POP JUMP JUMPDEST PUSH1 0x0 DUP1 REVERT JUMPDEST PUSH1 0x0 PUSH1 0xFF DUP3 AND SWAP1 POP SWAP2 SWAP1 POP JUMP JUMPDEST PUSH2 0x4C1F DUP2 PUSH2 0x4C09 JUMP JUMPDEST DUP2 EQ PUSH2 0x4C2A JUMPI PUSH1 0x0 DUP1 REVERT JUMPDEST POP JUMP JUMPDEST PUSH1 0x0 DUP2 CALLDATALOAD SWAP1 POP PUSH2 0x4C3C DUP2 PUSH2 0x4C16 JUMP JUMPDEST SWAP3 SWAP2 POP POP JUMP JUMPDEST PUSH1 0x0 PUSH1 0x20 DUP3 DUP5 SUB SLT ISZERO PUSH2 0x4C58 JUMPI PUSH2 0x4C57 PUSH2 0x4C04 JUMP JUMPDEST JUMPDEST PUSH1 0x0 PUSH2 0x4C66 DUP5 DUP3 DUP6 ADD PUSH2 0x4C2D JUMP JUMPDEST SWAP2 POP POP SWAP3 SWAP2 POP POP JUMP JUMPDEST PUSH1 0x0 PUSH20 0xFFFFFFFFFFFFFFFFFFFFFFFFFFFFFFFFFFFFFFFF DUP3 AND SWAP1 POP SWAP2 SWAP1 POP JUMP JUMPDEST PUSH1 0x0 PUSH2 0x4C9A DUP3 PUSH2 0x4C6F JUMP JUMPDEST SWAP1 POP SWAP2 SWAP1 POP JUMP JUMPDEST PUSH2 0x4CAA DUP2 PUSH2 0x4C8F JUMP JUMPDEST DUP2 EQ PUSH2 0x4CB5 JUMPI PUSH1 0x0 DUP1 REVERT JUMPDEST POP JUMP JUMPDEST PUSH1 0x0 DUP2 CALLDATALOAD SWAP1 POP PUSH2 0x4CC7 DUP2 PUSH2 0x4CA1 JUMP JUMPDEST SWAP3 SWAP2 POP POP JUMP JUMPDEST PUSH2 0x4CD6 DUP2 PUSH2 0x4BD0 JUMP JUMPDEST DUP2 EQ PUSH2 0x4CE1 JUMPI PUSH1 0x0 DUP1 REVERT JUMPDEST POP JUMP JUMPDEST PUSH1 0x0 DUP2 CALLDATALOAD SWAP1 POP PUSH2 0x4CF3 DUP2 PUSH2 0x4CCD JUMP JUMPDEST SWAP3 SWAP2 POP POP JUMP JUMPDEST PUSH1 0x0 DUP1 PUSH1 0x0 PUSH1 0x60 DUP5 DUP7 SUB SLT ISZERO PUSH2 0x4D12 JUMPI PUSH2 0x4D11 PUSH2 0x4C04 JUMP JUMPDEST JUMPDEST PUSH1 0x0 PUSH2 0x4D20 DUP7 DUP3 DUP8 ADD PUSH2 0x4C2D JUMP JUMPDEST SWAP4 POP POP PUSH1 0x20 PUSH2 0x4D31 DUP7 DUP3 DUP8 ADD PUSH2 0x4CB8 JUMP JUMPDEST SWAP3 POP POP PUSH1 0x40 PUSH2 0x4D42 DUP7 DUP3 DUP8 ADD PUSH2 0x4CE4 JUMP JUMPDEST SWAP2 POP POP SWAP3 POP SWAP3 POP SWAP3 JUMP JUMPDEST PUSH1 0x0 DUP1 PUSH1 0x40 DUP4 DUP6 SUB SLT ISZERO PUSH2 0x4D63 JUMPI PUSH2 0x4D62 PUSH2 0x4C04 JUMP JUMPDEST JUMPDEST PUSH1 0x0 PUSH2 0x4D71 DUP6 DUP3 DUP7 ADD PUSH2 0x4C2D JUMP JUMPDEST SWAP3 POP POP PUSH1 0x20 PUSH2 0x4D82 DUP6 DUP3 DUP7 ADD PUSH2 0x4CB8 JUMP JUMPDEST SWAP2 POP POP SWAP3 POP SWAP3 SWAP1 POP JUMP JUMPDEST PUSH1 0x0 DUP2 MLOAD SWAP1 POP SWAP2 SWAP1 POP JUMP JUMPDEST PUSH1 0x0 DUP3 DUP3 MSTORE PUSH1 0x20 DUP3 ADD SWAP1 POP SWAP3 SWAP2 POP POP JUMP JUMPDEST PUSH1 0x0 DUP2 SWAP1 POP PUSH1 0x20 DUP3 ADD SWAP1 POP SWAP2 SWAP1 POP JUMP JUMPDEST PUSH2 0x4DC1 DUP2 PUSH2 0x4BD0 JUMP JUMPDEST DUP3 MSTORE POP POP JUMP JUMPDEST PUSH1 0x0 PUSH2 0x4DD3 DUP4 DUP4 PUSH2 0x4DB8 JUMP JUMPDEST PUSH1 0x20 DUP4 ADD SWAP1 POP SWAP3 SWAP2 POP POP JUMP JUMPDEST PUSH1 0x0 PUSH1 0x20 DUP3 ADD SWAP1 POP SWAP2 SWAP1 POP JUMP JUMPDEST PUSH1 0x0 PUSH2 0x4DF7 DUP3 PUSH2 0x4D8C JUMP JUMPDEST PUSH2 0x4E01 DUP2 DUP6 PUSH2 0x4D97 JUMP JUMPDEST SWAP4 POP PUSH2 0x4E0C DUP4 PUSH2 0x4DA8 JUMP JUMPDEST DUP1 PUSH1 0x0 JUMPDEST DUP4 DUP2 LT ISZERO PUSH2 0x4E3D JUMPI DUP2 MLOAD PUSH2 0x4E24 DUP9 DUP3 PUSH2 0x4DC7 JUMP JUMPDEST SWAP8 POP PUSH2 0x4E2F DUP4 PUSH2 0x4DDF JUMP JUMPDEST SWAP3 POP POP PUSH1 0x1 DUP2 ADD SWAP1 POP PUSH2 0x4E10 JUMP JUMPDEST POP DUP6 SWAP4 POP POP POP POP SWAP3 SWAP2 POP POP JUMP JUMPDEST PUSH1 0x0 PUSH1 0x20 DUP3 ADD SWAP1 POP DUP2 DUP2 SUB PUSH1 0x0 DUP4 ADD MSTORE PUSH2 0x4E64 DUP2 DUP5 PUSH2 0x4DEC JUMP JUMPDEST SWAP1 POP SWAP3 SWAP2 POP POP JUMP JUMPDEST PUSH1 0x0 DUP2 MLOAD SWAP1 POP SWAP2 SWAP1 POP JUMP JUMPDEST PUSH1 0x0 DUP3 DUP3 MSTORE PUSH1 0x20 DUP3 ADD SWAP1 POP SWAP3 SWAP2 POP POP JUMP JUMPDEST PUSH1 0x0 DUP2 SWAP1 POP PUSH1 0x20 DUP3 ADD SWAP1 POP SWAP2 SWAP1 POP JUMP JUMPDEST PUSH1 0xC0 DUP3 ADD PUSH1 0x0 DUP3 ADD MLOAD PUSH2 0x4EAE PUSH1 0x0 DUP6 ADD DUP3 PUSH2 0x4DB8 JUMP JUMPDEST POP PUSH1 0x20 DUP3 ADD MLOAD PUSH2 0x4EC1 PUSH1 0x20 DUP6 ADD DUP3 PUSH2 0x4DB8 JUMP JUMPDEST POP PUSH1 0x40 DUP3 ADD MLOAD PUSH2 0x4ED4 PUSH1 0x40 DUP6 ADD DUP3 PUSH2 0x4DB8 JUMP JUMPDEST POP PUSH1 0x60 DUP3 ADD MLOAD PUSH2 0x4EE7 PUSH1 0x60 DUP6 ADD DUP3 PUSH2 0x4DB8 JUMP JUMPDEST POP PUSH1 0x80 DUP3 ADD MLOAD PUSH2 0x4EFA PUSH1 0x80 DUP6 ADD DUP3 PUSH2 0x4DB8 JUMP JUMPDEST POP PUSH1 0xA0 DUP3 ADD MLOAD PUSH2 0x4F0D PUSH1 0xA0 DUP6 ADD DUP3 PUSH2 0x4DB8 JUMP JUMPDEST POP POP POP POP JUMP JUMPDEST PUSH1 0x0 PUSH2 0x4F1F DUP4 DUP4 PUSH2 0x4E98 JUMP JUMPDEST PUSH1 0xC0 DUP4 ADD SWAP1 POP SWAP3 SWAP2 POP POP JUMP JUMPDEST PUSH1 0x0 PUSH1 0x20 DUP3 ADD SWAP1 POP SWAP2 SWAP1 POP JUMP JUMPDEST PUSH1 0x0 PUSH2 0x4F43 DUP3 PUSH2 0x4E6C JUMP JUMPDEST PUSH2 0x4F4D DUP2 DUP6 PUSH2 0x4E77 JUMP JUMPDEST SWAP4 POP PUSH2 0x4F58 DUP4 PUSH2 0x4E88 JUMP JUMPDEST DUP1 PUSH1 0x0 JUMPDEST DUP4 DUP2 LT ISZERO PUSH2 0x4F89 JUMPI DUP2 MLOAD PUSH2 0x4F70 DUP9 DUP3 PUSH2 0x4F13 JUMP JUMPDEST SWAP8 POP PUSH2 0x4F7B DUP4 PUSH2 0x4F2B JUMP JUMPDEST SWAP3 POP POP PUSH1 0x1 DUP2 ADD SWAP1 POP PUSH2 0x4F5C JUMP JUMPDEST POP DUP6 SWAP4 POP POP POP POP SWAP3 SWAP2 POP POP JUMP JUMPDEST PUSH1 0x0 PUSH1 0x20 DUP3 ADD SWAP1 POP DUP2 DUP2 SUB PUSH1 0x0 DUP4 ADD MSTORE PUSH2 0x4FB0 DUP2 DUP5 PUSH2 0x4F38 JUMP JUMPDEST SWAP1 POP SWAP3 SWAP2 POP POP JUMP JUMPDEST PUSH1 0x0 DUP1 PUSH1 0x0 DUP1 PUSH1 0x80 DUP6 DUP8 SUB SLT ISZERO PUSH2 0x4FD2 JUMPI PUSH2 0x4FD1 PUSH2 0x4C04 JUMP JUMPDEST JUMPDEST PUSH1 0x0 PUSH2 0x4FE0 DUP8 DUP3 DUP9 ADD PUSH2 0x4C2D JUMP JUMPDEST SWAP5 POP POP PUSH1 0x20 PUSH2 0x4FF1 DUP8 DUP3 DUP9 ADD PUSH2 0x4CB8 JUMP JUMPDEST SWAP4 POP POP PUSH1 0x40 PUSH2 0x5002 DUP8 DUP3 DUP9 ADD PUSH2 0x4CE4 JUMP JUMPDEST SWAP3 POP POP PUSH1 0x60 PUSH2 0x5013 DUP8 DUP3 DUP9 ADD PUSH2 0x4CE4 JUMP JUMPDEST SWAP2 POP POP SWAP3 SWAP6 SWAP2 SWAP5 POP SWAP3 POP JUMP JUMPDEST PUSH1 0x0 PUSH1 0x60 DUP3 ADD SWAP1 POP PUSH2 0x5034 PUSH1 0x0 DUP4 ADD DUP7 PUSH2 0x4BDA JUMP JUMPDEST PUSH2 0x5041 PUSH1 0x20 DUP4 ADD DUP6 PUSH2 0x4BDA JUMP JUMPDEST PUSH2 0x504E PUSH1 0x40 DUP4 ADD DUP5 PUSH2 0x4BDA JUMP JUMPDEST SWAP5 SWAP4 POP POP POP POP JUMP JUMPDEST PUSH1 0x0 PUSH1 0x20 DUP3 DUP5 SUB SLT ISZERO PUSH2 0x506C JUMPI PUSH2 0x506B PUSH2 0x4C04 JUMP JUMPDEST JUMPDEST PUSH1 0x0 PUSH2 0x507A DUP5 DUP3 DUP6 ADD PUSH2 0x4CE4 JUMP JUMPDEST SWAP2 POP POP SWAP3 SWAP2 POP POP JUMP JUMPDEST PUSH1 0x0 DUP2 SWAP1 POP SWAP2 SWAP1 POP JUMP JUMPDEST PUSH1 0x0 PUSH2 0x50A8 PUSH2 0x50A3 PUSH2 0x509E DUP5 PUSH2 0x4C6F JUMP JUMPDEST PUSH2 0x5083 JUMP JUMPDEST PUSH2 0x4C6F JUMP JUMPDEST SWAP1 POP SWAP2 SWAP1 POP JUMP JUMPDEST PUSH1 0x0 PUSH2 0x50BA DUP3 PUSH2 0x508D JUMP JUMPDEST SWAP1 POP SWAP2 SWAP1 POP JUMP JUMPDEST PUSH1 0x0 PUSH2 0x50CC DUP3 PUSH2 0x50AF JUMP JUMPDEST SWAP1 POP SWAP2 SWAP1 POP JUMP JUMPDEST PUSH2 0x50DC DUP2 PUSH2 0x50C1 JUMP JUMPDEST DUP3 MSTORE POP POP JUMP JUMPDEST PUSH1 0x0 PUSH1 0xC0 DUP3 ADD SWAP1 POP PUSH2 0x50F7 PUSH1 0x0 DUP4 ADD DUP10 PUSH2 0x50D3 JUMP JUMPDEST PUSH2 0x5104 PUSH1 0x20 DUP4 ADD DUP9 PUSH2 0x4BDA JUMP JUMPDEST PUSH2 0x5111 PUSH1 0x40 DUP4 ADD DUP8 PUSH2 0x4BDA JUMP JUMPDEST PUSH2 0x511E PUSH1 0x60 DUP4 ADD DUP7 PUSH2 0x4BDA JUMP JUMPDEST PUSH2 0x512B PUSH1 0x80 DUP4 ADD DUP6 PUSH2 0x4BDA JUMP JUMPDEST PUSH2 0x5138 PUSH1 0xA0 DUP4 ADD DUP5 PUSH2 0x4BDA JUMP JUMPDEST SWAP8 SWAP7 POP POP POP POP POP POP POP JUMP JUMPDEST PUSH1 0x0 DUP2 SWAP1 POP SWAP2 SWAP1 POP JUMP JUMPDEST PUSH2 0x5156 DUP2 PUSH2 0x5143 JUMP JUMPDEST DUP2 EQ PUSH2 0x5161 JUMPI PUSH1 0x0 DUP1 REVERT JUMPDEST POP JUMP JUMPDEST PUSH1 0x0 DUP2 CALLDATALOAD SWAP1 POP PUSH2 0x5173 DUP2 PUSH2 0x514D JUMP JUMPDEST SWAP3 SWAP2 POP POP JUMP JUMPDEST PUSH1 0x0 DUP1 PUSH1 0x0 PUSH1 0x60 DUP5 DUP7 SUB SLT ISZERO PUSH2 0x5192 JUMPI PUSH2 0x5191 PUSH2 0x4C04 JUMP JUMPDEST JUMPDEST PUSH1 0x0 PUSH2 0x51A0 DUP7 DUP3 DUP8 ADD PUSH2 0x4C2D JUMP JUMPDEST SWAP4 POP POP PUSH1 0x20 PUSH2 0x51B1 DUP7 DUP3 DUP8 ADD PUSH2 0x4CB8 JUMP JUMPDEST SWAP3 POP POP PUSH1 0x40 PUSH2 0x51C2 DUP7 DUP3 DUP8 ADD PUSH2 0x5164 JUMP JUMPDEST SWAP2 POP POP SWAP3 POP SWAP3 POP SWAP3 JUMP JUMPDEST PUSH1 0x0 PUSH1 0x40 DUP3 ADD SWAP1 POP PUSH2 0x51E1 PUSH1 0x0 DUP4 ADD DUP6 PUSH2 0x4BDA JUMP JUMPDEST PUSH2 0x51EE PUSH1 0x20 DUP4 ADD DUP5 PUSH2 0x4BDA JUMP JUMPDEST SWAP4 SWAP3 POP POP POP JUMP JUMPDEST PUSH1 0x0 DUP1 PUSH1 0x40 DUP4 DUP6 SUB SLT ISZERO PUSH2 0x520C JUMPI PUSH2 0x520B PUSH2 0x4C04 JUMP JUMPDEST JUMPDEST PUSH1 0x0 PUSH2 0x521A DUP6 DUP3 DUP7 ADD PUSH2 0x4C2D JUMP JUMPDEST SWAP3 POP POP PUSH1 0x20 PUSH2 0x522B DUP6 DUP3 DUP7 ADD PUSH2 0x4CE4 JUMP JUMPDEST SWAP2 POP POP SWAP3 POP SWAP3 SWAP1 POP JUMP JUMPDEST PUSH1 0x0 DUP1 PUSH1 0x40 DUP4 DUP6 SUB SLT ISZERO PUSH2 0x524C JUMPI PUSH2 0x524B PUSH2 0x4C04 JUMP JUMPDEST JUMPDEST PUSH1 0x0 PUSH2 0x525A DUP6 DUP3 DUP7 ADD PUSH2 0x4C2D JUMP JUMPDEST SWAP3 POP POP PUSH1 0x20 PUSH2 0x526B DUP6 DUP3 DUP7 ADD PUSH2 0x5164 JUMP JUMPDEST SWAP2 POP POP SWAP3 POP SWAP3 SWAP1 POP JUMP JUMPDEST PUSH1 0x0 DUP1 PUSH1 0x0 DUP1 PUSH1 0x80 DUP6 DUP8 SUB SLT ISZERO PUSH2 0x528F JUMPI PUSH2 0x528E PUSH2 0x4C04 JUMP JUMPDEST JUMPDEST PUSH1 0x0 PUSH2 0x529D DUP8 DUP3 DUP9 ADD PUSH2 0x4CB8 JUMP JUMPDEST SWAP5 POP POP PUSH1 0x20 PUSH2 0x52AE DUP8 DUP3 DUP9 ADD PUSH2 0x4C2D JUMP JUMPDEST SWAP4 POP POP PUSH1 0x40 PUSH2 0x52BF DUP8 DUP3 DUP9 ADD PUSH2 0x4CE4 JUMP JUMPDEST SWAP3 POP POP PUSH1 0x60 PUSH2 0x52D0 DUP8 DUP3 DUP9 ADD PUSH2 0x4CE4 JUMP JUMPDEST SWAP2 POP POP SWAP3 SWAP6 SWAP2 SWAP5 POP SWAP3 POP JUMP JUMPDEST PUSH1 0x0 DUP2 ISZERO ISZERO SWAP1 POP SWAP2 SWAP1 POP JUMP JUMPDEST PUSH2 0x52F1 DUP2 PUSH2 0x52DC JUMP JUMPDEST DUP3 MSTORE POP POP JUMP JUMPDEST PUSH1 0x0 PUSH1 0x20 DUP3 ADD SWAP1 POP PUSH2 0x530C PUSH1 0x0 DUP4 ADD DUP5 PUSH2 0x52E8 JUMP JUMPDEST SWAP3 SWAP2 POP POP JUMP JUMPDEST PUSH1 0x0 PUSH2 0x531D DUP3 PUSH2 0x4C8F JUMP JUMPDEST SWAP1 POP SWAP2 SWAP1 POP JUMP JUMPDEST PUSH2 0x532D DUP2 PUSH2 0x5312 JUMP JUMPDEST DUP2 EQ PUSH2 0x5338 JUMPI PUSH1 0x0 DUP1 REVERT JUMPDEST POP JUMP JUMPDEST PUSH1 0x0 DUP2 CALLDATALOAD SWAP1 POP PUSH2 0x534A DUP2 PUSH2 0x5324 JUMP JUMPDEST SWAP3 SWAP2 POP POP JUMP JUMPDEST PUSH1 0x0 PUSH2 0xFFFF DUP3 AND SWAP1 POP SWAP2 SWAP1 POP JUMP JUMPDEST PUSH2 0x5367 DUP2 PUSH2 0x5350 JUMP JUMPDEST DUP2 EQ PUSH2 0x5372 JUMPI PUSH1 0x0 DUP1 REVERT JUMPDEST POP JUMP JUMPDEST PUSH1 0x0 DUP2 CALLDATALOAD SWAP1 POP PUSH2 0x5384 DUP2 PUSH2 0x535E JUMP JUMPDEST SWAP3 SWAP2 POP POP JUMP JUMPDEST PUSH2 0x5393 DUP2 PUSH2 0x52DC JUMP JUMPDEST DUP2 EQ PUSH2 0x539E JUMPI PUSH1 0x0 DUP1 REVERT JUMPDEST POP JUMP JUMPDEST PUSH1 0x0 DUP2 CALLDATALOAD SWAP1 POP PUSH2 0x53B0 DUP2 PUSH2 0x538A JUMP JUMPDEST SWAP3 SWAP2 POP POP JUMP JUMPDEST PUSH1 0x0 DUP1 PUSH1 0x0 DUP1 PUSH1 0x80 DUP6 DUP8 SUB SLT ISZERO PUSH2 0x53D0 JUMPI PUSH2 0x53CF PUSH2 0x4C04 JUMP JUMPDEST JUMPDEST PUSH1 0x0 PUSH2 0x53DE DUP8 DUP3 DUP9 ADD PUSH2 0x4CE4 JUMP JUMPDEST SWAP5 POP POP PUSH1 0x20 PUSH2 0x53EF DUP8 DUP3 DUP9 ADD PUSH2 0x533B JUMP JUMPDEST SWAP4 POP POP PUSH1 0x40 PUSH2 0x5400 DUP8 DUP3 DUP9 ADD PUSH2 0x5375 JUMP JUMPDEST SWAP3 POP POP PUSH1 0x60 PUSH2 0x5411 DUP8 DUP3 DUP9 ADD PUSH2 0x53A1 JUMP JUMPDEST SWAP2 POP POP SWAP3 SWAP6 SWAP2 SWAP5 POP SWAP3 POP JUMP JUMPDEST PUSH2 0x5426 DUP2 PUSH2 0x4C8F JUMP JUMPDEST DUP3 MSTORE POP POP JUMP JUMPDEST PUSH1 0x0 PUSH1 0x20 DUP3 ADD SWAP1 POP PUSH2 0x5441 PUSH1 0x0 DUP4 ADD DUP5 PUSH2 0x541D JUMP JUMPDEST SWAP3 SWAP2 POP POP JUMP JUMPDEST PUSH1 0x0 DUP1 PUSH1 0x40 DUP4 DUP6 SUB SLT ISZERO PUSH2 0x545E JUMPI PUSH2 0x545D PUSH2 0x4C04 JUMP JUMPDEST JUMPDEST PUSH1 0x0 PUSH2 0x546C DUP6 DUP3 DUP7 ADD PUSH2 0x4CE4 JUMP JUMPDEST SWAP3 POP POP PUSH1 0x20 PUSH2 0x547D DUP6 DUP3 DUP7 ADD PUSH2 0x4CE4 JUMP JUMPDEST SWAP2 POP POP SWAP3 POP SWAP3 SWAP1 POP JUMP JUMPDEST PUSH1 0x0 DUP1 PUSH1 0x40 DUP4 DUP6 SUB SLT ISZERO PUSH2 0x549E JUMPI PUSH2 0x549D PUSH2 0x4C04 JUMP JUMPDEST JUMPDEST PUSH1 0x0 PUSH2 0x54AC DUP6 DUP3 DUP7 ADD PUSH2 0x4CE4 JUMP JUMPDEST SWAP3 POP POP PUSH1 0x20 PUSH2 0x54BD DUP6 DUP3 DUP7 ADD PUSH2 0x4CB8 JUMP JUMPDEST SWAP2 POP POP SWAP3 POP SWAP3 SWAP1 POP JUMP JUMPDEST PUSH1 0x0 PUSH1 0x80 DUP3 ADD SWAP1 POP PUSH2 0x54DC PUSH1 0x0 DUP4 ADD DUP8 PUSH2 0x4BDA JUMP JUMPDEST PUSH2 0x54E9 PUSH1 0x20 DUP4 ADD DUP7 PUSH2 0x4BDA JUMP JUMPDEST PUSH2 0x54F6 PUSH1 0x40 DUP4 ADD DUP6 PUSH2 0x4BDA JUMP JUMPDEST PUSH2 0x5503 PUSH1 0x60 DUP4 ADD DUP5 PUSH2 0x4BDA JUMP JUMPDEST SWAP6 SWAP5 POP POP POP POP POP JUMP JUMPDEST PUSH1 0x0 DUP1 PUSH1 0x40 DUP4 DUP6 SUB SLT ISZERO PUSH2 0x5523 JUMPI PUSH2 0x5522 PUSH2 0x4C04 JUMP JUMPDEST JUMPDEST PUSH1 0x0 PUSH2 0x5531 DUP6 DUP3 DUP7 ADD PUSH2 0x4CB8 JUMP JUMPDEST SWAP3 POP POP PUSH1 0x20 PUSH2 0x5542 DUP6 DUP3 DUP7 ADD PUSH2 0x4C2D JUMP JUMPDEST SWAP2 POP POP SWAP3 POP SWAP3 SWAP1 POP JUMP JUMPDEST PUSH1 0x0 DUP1 PUSH1 0x40 DUP4 DUP6 SUB SLT ISZERO PUSH2 0x5563 JUMPI PUSH2 0x5562 PUSH2 0x4C04 JUMP JUMPDEST JUMPDEST PUSH1 0x0 PUSH2 0x5571 DUP6 DUP3 DUP7 ADD PUSH2 0x4C2D JUMP JUMPDEST SWAP3 POP POP PUSH1 0x20 PUSH2 0x5582 DUP6 DUP3 DUP7 ADD PUSH2 0x53A1 JUMP JUMPDEST SWAP2 POP POP SWAP3 POP SWAP3 SWAP1 POP JUMP JUMPDEST PUSH1 0x0 DUP1 PUSH1 0x0 DUP1 PUSH1 0x80 DUP6 DUP8 SUB SLT ISZERO PUSH2 0x55A6 JUMPI PUSH2 0x55A5 PUSH2 0x4C04 JUMP JUMPDEST JUMPDEST PUSH1 0x0 PUSH2 0x55B4 DUP8 DUP3 DUP9 ADD PUSH2 0x4C2D JUMP JUMPDEST SWAP5 POP POP PUSH1 0x20 PUSH2 0x55C5 DUP8 DUP3 DUP9 ADD PUSH2 0x4CE4 JUMP JUMPDEST SWAP4 POP POP PUSH1 0x40 PUSH2 0x55D6 DUP8 DUP3 DUP9 ADD PUSH2 0x5375 JUMP JUMPDEST SWAP3 POP POP PUSH1 0x60 PUSH2 0x55E7 DUP8 DUP3 DUP9 ADD PUSH2 0x53A1 JUMP JUMPDEST SWAP2 POP POP SWAP3 SWAP6 SWAP2 SWAP5 POP SWAP3 POP JUMP JUMPDEST PUSH1 0x0 DUP1 PUSH1 0x0 PUSH1 0x60 DUP5 DUP7 SUB SLT ISZERO PUSH2 0x560C JUMPI PUSH2 0x560B PUSH2 0x4C04 JUMP JUMPDEST JUMPDEST PUSH1 0x0 PUSH2 0x561A DUP7 DUP3 DUP8 ADD PUSH2 0x4CB8 JUMP JUMPDEST SWAP4 POP POP PUSH1 0x20 PUSH2 0x562B DUP7 DUP3 DUP8 ADD PUSH2 0x4CE4 JUMP JUMPDEST SWAP3 POP POP PUSH1 0x40 PUSH2 0x563C DUP7 DUP3 DUP8 ADD PUSH2 0x4CE4 JUMP JUMPDEST SWAP2 POP POP SWAP3 POP SWAP3 POP SWAP3 JUMP JUMPDEST PUSH1 0x0 PUSH1 0xC0 DUP3 ADD SWAP1 POP PUSH2 0x565B PUSH1 0x0 DUP4 ADD DUP10 PUSH2 0x4BDA JUMP JUMPDEST PUSH2 0x5668 PUSH1 0x20 DUP4 ADD DUP9 PUSH2 0x4BDA JUMP JUMPDEST PUSH2 0x5675 PUSH1 0x40 DUP4 ADD DUP8 PUSH2 0x4BDA JUMP JUMPDEST PUSH2 0x5682 PUSH1 0x60 DUP4 ADD DUP7 PUSH2 0x4BDA JUMP JUMPDEST PUSH2 0x568F PUSH1 0x80 DUP4 ADD DUP6 PUSH2 0x4BDA JUMP JUMPDEST PUSH2 0x569C PUSH1 0xA0 DUP4 ADD DUP5 PUSH2 0x4BDA JUMP JUMPDEST SWAP8 SWAP7 POP POP POP POP POP POP POP JUMP JUMPDEST PUSH1 0x0 PUSH1 0x20 DUP3 DUP5 SUB SLT ISZERO PUSH2 0x56BD JUMPI PUSH2 0x56BC PUSH2 0x4C04 JUMP JUMPDEST JUMPDEST PUSH1 0x0 PUSH2 0x56CB DUP5 DUP3 DUP6 ADD PUSH2 0x4CB8 JUMP JUMPDEST SWAP2 POP POP SWAP3 SWAP2 POP POP JUMP JUMPDEST PUSH1 0x0 PUSH1 0x40 DUP3 ADD SWAP1 POP DUP2 DUP2 SUB PUSH1 0x0 DUP4 ADD MSTORE PUSH2 0x56EE DUP2 DUP6 PUSH2 0x4DEC JUMP JUMPDEST SWAP1 POP DUP2 DUP2 SUB PUSH1 0x20 DUP4 ADD MSTORE PUSH2 0x5702 DUP2 DUP5 PUSH2 0x4DEC JUMP JUMPDEST SWAP1 POP SWAP4 SWAP3 POP POP POP JUMP JUMPDEST PUSH1 0x0 DUP3 DUP3 MSTORE PUSH1 0x20 DUP3 ADD SWAP1 POP SWAP3 SWAP2 POP POP JUMP JUMPDEST PUSH32 0x4465706F736974653A2044495341424C45204445504F534954494E4700000000 PUSH1 0x0 DUP3 ADD MSTORE POP JUMP JUMPDEST PUSH1 0x0 PUSH2 0x5752 PUSH1 0x1C DUP4 PUSH2 0x570B JUMP JUMPDEST SWAP2 POP PUSH2 0x575D DUP3 PUSH2 0x571C JUMP JUMPDEST PUSH1 0x20 DUP3 ADD SWAP1 POP SWAP2 SWAP1 POP JUMP JUMPDEST PUSH1 0x0 PUSH1 0x20 DUP3 ADD SWAP1 POP DUP2 DUP2 SUB PUSH1 0x0 DUP4 ADD MSTORE PUSH2 0x5781 DUP2 PUSH2 0x5745 JUMP JUMPDEST SWAP1 POP SWAP2 SWAP1 POP JUMP JUMPDEST PUSH32 0x4E487B7100000000000000000000000000000000000000000000000000000000 PUSH1 0x0 MSTORE PUSH1 0x32 PUSH1 0x4 MSTORE PUSH1 0x24 PUSH1 0x0 REVERT JUMPDEST PUSH1 0x0 DUP2 MLOAD SWAP1 POP PUSH2 0x57C6 DUP2 PUSH2 0x4CCD JUMP JUMPDEST SWAP3 SWAP2 POP POP JUMP JUMPDEST PUSH1 0x0 PUSH1 0x20 DUP3 DUP5 SUB SLT ISZERO PUSH2 0x57E2 JUMPI PUSH2 0x57E1 PUSH2 0x4C04 JUMP JUMPDEST JUMPDEST PUSH1 0x0 PUSH2 0x57F0 DUP5 DUP3 DUP6 ADD PUSH2 0x57B7 JUMP JUMPDEST SWAP2 POP POP SWAP3 SWAP2 POP POP JUMP JUMPDEST PUSH32 0x4E487B7100000000000000000000000000000000000000000000000000000000 PUSH1 0x0 MSTORE PUSH1 0x41 PUSH1 0x4 MSTORE PUSH1 0x24 PUSH1 0x0 REVERT JUMPDEST PUSH32 0x5265656E7472616E637947756172643A207265656E7472616E742063616C6C00 PUSH1 0x0 DUP3 ADD MSTORE POP JUMP JUMPDEST PUSH1 0x0 PUSH2 0x585E PUSH1 0x1F DUP4 PUSH2 0x570B JUMP JUMPDEST SWAP2 POP PUSH2 0x5869 DUP3 PUSH2 0x5828 JUMP JUMPDEST PUSH1 0x20 DUP3 ADD SWAP1 POP SWAP2 SWAP1 POP JUMP JUMPDEST PUSH1 0x0 PUSH1 0x20 DUP3 ADD SWAP1 POP DUP2 DUP2 SUB PUSH1 0x0 DUP4 ADD MSTORE PUSH2 0x588D DUP2 PUSH2 0x5851 JUMP JUMPDEST SWAP1 POP SWAP2 SWAP1 POP JUMP JUMPDEST PUSH32 0x57697468647261773A2044495341424C45205749544844524157494E47000000 PUSH1 0x0 DUP3 ADD MSTORE POP JUMP JUMPDEST PUSH1 0x0 PUSH2 0x58CA PUSH1 0x1D DUP4 PUSH2 0x570B JUMP JUMPDEST SWAP2 POP PUSH2 0x58D5 DUP3 PUSH2 0x5894 JUMP JUMPDEST PUSH1 0x20 DUP3 ADD SWAP1 POP SWAP2 SWAP1 POP JUMP JUMPDEST PUSH1 0x0 PUSH1 0x20 DUP3 ADD SWAP1 POP DUP2 DUP2 SUB PUSH1 0x0 DUP4 ADD MSTORE PUSH2 0x58F9 DUP2 PUSH2 0x58BD JUMP JUMPDEST SWAP1 POP SWAP2 SWAP1 POP JUMP JUMPDEST PUSH32 0x77697468647261773A206E6F7420676F6F640000000000000000000000000000 PUSH1 0x0 DUP3 ADD MSTORE POP JUMP JUMPDEST PUSH1 0x0 PUSH2 0x5936 PUSH1 0x12 DUP4 PUSH2 0x570B JUMP JUMPDEST SWAP2 POP PUSH2 0x5941 DUP3 PUSH2 0x5900 JUMP JUMPDEST PUSH1 0x20 DUP3 ADD SWAP1 POP SWAP2 SWAP1 POP JUMP JUMPDEST PUSH1 0x0 PUSH1 0x20 DUP3 ADD SWAP1 POP DUP2 DUP2 SUB PUSH1 0x0 DUP4 ADD MSTORE PUSH2 0x5965 DUP2 PUSH2 0x5929 JUMP JUMPDEST SWAP1 POP SWAP2 SWAP1 POP JUMP JUMPDEST PUSH32 0x77697468647261773A206E6F20617661696C61626C6520616D6F756E74000000 PUSH1 0x0 DUP3 ADD MSTORE POP JUMP JUMPDEST PUSH1 0x0 PUSH2 0x59A2 PUSH1 0x1D DUP4 PUSH2 0x570B JUMP JUMPDEST SWAP2 POP PUSH2 0x59AD DUP3 PUSH2 0x596C JUMP JUMPDEST PUSH1 0x20 DUP3 ADD SWAP1 POP SWAP2 SWAP1 POP JUMP JUMPDEST PUSH1 0x0 PUSH1 0x20 DUP3 ADD SWAP1 POP DUP2 DUP2 SUB PUSH1 0x0 DUP4 ADD MSTORE PUSH2 0x59D1 DUP2 PUSH2 0x5995 JUMP JUMPDEST SWAP1 POP SWAP2 SWAP1 POP JUMP JUMPDEST PUSH32 0x4E487B7100000000000000000000000000000000000000000000000000000000 PUSH1 0x0 MSTORE PUSH1 0x11 PUSH1 0x4 MSTORE PUSH1 0x24 PUSH1 0x0 REVERT JUMPDEST PUSH1 0x0 PUSH2 0x5A12 DUP3 PUSH2 0x4C09 JUMP JUMPDEST SWAP2 POP PUSH1 0xFF DUP3 SUB PUSH2 0x5A25 JUMPI PUSH2 0x5A24 PUSH2 0x59D8 JUMP JUMPDEST JUMPDEST PUSH1 0x1 DUP3 ADD SWAP1 POP SWAP2 SWAP1 POP JUMP JUMPDEST PUSH32 0x4F776E61626C653A2063616C6C6572206973206E6F7420746865206F776E6572 PUSH1 0x0 DUP3 ADD MSTORE POP JUMP JUMPDEST PUSH1 0x0 PUSH2 0x5A66 PUSH1 0x20 DUP4 PUSH2 0x570B JUMP JUMPDEST SWAP2 POP PUSH2 0x5A71 DUP3 PUSH2 0x5A30 JUMP JUMPDEST PUSH1 0x20 DUP3 ADD SWAP1 POP SWAP2 SWAP1 POP JUMP JUMPDEST PUSH1 0x0 PUSH1 0x20 DUP3 ADD SWAP1 POP DUP2 DUP2 SUB PUSH1 0x0 DUP4 ADD MSTORE PUSH2 0x5A95 DUP2 PUSH2 0x5A59 JUMP JUMPDEST SWAP1 POP SWAP2 SWAP1 POP JUMP JUMPDEST PUSH32 0x6164643A20696E76616C6964206465706F736974206665652062617369732070 PUSH1 0x0 DUP3 ADD MSTORE PUSH32 0x6F696E7473000000000000000000000000000000000000000000000000000000 PUSH1 0x20 DUP3 ADD MSTORE POP JUMP JUMPDEST PUSH1 0x0 PUSH2 0x5AF8 PUSH1 0x25 DUP4 PUSH2 0x570B JUMP JUMPDEST SWAP2 POP PUSH2 0x5B03 DUP3 PUSH2 0x5A9C JUMP JUMPDEST PUSH1 0x40 DUP3 ADD SWAP1 POP SWAP2 SWAP1 POP JUMP JUMPDEST PUSH1 0x0 PUSH1 0x20 DUP3 ADD SWAP1 POP DUP2 DUP2 SUB PUSH1 0x0 DUP4 ADD MSTORE PUSH2 0x5B27 DUP2 PUSH2 0x5AEB JUMP JUMPDEST SWAP1 POP SWAP2 SWAP1 POP JUMP JUMPDEST PUSH1 0x0 PUSH2 0x5B39 DUP3 PUSH2 0x4BD0 JUMP JUMPDEST SWAP2 POP PUSH2 0x5B44 DUP4 PUSH2 0x4BD0 JUMP JUMPDEST SWAP3 POP DUP3 DUP3 SUB SWAP1 POP DUP2 DUP2 GT ISZERO PUSH2 0x5B5C JUMPI PUSH2 0x5B5B PUSH2 0x59D8 JUMP JUMPDEST JUMPDEST SWAP3 SWAP2 POP POP JUMP JUMPDEST PUSH1 0x0 PUSH2 0x5B6D DUP3 PUSH2 0x4BD0 JUMP JUMPDEST SWAP2 POP PUSH2 0x5B78 DUP4 PUSH2 0x4BD0 JUMP JUMPDEST SWAP3 POP DUP3 DUP3 ADD SWAP1 POP DUP1 DUP3 GT ISZERO PUSH2 0x5B90 JUMPI PUSH2 0x5B8F PUSH2 0x59D8 JUMP JUMPDEST JUMPDEST SWAP3 SWAP2 POP POP JUMP JUMPDEST PUSH32 0x4E487B7100000000000000000000000000000000000000000000000000000000 PUSH1 0x0 MSTORE PUSH1 0x31 PUSH1 0x4 MSTORE PUSH1 0x24 PUSH1 0x0 REVERT JUMPDEST PUSH32 0x7365743A20696E76616C6964206465706F736974206665652062617369732070 PUSH1 0x0 DUP3 ADD MSTORE PUSH32 0x6F696E7473000000000000000000000000000000000000000000000000000000 PUSH1 0x20 DUP3 ADD MSTORE POP JUMP JUMPDEST PUSH1 0x0 PUSH2 0x5C21 PUSH1 0x25 DUP4 PUSH2 0x570B JUMP JUMPDEST SWAP2 POP PUSH2 0x5C2C DUP3 PUSH2 0x5BC5 JUMP JUMPDEST PUSH1 0x40 DUP3 ADD SWAP1 POP SWAP2 SWAP1 POP JUMP JUMPDEST PUSH1 0x0 PUSH1 0x20 DUP3 ADD SWAP1 POP DUP2 DUP2 SUB PUSH1 0x0 DUP4 ADD MSTORE PUSH2 0x5C50 DUP2 PUSH2 0x5C14 JUMP JUMPDEST SWAP1 POP SWAP2 SWAP1 POP JUMP JUMPDEST PUSH32 0x4F776E61626C653A206E6577206F776E657220697320746865207A65726F2061 PUSH1 0x0 DUP3 ADD MSTORE PUSH32 0x6464726573730000000000000000000000000000000000000000000000000000 PUSH1 0x20 DUP3 ADD MSTORE POP JUMP JUMPDEST PUSH1 0x0 PUSH2 0x5CB3 PUSH1 0x26 DUP4 PUSH2 0x570B JUMP JUMPDEST SWAP2 POP PUSH2 0x5CBE DUP3 PUSH2 0x5C57 JUMP JUMPDEST PUSH1 0x40 DUP3 ADD SWAP1 POP SWAP2 SWAP1 POP JUMP JUMPDEST PUSH1 0x0 PUSH1 0x20 DUP3 ADD SWAP1 POP DUP2 DUP2 SUB PUSH1 0x0 DUP4 ADD MSTORE PUSH2 0x5CE2 DUP2 PUSH2 0x5CA6 JUMP JUMPDEST SWAP1 POP SWAP2 SWAP1 POP JUMP JUMPDEST PUSH32 0x4465706F736974653A20496E73756666696369656E742042616C616E6365206F PUSH1 0x0 DUP3 ADD MSTORE PUSH32 0x66204469616D6F6E640000000000000000000000000000000000000000000000 PUSH1 0x20 DUP3 ADD MSTORE POP JUMP JUMPDEST PUSH1 0x0 PUSH2 0x5D45 PUSH1 0x29 DUP4 PUSH2 0x570B JUMP JUMPDEST SWAP2 POP PUSH2 0x5D50 DUP3 PUSH2 0x5CE9 JUMP JUMPDEST PUSH1 0x40 DUP3 ADD SWAP1 POP SWAP2 SWAP1 POP JUMP JUMPDEST PUSH1 0x0 PUSH1 0x20 DUP3 ADD SWAP1 POP DUP2 DUP2 SUB PUSH1 0x0 DUP4 ADD MSTORE PUSH2 0x5D74 DUP2 PUSH2 0x5D38 JUMP JUMPDEST SWAP1 POP SWAP2 SWAP1 POP JUMP JUMPDEST PUSH32 0x546F6F206561726C7920746F20616464204469616D6F6E642E00000000000000 PUSH1 0x0 DUP3 ADD MSTORE POP JUMP JUMPDEST PUSH1 0x0 PUSH2 0x5DB1 PUSH1 0x19 DUP4 PUSH2 0x570B JUMP JUMPDEST SWAP2 POP PUSH2 0x5DBC DUP3 PUSH2 0x5D7B JUMP JUMPDEST PUSH1 0x20 DUP3 ADD SWAP1 POP SWAP2 SWAP1 POP JUMP JUMPDEST PUSH1 0x0 PUSH1 0x20 DUP3 ADD SWAP1 POP DUP2 DUP2 SUB PUSH1 0x0 DUP4 ADD MSTORE PUSH2 0x5DE0 DUP2 PUSH2 0x5DA4 JUMP JUMPDEST SWAP1 POP SWAP2 SWAP1 POP JUMP JUMPDEST PUSH32 0x4C696D697420506572696F643A2063616E206E6F74206F766572203130302500 PUSH1 0x0 DUP3 ADD MSTORE POP JUMP JUMPDEST PUSH1 0x0 PUSH2 0x5E1D PUSH1 0x1F DUP4 PUSH2 0x570B JUMP JUMPDEST SWAP2 POP PUSH2 0x5E28 DUP3 PUSH2 0x5DE7 JUMP JUMPDEST PUSH1 0x20 DUP3 ADD SWAP1 POP SWAP2 SWAP1 POP JUMP JUMPDEST PUSH1 0x0 PUSH1 0x20 DUP3 ADD SWAP1 POP DUP2 DUP2 SUB PUSH1 0x0 DUP4 ADD MSTORE PUSH2 0x5E4C DUP2 PUSH2 0x5E10 JUMP JUMPDEST SWAP1 POP SWAP2 SWAP1 POP JUMP JUMPDEST PUSH1 0x0 PUSH2 0x5E5E DUP3 PUSH2 0x4BD0 JUMP JUMPDEST SWAP2 POP PUSH2 0x5E69 DUP4 PUSH2 0x4BD0 JUMP JUMPDEST SWAP3 POP DUP3 DUP3 MUL PUSH2 0x5E77 DUP2 PUSH2 0x4BD0 JUMP JUMPDEST SWAP2 POP DUP3 DUP3 DIV DUP5 EQ DUP4 ISZERO OR PUSH2 0x5E8E JUMPI PUSH2 0x5E8D PUSH2 0x59D8 JUMP JUMPDEST JUMPDEST POP SWAP3 SWAP2 POP POP JUMP JUMPDEST PUSH32 0x4E487B7100000000000000000000000000000000000000000000000000000000 PUSH1 0x0 MSTORE PUSH1 0x12 PUSH1 0x4 MSTORE PUSH1 0x24 PUSH1 0x0 REVERT JUMPDEST PUSH1 0x0 PUSH2 0x5ECF DUP3 PUSH2 0x4BD0 JUMP JUMPDEST SWAP2 POP PUSH2 0x5EDA DUP4 PUSH2 0x4BD0 JUMP JUMPDEST SWAP3 POP DUP3 PUSH2 0x5EEA JUMPI PUSH2 0x5EE9 PUSH2 0x5E95 JUMP JUMPDEST JUMPDEST DUP3 DUP3 DIV SWAP1 POP SWAP3 SWAP2 POP POP JUMP JUMPDEST PUSH32 0x536166654D6174683A206D756C7469706C69636174696F6E206F766572666C6F PUSH1 0x0 DUP3 ADD MSTORE PUSH32 0x7700000000000000000000000000000000000000000000000000000000000000 PUSH1 0x20 DUP3 ADD MSTORE POP JUMP JUMPDEST PUSH1 0x0 PUSH2 0x5F51 PUSH1 0x21 DUP4 PUSH2 0x570B JUMP JUMPDEST SWAP2 POP PUSH2 0x5F5C DUP3 PUSH2 0x5EF5 JUMP JUMPDEST PUSH1 0x40 DUP3 ADD SWAP1 POP SWAP2 SWAP1 POP JUMP JUMPDEST PUSH1 0x0 PUSH1 0x20 DUP3 ADD SWAP1 POP DUP2 DUP2 SUB PUSH1 0x0 DUP4 ADD MSTORE PUSH2 0x5F80 DUP2 PUSH2 0x5F44 JUMP JUMPDEST SWAP1 POP SWAP2 SWAP1 POP JUMP JUMPDEST PUSH32 0x536166654D6174683A206469766973696F6E206279207A65726F000000000000 PUSH1 0x0 DUP3 ADD MSTORE POP JUMP JUMPDEST PUSH1 0x0 PUSH2 0x5FBD PUSH1 0x1A DUP4 PUSH2 0x570B JUMP JUMPDEST SWAP2 POP PUSH2 0x5FC8 DUP3 PUSH2 0x5F87 JUMP JUMPDEST PUSH1 0x20 DUP3 ADD SWAP1 POP SWAP2 SWAP1 POP JUMP JUMPDEST PUSH1 0x0 PUSH1 0x20 DUP3 ADD SWAP1 POP DUP2 DUP2 SUB PUSH1 0x0 DUP4 ADD MSTORE PUSH2 0x5FEC DUP2 PUSH2 0x5FB0 JUMP JUMPDEST SWAP1 POP SWAP2 SWAP1 POP JUMP JUMPDEST PUSH32 0x536166654D6174683A206164646974696F6E206F766572666C6F770000000000 PUSH1 0x0 DUP3 ADD MSTORE POP JUMP JUMPDEST PUSH1 0x0 PUSH2 0x6029 PUSH1 0x1B DUP4 PUSH2 0x570B JUMP JUMPDEST SWAP2 POP PUSH2 0x6034 DUP3 PUSH2 0x5FF3 JUMP JUMPDEST PUSH1 0x20 DUP3 ADD SWAP1 POP SWAP2 SWAP1 POP JUMP JUMPDEST PUSH1 0x0 PUSH1 0x20 DUP3 ADD SWAP1 POP DUP2 DUP2 SUB PUSH1 0x0 DUP4 ADD MSTORE PUSH2 0x6058 DUP2 PUSH2 0x601C JUMP JUMPDEST SWAP1 POP SWAP2 SWAP1 POP JUMP JUMPDEST PUSH32 0x536166654D6174683A207375627472616374696F6E206F766572666C6F770000 PUSH1 0x0 DUP3 ADD MSTORE POP JUMP JUMPDEST PUSH1 0x0 PUSH2 0x6095 PUSH1 0x1E DUP4 PUSH2 0x570B JUMP JUMPDEST SWAP2 POP PUSH2 0x60A0 DUP3 PUSH2 0x605F JUMP JUMPDEST PUSH1 0x20 DUP3 ADD SWAP1 POP SWAP2 SWAP1 POP JUMP JUMPDEST PUSH1 0x0 PUSH1 0x20 DUP3 ADD SWAP1 POP DUP2 DUP2 SUB PUSH1 0x0 DUP4 ADD MSTORE PUSH2 0x60C4 DUP2 PUSH2 0x6088 JUMP JUMPDEST SWAP1 POP SWAP2 SWAP1 POP JUMP JUMPDEST PUSH1 0x0 PUSH1 0x40 DUP3 ADD SWAP1 POP PUSH2 0x60E0 PUSH1 0x0 DUP4 ADD DUP6 PUSH2 0x541D JUMP JUMPDEST PUSH2 0x60ED PUSH1 0x20 DUP4 ADD DUP5 PUSH2 0x4BDA JUMP JUMPDEST SWAP4 SWAP3 POP POP POP JUMP JUMPDEST PUSH1 0x0 DUP2 MLOAD SWAP1 POP PUSH2 0x6103 DUP2 PUSH2 0x538A JUMP JUMPDEST SWAP3 SWAP2 POP POP JUMP JUMPDEST PUSH1 0x0 PUSH1 0x20 DUP3 DUP5 SUB SLT ISZERO PUSH2 0x611F JUMPI PUSH2 0x611E PUSH2 0x4C04 JUMP JUMPDEST JUMPDEST PUSH1 0x0 PUSH2 0x612D DUP5 DUP3 DUP6 ADD PUSH2 0x60F4 JUMP JUMPDEST SWAP2 POP POP SWAP3 SWAP2 POP POP JUMP JUMPDEST PUSH1 0x0 PUSH1 0x60 DUP3 ADD SWAP1 POP PUSH2 0x614B PUSH1 0x0 DUP4 ADD DUP7 PUSH2 0x541D JUMP JUMPDEST PUSH2 0x6158 PUSH1 0x20 DUP4 ADD DUP6 PUSH2 0x541D JUMP JUMPDEST PUSH2 0x6165 PUSH1 0x40 DUP4 ADD DUP5 PUSH2 0x4BDA JUMP JUMPDEST SWAP5 SWAP4 POP POP POP POP JUMP JUMPDEST PUSH32 0x5361666545524332303A204552433230206F7065726174696F6E20646964206E PUSH1 0x0 DUP3 ADD MSTORE PUSH32 0x6F74207375636365656400000000000000000000000000000000000000000000 PUSH1 0x20 DUP3 ADD MSTORE POP JUMP JUMPDEST PUSH1 0x0 PUSH2 0x61C9 PUSH1 0x2A DUP4 PUSH2 0x570B JUMP JUMPDEST SWAP2 POP PUSH2 0x61D4 DUP3 PUSH2 0x616D JUMP JUMPDEST PUSH1 0x40 DUP3 ADD SWAP1 POP SWAP2 SWAP1 POP JUMP JUMPDEST PUSH1 0x0 PUSH1 0x20 DUP3 ADD SWAP1 POP DUP2 DUP2 SUB PUSH1 0x0 DUP4 ADD MSTORE PUSH2 0x61F8 DUP2 PUSH2 0x61BC JUMP JUMPDEST SWAP1 POP SWAP2 SWAP1 POP JUMP JUMPDEST PUSH32 0x416464726573733A20696E73756666696369656E742062616C616E636520666F PUSH1 0x0 DUP3 ADD MSTORE PUSH32 0x722063616C6C0000000000000000000000000000000000000000000000000000 PUSH1 0x20 DUP3 ADD MSTORE POP JUMP JUMPDEST PUSH1 0x0 PUSH2 0x625B PUSH1 0x26 DUP4 PUSH2 0x570B JUMP JUMPDEST SWAP2 POP PUSH2 0x6266 DUP3 PUSH2 0x61FF JUMP JUMPDEST PUSH1 0x40 DUP3 ADD SWAP1 POP SWAP2 SWAP1 POP JUMP JUMPDEST PUSH1 0x0 PUSH1 0x20 DUP3 ADD SWAP1 POP DUP2 DUP2 SUB PUSH1 0x0 DUP4 ADD MSTORE PUSH2 0x628A DUP2 PUSH2 0x624E JUMP JUMPDEST SWAP1 POP SWAP2 SWAP1 POP JUMP JUMPDEST PUSH32 0x416464726573733A2063616C6C20746F206E6F6E2D636F6E7472616374000000 PUSH1 0x0 DUP3 ADD MSTORE POP JUMP JUMPDEST PUSH1 0x0 PUSH2 0x62C7 PUSH1 0x1D DUP4 PUSH2 0x570B JUMP JUMPDEST SWAP2 POP PUSH2 0x62D2 DUP3 PUSH2 0x6291 JUMP JUMPDEST PUSH1 0x20 DUP3 ADD SWAP1 POP SWAP2 SWAP1 POP JUMP JUMPDEST PUSH1 0x0 PUSH1 0x20 DUP3 ADD SWAP1 POP DUP2 DUP2 SUB PUSH1 0x0 DUP4 ADD MSTORE PUSH2 0x62F6 DUP2 PUSH2 0x62BA JUMP JUMPDEST SWAP1 POP SWAP2 SWAP1 POP JUMP JUMPDEST PUSH1 0x0 DUP2 MLOAD SWAP1 POP SWAP2 SWAP1 POP JUMP JUMPDEST PUSH1 0x0 DUP2 SWAP1 POP SWAP3 SWAP2 POP POP JUMP JUMPDEST PUSH1 0x0 JUMPDEST DUP4 DUP2 LT ISZERO PUSH2 0x6331 JUMPI DUP1 DUP3 ADD MLOAD DUP2 DUP5 ADD MSTORE PUSH1 0x20 DUP2 ADD SWAP1 POP PUSH2 0x6316 JUMP JUMPDEST PUSH1 0x0 DUP5 DUP5 ADD MSTORE POP POP POP POP JUMP JUMPDEST PUSH1 0x0 PUSH2 0x6348 DUP3 PUSH2 0x62FD JUMP JUMPDEST PUSH2 0x6352 DUP2 DUP6 PUSH2 0x6308 JUMP JUMPDEST SWAP4 POP PUSH2 0x6362 DUP2 DUP6 PUSH1 0x20 DUP7 ADD PUSH2 0x6313 JUMP JUMPDEST DUP1 DUP5 ADD SWAP2 POP POP SWAP3 SWAP2 POP POP JUMP JUMPDEST PUSH1 0x0 PUSH2 0x637A DUP3 DUP5 PUSH2 0x633D JUMP JUMPDEST SWAP2 POP DUP2 SWAP1 POP SWAP3 SWAP2 POP POP JUMP JUMPDEST PUSH1 0x0 DUP2 MLOAD SWAP1 POP SWAP2 SWAP1 POP JUMP JUMPDEST PUSH1 0x0 PUSH1 0x1F NOT PUSH1 0x1F DUP4 ADD AND SWAP1 POP SWAP2 SWAP1 POP JUMP JUMPDEST PUSH1 0x0 PUSH2 0x63AC DUP3 PUSH2 0x6385 JUMP JUMPDEST PUSH2 0x63B6 DUP2 DUP6 PUSH2 0x570B JUMP JUMPDEST SWAP4 POP PUSH2 0x63C6 DUP2 DUP6 PUSH1 0x20 DUP7 ADD PUSH2 0x6313 JUMP JUMPDEST PUSH2 0x63CF DUP2 PUSH2 0x6390 JUMP JUMPDEST DUP5 ADD SWAP2 POP POP SWAP3 SWAP2 POP POP JUMP JUMPDEST PUSH1 0x0 PUSH1 0x20 DUP3 ADD SWAP1 POP DUP2 DUP2 SUB PUSH1 0x0 DUP4 ADD MSTORE PUSH2 0x63F4 DUP2 DUP5 PUSH2 0x63A1 JUMP JUMPDEST SWAP1 POP SWAP3 SWAP2 POP POP JUMP INVALID LOG2 PUSH5 0x6970667358 0x22 SLT KECCAK256 0xD9 XOR PUSH12 0x860D3179977FFCC0AC0E7D30 0x29 ADD 0xCB 0xD9 SWAP9 KECCAK256 DIV NOT BLOBBASEFEE PUSH17 0x9100F53A9C3C6F64736F6C634300081B00 CALLER "},"methodIdentifiers":{"DEFAULT_HARVEST_INTERVAL()":"d57d4ad5","MAX_HARVEST_INTERVAL()":"0d15e044","add(uint256,address,uint16,bool)":"84e82a33","addRewardInfo(uint256)":"5ac8bd86","addRewards(uint256,uint256)":"fc41aa09","availableForWithdraw(address,uint8)":"9fdf3294","availableIndividualRewardsForHarvest(uint8,address,uint256,uint256)":"102855fc","availableRewardsForHarvest(uint8,address,uint256)":"c65b796a","calculateRewardRate(uint8,address,uint256)":"0d2859ba","canHarvest(uint8,address)":"eff22972","deposit(uint8,uint256)":"f4d4c9d7","depositInfo(address,uint256,uint256)":"f1b8dcad","diamond()":"f0b7db4e","diamondPerBlock()":"c2cb5814","emergencyWithdraw(uint8)":"155622a4","enableStaking(uint8)":"6f77d6ab","getDepositInfo(uint8,address)":"0fcd8955","getDiamondRewardFromBlock(uint8)":"33299feb","getEarnedTokenInfo(uint8,address)":"fe9d2103","getMultiplier(uint256,uint256)":"8dbb1e3a","getTaxInfo(uint8,address)":"0e36a254","getTotalDiamondReward()":"7c1d10a5","getTotalDiamondRewardFromBlock()":"91878760","harvest(uint8)":"15146d13","harvestForDeposit(uint8,int256)":"fe7ce59f","lockUpTaxRate()":"d1d0dc1c","massUpdatePools()":"630b5ba1","nextAddDiamond()":"6c60756e","owner()":"8da5cb5b","payOrLockupPendingDiamond(uint8,int256)":"6695a8c6","pendingDiamondForDeposit(uint8,address,int256)":"3c1d309f","poolInfo(uint256)":"1526fe27","poolLength()":"081e3eda","removeAmountFromDeposits(address,uint8,uint256,uint256)":"6b613b0d","removeEmptyDeposits(address,uint8)":"9548cc17","renounceOwnership()":"715018a6","set(uint8,uint256,uint16,bool)":"da772971","setEnableStaking(uint8,bool)":"9734c7d3","setLockUpTaxRate(uint256)":"ffaf98a0","totalAllocPoint()":"17caf6f1","totalDiamondRewards()":"a0e5f180","transferOwnership(address)":"f2fde38b","updateDepositInfo(uint8,address,int256)":"3b913eba","updatePool(uint8)":"08fa95d4","userInfo(uint256,address)":"93f1a40b","withdraw(uint8,uint256)":"3f489914"}}}}}